{
  "_format": "hh-sol-artifact-1",
  "contractName": "BloomToken",
  "sourceName": "contracts/BloomToken.sol",
  "abi": [
    {
      "inputs": [
        {
          "internalType": "uint256",
          "name": "initialSupply",
          "type": "uint256"
        }
      ],
      "stateMutability": "nonpayable",
      "type": "constructor"
    },
    {
      "inputs": [],
      "name": "AccessControlBadConfirmation",
      "type": "error"
    },
    {
      "inputs": [
        {
          "internalType": "address",
          "name": "account",
          "type": "address"
        },
        {
          "internalType": "bytes32",
          "name": "neededRole",
          "type": "bytes32"
        }
      ],
      "name": "AccessControlUnauthorizedAccount",
      "type": "error"
    },
    {
      "inputs": [],
      "name": "CheckpointUnorderedInsertion",
      "type": "error"
    },
    {
      "inputs": [],
      "name": "ECDSAInvalidSignature",
      "type": "error"
    },
    {
      "inputs": [
        {
          "internalType": "uint256",
          "name": "length",
          "type": "uint256"
        }
      ],
      "name": "ECDSAInvalidSignatureLength",
      "type": "error"
    },
    {
      "inputs": [
        {
          "internalType": "bytes32",
          "name": "s",
          "type": "bytes32"
        }
      ],
      "name": "ECDSAInvalidSignatureS",
      "type": "error"
    },
    {
      "inputs": [
        {
          "internalType": "uint256",
          "name": "increasedSupply",
          "type": "uint256"
        },
        {
          "internalType": "uint256",
          "name": "cap",
          "type": "uint256"
        }
      ],
      "name": "ERC20ExceededSafeSupply",
      "type": "error"
    },
    {
      "inputs": [
        {
          "internalType": "address",
          "name": "spender",
          "type": "address"
        },
        {
          "internalType": "uint256",
          "name": "allowance",
          "type": "uint256"
        },
        {
          "internalType": "uint256",
          "name": "needed",
          "type": "uint256"
        }
      ],
      "name": "ERC20InsufficientAllowance",
      "type": "error"
    },
    {
      "inputs": [
        {
          "internalType": "address",
          "name": "sender",
          "type": "address"
        },
        {
          "internalType": "uint256",
          "name": "balance",
          "type": "uint256"
        },
        {
          "internalType": "uint256",
          "name": "needed",
          "type": "uint256"
        }
      ],
      "name": "ERC20InsufficientBalance",
      "type": "error"
    },
    {
      "inputs": [
        {
          "internalType": "address",
          "name": "approver",
          "type": "address"
        }
      ],
      "name": "ERC20InvalidApprover",
      "type": "error"
    },
    {
      "inputs": [
        {
          "internalType": "address",
          "name": "receiver",
          "type": "address"
        }
      ],
      "name": "ERC20InvalidReceiver",
      "type": "error"
    },
    {
      "inputs": [
        {
          "internalType": "address",
          "name": "sender",
          "type": "address"
        }
      ],
      "name": "ERC20InvalidSender",
      "type": "error"
    },
    {
      "inputs": [
        {
          "internalType": "address",
          "name": "spender",
          "type": "address"
        }
      ],
      "name": "ERC20InvalidSpender",
      "type": "error"
    },
    {
      "inputs": [
        {
          "internalType": "uint256",
          "name": "deadline",
          "type": "uint256"
        }
      ],
      "name": "ERC2612ExpiredSignature",
      "type": "error"
    },
    {
      "inputs": [
        {
          "internalType": "address",
          "name": "signer",
          "type": "address"
        },
        {
          "internalType": "address",
          "name": "owner",
          "type": "address"
        }
      ],
      "name": "ERC2612InvalidSigner",
      "type": "error"
    },
    {
      "inputs": [
        {
          "internalType": "uint256",
          "name": "timepoint",
          "type": "uint256"
        },
        {
          "internalType": "uint48",
          "name": "clock",
          "type": "uint48"
        }
      ],
      "name": "ERC5805FutureLookup",
      "type": "error"
    },
    {
      "inputs": [],
      "name": "ERC6372InconsistentClock",
      "type": "error"
    },
    {
      "inputs": [],
      "name": "EnforcedPause",
      "type": "error"
    },
    {
      "inputs": [],
      "name": "ExpectedPause",
      "type": "error"
    },
    {
      "inputs": [
        {
          "internalType": "address",
          "name": "account",
          "type": "address"
        },
        {
          "internalType": "uint256",
          "name": "currentNonce",
          "type": "uint256"
        }
      ],
      "name": "InvalidAccountNonce",
      "type": "error"
    },
    {
      "inputs": [],
      "name": "InvalidShortString",
      "type": "error"
    },
    {
      "inputs": [
        {
          "internalType": "address",
          "name": "owner",
          "type": "address"
        }
      ],
      "name": "OwnableInvalidOwner",
      "type": "error"
    },
    {
      "inputs": [
        {
          "internalType": "address",
          "name": "account",
          "type": "address"
        }
      ],
      "name": "OwnableUnauthorizedAccount",
      "type": "error"
    },
    {
      "inputs": [
        {
          "internalType": "uint8",
          "name": "bits",
          "type": "uint8"
        },
        {
          "internalType": "uint256",
          "name": "value",
          "type": "uint256"
        }
      ],
      "name": "SafeCastOverflowedUintDowncast",
      "type": "error"
    },
    {
      "inputs": [
        {
          "internalType": "string",
          "name": "str",
          "type": "string"
        }
      ],
      "name": "StringTooLong",
      "type": "error"
    },
    {
      "inputs": [
        {
          "internalType": "uint256",
          "name": "expiry",
          "type": "uint256"
        }
      ],
      "name": "VotesExpiredSignature",
      "type": "error"
    },
    {
      "anonymous": false,
      "inputs": [
        {
          "indexed": true,
          "internalType": "address",
          "name": "owner",
          "type": "address"
        },
        {
          "indexed": true,
          "internalType": "address",
          "name": "spender",
          "type": "address"
        },
        {
          "indexed": false,
          "internalType": "uint256",
          "name": "value",
          "type": "uint256"
        }
      ],
      "name": "Approval",
      "type": "event"
    },
    {
      "anonymous": false,
      "inputs": [
        {
          "indexed": true,
          "internalType": "address",
          "name": "delegator",
          "type": "address"
        },
        {
          "indexed": true,
          "internalType": "address",
          "name": "fromDelegate",
          "type": "address"
        },
        {
          "indexed": true,
          "internalType": "address",
          "name": "toDelegate",
          "type": "address"
        }
      ],
      "name": "DelegateChanged",
      "type": "event"
    },
    {
      "anonymous": false,
      "inputs": [
        {
          "indexed": true,
          "internalType": "address",
          "name": "delegate",
          "type": "address"
        },
        {
          "indexed": false,
          "internalType": "uint256",
          "name": "previousVotes",
          "type": "uint256"
        },
        {
          "indexed": false,
          "internalType": "uint256",
          "name": "newVotes",
          "type": "uint256"
        }
      ],
      "name": "DelegateVotesChanged",
      "type": "event"
    },
    {
      "anonymous": false,
      "inputs": [],
      "name": "EIP712DomainChanged",
      "type": "event"
    },
    {
      "anonymous": false,
      "inputs": [
        {
          "indexed": true,
          "internalType": "address",
          "name": "previousOwner",
          "type": "address"
        },
        {
          "indexed": true,
          "internalType": "address",
          "name": "newOwner",
          "type": "address"
        }
      ],
      "name": "OwnershipTransferred",
      "type": "event"
    },
    {
      "anonymous": false,
      "inputs": [
        {
          "indexed": false,
          "internalType": "address",
          "name": "account",
          "type": "address"
        }
      ],
      "name": "Paused",
      "type": "event"
    },
    {
      "anonymous": false,
      "inputs": [
        {
          "indexed": true,
          "internalType": "bytes32",
          "name": "role",
          "type": "bytes32"
        },
        {
          "indexed": true,
          "internalType": "bytes32",
          "name": "previousAdminRole",
          "type": "bytes32"
        },
        {
          "indexed": true,
          "internalType": "bytes32",
          "name": "newAdminRole",
          "type": "bytes32"
        }
      ],
      "name": "RoleAdminChanged",
      "type": "event"
    },
    {
      "anonymous": false,
      "inputs": [
        {
          "indexed": true,
          "internalType": "bytes32",
          "name": "role",
          "type": "bytes32"
        },
        {
          "indexed": true,
          "internalType": "address",
          "name": "account",
          "type": "address"
        },
        {
          "indexed": true,
          "internalType": "address",
          "name": "sender",
          "type": "address"
        }
      ],
      "name": "RoleGranted",
      "type": "event"
    },
    {
      "anonymous": false,
      "inputs": [
        {
          "indexed": true,
          "internalType": "bytes32",
          "name": "role",
          "type": "bytes32"
        },
        {
          "indexed": true,
          "internalType": "address",
          "name": "account",
          "type": "address"
        },
        {
          "indexed": true,
          "internalType": "address",
          "name": "sender",
          "type": "address"
        }
      ],
      "name": "RoleRevoked",
      "type": "event"
    },
    {
      "anonymous": false,
      "inputs": [
        {
          "indexed": true,
          "internalType": "address",
          "name": "from",
          "type": "address"
        },
        {
          "indexed": true,
          "internalType": "address",
          "name": "to",
          "type": "address"
        },
        {
          "indexed": false,
          "internalType": "uint256",
          "name": "value",
          "type": "uint256"
        }
      ],
      "name": "Transfer",
      "type": "event"
    },
    {
      "anonymous": false,
      "inputs": [
        {
          "indexed": false,
          "internalType": "address",
          "name": "account",
          "type": "address"
        }
      ],
      "name": "Unpaused",
      "type": "event"
    },
    {
      "inputs": [],
      "name": "CLOCK_MODE",
      "outputs": [
        {
          "internalType": "string",
          "name": "",
          "type": "string"
        }
      ],
      "stateMutability": "view",
      "type": "function"
    },
    {
      "inputs": [],
      "name": "DEFAULT_ADMIN_ROLE",
      "outputs": [
        {
          "internalType": "bytes32",
          "name": "",
          "type": "bytes32"
        }
      ],
      "stateMutability": "view",
      "type": "function"
    },
    {
      "inputs": [],
      "name": "DOMAIN_SEPARATOR",
      "outputs": [
        {
          "internalType": "bytes32",
          "name": "",
          "type": "bytes32"
        }
      ],
      "stateMutability": "view",
      "type": "function"
    },
    {
      "inputs": [],
      "name": "MINTER_ROLE",
      "outputs": [
        {
          "internalType": "bytes32",
          "name": "",
          "type": "bytes32"
        }
      ],
      "stateMutability": "view",
      "type": "function"
    },
    {
      "inputs": [],
      "name": "PAUSER_ROLE",
      "outputs": [
        {
          "internalType": "bytes32",
          "name": "",
          "type": "bytes32"
        }
      ],
      "stateMutability": "view",
      "type": "function"
    },
    {
      "inputs": [
        {
          "internalType": "address",
          "name": "owner",
          "type": "address"
        },
        {
          "internalType": "address",
          "name": "spender",
          "type": "address"
        }
      ],
      "name": "allowance",
      "outputs": [
        {
          "internalType": "uint256",
          "name": "",
          "type": "uint256"
        }
      ],
      "stateMutability": "view",
      "type": "function"
    },
    {
      "inputs": [
        {
          "internalType": "address",
          "name": "spender",
          "type": "address"
        },
        {
          "internalType": "uint256",
          "name": "value",
          "type": "uint256"
        }
      ],
      "name": "approve",
      "outputs": [
        {
          "internalType": "bool",
          "name": "",
          "type": "bool"
        }
      ],
      "stateMutability": "nonpayable",
      "type": "function"
    },
    {
      "inputs": [
        {
          "internalType": "address",
          "name": "account",
          "type": "address"
        }
      ],
      "name": "balanceOf",
      "outputs": [
        {
          "internalType": "uint256",
          "name": "",
          "type": "uint256"
        }
      ],
      "stateMutability": "view",
      "type": "function"
    },
    {
      "inputs": [
        {
          "internalType": "address",
          "name": "account",
          "type": "address"
        },
        {
          "internalType": "uint32",
          "name": "pos",
          "type": "uint32"
        }
      ],
      "name": "checkpoints",
      "outputs": [
        {
          "components": [
            {
              "internalType": "uint48",
              "name": "_key",
              "type": "uint48"
            },
            {
              "internalType": "uint208",
              "name": "_value",
              "type": "uint208"
            }
          ],
          "internalType": "struct Checkpoints.Checkpoint208",
          "name": "",
          "type": "tuple"
        }
      ],
      "stateMutability": "view",
      "type": "function"
    },
    {
      "inputs": [],
      "name": "clock",
      "outputs": [
        {
          "internalType": "uint48",
          "name": "",
          "type": "uint48"
        }
      ],
      "stateMutability": "view",
      "type": "function"
    },
    {
      "inputs": [],
      "name": "decimals",
      "outputs": [
        {
          "internalType": "uint8",
          "name": "",
          "type": "uint8"
        }
      ],
      "stateMutability": "view",
      "type": "function"
    },
    {
      "inputs": [
        {
          "internalType": "address",
          "name": "delegatee",
          "type": "address"
        }
      ],
      "name": "delegate",
      "outputs": [],
      "stateMutability": "nonpayable",
      "type": "function"
    },
    {
      "inputs": [
        {
          "internalType": "address",
          "name": "delegatee",
          "type": "address"
        },
        {
          "internalType": "uint256",
          "name": "nonce",
          "type": "uint256"
        },
        {
          "internalType": "uint256",
          "name": "expiry",
          "type": "uint256"
        },
        {
          "internalType": "uint8",
          "name": "v",
          "type": "uint8"
        },
        {
          "internalType": "bytes32",
          "name": "r",
          "type": "bytes32"
        },
        {
          "internalType": "bytes32",
          "name": "s",
          "type": "bytes32"
        }
      ],
      "name": "delegateBySig",
      "outputs": [],
      "stateMutability": "nonpayable",
      "type": "function"
    },
    {
      "inputs": [
        {
          "internalType": "address",
          "name": "account",
          "type": "address"
        }
      ],
      "name": "delegates",
      "outputs": [
        {
          "internalType": "address",
          "name": "",
          "type": "address"
        }
      ],
      "stateMutability": "view",
      "type": "function"
    },
    {
      "inputs": [],
      "name": "eip712Domain",
      "outputs": [
        {
          "internalType": "bytes1",
          "name": "fields",
          "type": "bytes1"
        },
        {
          "internalType": "string",
          "name": "name",
          "type": "string"
        },
        {
          "internalType": "string",
          "name": "version",
          "type": "string"
        },
        {
          "internalType": "uint256",
          "name": "chainId",
          "type": "uint256"
        },
        {
          "internalType": "address",
          "name": "verifyingContract",
          "type": "address"
        },
        {
          "internalType": "bytes32",
          "name": "salt",
          "type": "bytes32"
        },
        {
          "internalType": "uint256[]",
          "name": "extensions",
          "type": "uint256[]"
        }
      ],
      "stateMutability": "view",
      "type": "function"
    },
    {
      "inputs": [
        {
          "internalType": "uint256",
          "name": "timepoint",
          "type": "uint256"
        }
      ],
      "name": "getPastTotalSupply",
      "outputs": [
        {
          "internalType": "uint256",
          "name": "",
          "type": "uint256"
        }
      ],
      "stateMutability": "view",
      "type": "function"
    },
    {
      "inputs": [
        {
          "internalType": "address",
          "name": "account",
          "type": "address"
        },
        {
          "internalType": "uint256",
          "name": "timepoint",
          "type": "uint256"
        }
      ],
      "name": "getPastVotes",
      "outputs": [
        {
          "internalType": "uint256",
          "name": "",
          "type": "uint256"
        }
      ],
      "stateMutability": "view",
      "type": "function"
    },
    {
      "inputs": [
        {
          "internalType": "bytes32",
          "name": "role",
          "type": "bytes32"
        }
      ],
      "name": "getRoleAdmin",
      "outputs": [
        {
          "internalType": "bytes32",
          "name": "",
          "type": "bytes32"
        }
      ],
      "stateMutability": "view",
      "type": "function"
    },
    {
      "inputs": [
        {
          "internalType": "address",
          "name": "account",
          "type": "address"
        }
      ],
      "name": "getVotes",
      "outputs": [
        {
          "internalType": "uint256",
          "name": "",
          "type": "uint256"
        }
      ],
      "stateMutability": "view",
      "type": "function"
    },
    {
      "inputs": [
        {
          "internalType": "bytes32",
          "name": "role",
          "type": "bytes32"
        },
        {
          "internalType": "address",
          "name": "account",
          "type": "address"
        }
      ],
      "name": "grantRole",
      "outputs": [],
      "stateMutability": "nonpayable",
      "type": "function"
    },
    {
      "inputs": [
        {
          "internalType": "bytes32",
          "name": "role",
          "type": "bytes32"
        },
        {
          "internalType": "address",
          "name": "account",
          "type": "address"
        }
      ],
      "name": "hasRole",
      "outputs": [
        {
          "internalType": "bool",
          "name": "",
          "type": "bool"
        }
      ],
      "stateMutability": "view",
      "type": "function"
    },
    {
      "inputs": [
        {
          "internalType": "address",
          "name": "to",
          "type": "address"
        },
        {
          "internalType": "uint256",
          "name": "amount",
          "type": "uint256"
        }
      ],
      "name": "mint",
      "outputs": [],
      "stateMutability": "nonpayable",
      "type": "function"
    },
    {
      "inputs": [],
      "name": "name",
      "outputs": [
        {
          "internalType": "string",
          "name": "",
          "type": "string"
        }
      ],
      "stateMutability": "view",
      "type": "function"
    },
    {
      "inputs": [
        {
          "internalType": "address",
          "name": "owner",
          "type": "address"
        }
      ],
      "name": "nonces",
      "outputs": [
        {
          "internalType": "uint256",
          "name": "",
          "type": "uint256"
        }
      ],
      "stateMutability": "view",
      "type": "function"
    },
    {
      "inputs": [
        {
          "internalType": "address",
          "name": "account",
          "type": "address"
        }
      ],
      "name": "numCheckpoints",
      "outputs": [
        {
          "internalType": "uint32",
          "name": "",
          "type": "uint32"
        }
      ],
      "stateMutability": "view",
      "type": "function"
    },
    {
      "inputs": [],
      "name": "owner",
      "outputs": [
        {
          "internalType": "address",
          "name": "",
          "type": "address"
        }
      ],
      "stateMutability": "view",
      "type": "function"
    },
    {
      "inputs": [],
      "name": "pause",
      "outputs": [],
      "stateMutability": "nonpayable",
      "type": "function"
    },
    {
      "inputs": [],
      "name": "paused",
      "outputs": [
        {
          "internalType": "bool",
          "name": "",
          "type": "bool"
        }
      ],
      "stateMutability": "view",
      "type": "function"
    },
    {
      "inputs": [
        {
          "internalType": "address",
          "name": "owner",
          "type": "address"
        },
        {
          "internalType": "address",
          "name": "spender",
          "type": "address"
        },
        {
          "internalType": "uint256",
          "name": "value",
          "type": "uint256"
        },
        {
          "internalType": "uint256",
          "name": "deadline",
          "type": "uint256"
        },
        {
          "internalType": "uint8",
          "name": "v",
          "type": "uint8"
        },
        {
          "internalType": "bytes32",
          "name": "r",
          "type": "bytes32"
        },
        {
          "internalType": "bytes32",
          "name": "s",
          "type": "bytes32"
        }
      ],
      "name": "permit",
      "outputs": [],
      "stateMutability": "nonpayable",
      "type": "function"
    },
    {
      "inputs": [],
      "name": "renounceOwnership",
      "outputs": [],
      "stateMutability": "nonpayable",
      "type": "function"
    },
    {
      "inputs": [
        {
          "internalType": "bytes32",
          "name": "role",
          "type": "bytes32"
        },
        {
          "internalType": "address",
          "name": "callerConfirmation",
          "type": "address"
        }
      ],
      "name": "renounceRole",
      "outputs": [],
      "stateMutability": "nonpayable",
      "type": "function"
    },
    {
      "inputs": [
        {
          "internalType": "bytes32",
          "name": "role",
          "type": "bytes32"
        },
        {
          "internalType": "address",
          "name": "account",
          "type": "address"
        }
      ],
      "name": "revokeRole",
      "outputs": [],
      "stateMutability": "nonpayable",
      "type": "function"
    },
    {
      "inputs": [
        {
          "internalType": "bytes4",
          "name": "interfaceId",
          "type": "bytes4"
        }
      ],
      "name": "supportsInterface",
      "outputs": [
        {
          "internalType": "bool",
          "name": "",
          "type": "bool"
        }
      ],
      "stateMutability": "view",
      "type": "function"
    },
    {
      "inputs": [],
      "name": "symbol",
      "outputs": [
        {
          "internalType": "string",
          "name": "",
          "type": "string"
        }
      ],
      "stateMutability": "view",
      "type": "function"
    },
    {
      "inputs": [],
      "name": "totalSupply",
      "outputs": [
        {
          "internalType": "uint256",
          "name": "",
          "type": "uint256"
        }
      ],
      "stateMutability": "view",
      "type": "function"
    },
    {
      "inputs": [
        {
          "internalType": "address",
          "name": "to",
          "type": "address"
        },
        {
          "internalType": "uint256",
          "name": "value",
          "type": "uint256"
        }
      ],
      "name": "transfer",
      "outputs": [
        {
          "internalType": "bool",
          "name": "",
          "type": "bool"
        }
      ],
      "stateMutability": "nonpayable",
      "type": "function"
    },
    {
      "inputs": [
        {
          "internalType": "address",
          "name": "from",
          "type": "address"
        },
        {
          "internalType": "address",
          "name": "to",
          "type": "address"
        },
        {
          "internalType": "uint256",
          "name": "value",
          "type": "uint256"
        }
      ],
      "name": "transferFrom",
      "outputs": [
        {
          "internalType": "bool",
          "name": "",
          "type": "bool"
        }
      ],
      "stateMutability": "nonpayable",
      "type": "function"
    },
    {
      "inputs": [
        {
          "internalType": "address",
          "name": "newOwner",
          "type": "address"
        }
      ],
      "name": "transferOwnership",
      "outputs": [],
      "stateMutability": "nonpayable",
      "type": "function"
    },
    {
      "inputs": [],
      "name": "unpause",
      "outputs": [],
      "stateMutability": "nonpayable",
      "type": "function"
    }
  ],
  "bytecode": "0x610160604052348015610010575f5ffd5b50604051615e20380380615e208339818101604052810190610032919061135b565b336040518060400160405280601081526020017f426c6f636b426c6f6f6d20546f6b656e00000000000000000000000000000000815250806040518060400160405280600181526020017f31000000000000000000000000000000000000000000000000000000000000008152506040518060400160405280601081526020017f426c6f636b426c6f6f6d20546f6b656e000000000000000000000000000000008152506040518060400160405280600581526020017f424c4f4f4d000000000000000000000000000000000000000000000000000000815250816003908161011b91906115ba565b50806004908161012b91906115ba565b5050506101426006836102e460201b90919060201c565b610120818152505061015e6007826102e460201b90919060201c565b6101408181525050818051906020012060e08181525050808051906020012061010081815250504660a0818152505061019b61033160201b60201c565b608081815250503073ffffffffffffffffffffffffffffffffffffffff1660c08173ffffffffffffffffffffffffffffffffffffffff16815250505050505f73ffffffffffffffffffffffffffffffffffffffff168173ffffffffffffffffffffffffffffffffffffffff1603610249575f6040517f1e4fbdf700000000000000000000000000000000000000000000000000000000815260040161024091906116c8565b60405180910390fd5b6102588161038b60201b60201c565b5061026b5f5f1b3361044e60201b60201c565b5061029c7f9f2df0fed2c77648de5860a4cc508cd0818c85b8b8a1ab4ceeef8d981c8956a63361044e60201b60201c565b506102cd7f65d7a28e3265b37a6474929f336521b332c1681b933f6cb9f3376673440d862a3361044e60201b60201c565b506102de338261054460201b60201c565b50611b05565b5f602083511015610305576102fe836105c960201b60201c565b905061032b565b826103158361062e60201b60201c565b5f01908161032391906115ba565b5060ff5f1b90505b92915050565b5f7f8b73c3c69bb8fe3d512ecc4cf759cc79239f7b179b0ffacaa9a75d522b39400f60e051610100514630604051602001610370959493929190611708565b60405160208183030381529060405280519060200120905090565b5f600d5f9054906101000a900473ffffffffffffffffffffffffffffffffffffffff16905081600d5f6101000a81548173ffffffffffffffffffffffffffffffffffffffff021916908373ffffffffffffffffffffffffffffffffffffffff1602179055508173ffffffffffffffffffffffffffffffffffffffff168173ffffffffffffffffffffffffffffffffffffffff167f8be0079c531659141344cd1fd0a4f28419497f9722a3daafe3b4186f6b6457e060405160405180910390a35050565b5f61045f838361063760201b60201c565b61053a576001600c5f8581526020019081526020015f205f015f8473ffffffffffffffffffffffffffffffffffffffff1673ffffffffffffffffffffffffffffffffffffffff1681526020019081526020015f205f6101000a81548160ff0219169083151502179055506104d761069b60201b60201c565b73ffffffffffffffffffffffffffffffffffffffff168273ffffffffffffffffffffffffffffffffffffffff16847f2f8788117e7eff1d82e926ec794901d17c78024a50270940304540a733656f0d60405160405180910390a46001905061053e565b5f90505b92915050565b5f73ffffffffffffffffffffffffffffffffffffffff168273ffffffffffffffffffffffffffffffffffffffff16036105b4575f6040517fec442f050000000000000000000000000000000000000000000000000000000081526004016105ab91906116c8565b60405180910390fd5b6105c55f83836106a260201b60201c565b5050565b5f5f829050601f8151111561061557826040517f305a27a900000000000000000000000000000000000000000000000000000000815260040161060c91906117bf565b60405180910390fd5b8051816106219061180c565b5f1c175f1b915050919050565b5f819050919050565b5f600c5f8481526020019081526020015f205f015f8373ffffffffffffffffffffffffffffffffffffffff1673ffffffffffffffffffffffffffffffffffffffff1681526020019081526020015f205f9054906101000a900460ff16905092915050565b5f33905090565b6106b38383836106b860201b60201c565b505050565b6106c983838361077e60201b60201c565b5f73ffffffffffffffffffffffffffffffffffffffff168373ffffffffffffffffffffffffffffffffffffffff1603610768575f61070b6107a260201b60201c565b90505f61071c6107ab60201b60201c565b9050808211156107655781816040517f1cb15d2600000000000000000000000000000000000000000000000000000000815260040161075c929190611872565b60405180910390fd5b50505b6107798383836107ce60201b60201c565b505050565b61078c6108be60201b60201c565b61079d83838361090560201b60201c565b505050565b5f600254905090565b5f79ffffffffffffffffffffffffffffffffffffffffffffffffffff8016905090565b5f73ffffffffffffffffffffffffffffffffffffffff168373ffffffffffffffffffffffffffffffffffffffff160361082d5761082a600b610b1e60201b6112341761081f84610b3360201b60201c565b610ba060201b60201c565b50505b5f73ffffffffffffffffffffffffffffffffffffffff168273ffffffffffffffffffffffffffffffffffffffff160361088c57610889600b610be860201b6112491761087e84610b3360201b60201c565b610ba060201b60201c565b50505b6108b961089e84610bfd60201b60201c565b6108ad84610bfd60201b60201c565b83610c6260201b60201c565b505050565b6108cc610ef860201b60201c565b15610903576040517fd93c066500000000000000000000000000000000000000000000000000000000815260040160405180910390fd5b565b5f73ffffffffffffffffffffffffffffffffffffffff168373ffffffffffffffffffffffffffffffffffffffff1603610955578060025f82825461094991906118c6565b92505081905550610a23565b5f5f5f8573ffffffffffffffffffffffffffffffffffffffff1673ffffffffffffffffffffffffffffffffffffffff1681526020019081526020015f20549050818110156109de578381836040517fe450d38c0000000000000000000000000000000000000000000000000000000081526004016109d5939291906118f9565b60405180910390fd5b8181035f5f8673ffffffffffffffffffffffffffffffffffffffff1673ffffffffffffffffffffffffffffffffffffffff1681526020019081526020015f2081905550505b5f73ffffffffffffffffffffffffffffffffffffffff168273ffffffffffffffffffffffffffffffffffffffff1603610a6a578060025f8282540392505081905550610ab4565b805f5f8473ffffffffffffffffffffffffffffffffffffffff1673ffffffffffffffffffffffffffffffffffffffff1681526020019081526020015f205f82825401925050819055505b8173ffffffffffffffffffffffffffffffffffffffff168373ffffffffffffffffffffffffffffffffffffffff167fddf252ad1be2c89b69c2b068fc378daa952ba7f163c4a11628f55a4df523b3ef83604051610b11919061192e565b60405180910390a3505050565b5f8183610b2b919061196c565b905092915050565b5f79ffffffffffffffffffffffffffffffffffffffffffffffffffff8016821115610b985760d0826040517f6dfcc650000000000000000000000000000000000000000000000000000000008152600401610b8f9291906119fe565b60405180910390fd5b819050919050565b5f5f610bdc610bb3610f0d60201b60201c565b610bcc610bc588610f2160201b60201c565b868860201c565b87610f8960201b9092919060201c565b91509150935093915050565b5f8183610bf59190611a25565b905092915050565b5f60095f8373ffffffffffffffffffffffffffffffffffffffff1673ffffffffffffffffffffffffffffffffffffffff1681526020019081526020015f205f9054906101000a900473ffffffffffffffffffffffffffffffffffffffff169050919050565b8173ffffffffffffffffffffffffffffffffffffffff168373ffffffffffffffffffffffffffffffffffffffff1614158015610c9d57505f81115b15610ef3575f73ffffffffffffffffffffffffffffffffffffffff168373ffffffffffffffffffffffffffffffffffffffff1614610dca575f5f610d3b600a5f8773ffffffffffffffffffffffffffffffffffffffff1673ffffffffffffffffffffffffffffffffffffffff1681526020019081526020015f20610be860201b61124917610d3086610b3360201b60201c565b610ba060201b60201c565b79ffffffffffffffffffffffffffffffffffffffffffffffffffff16915079ffffffffffffffffffffffffffffffffffffffffffffffffffff1691508473ffffffffffffffffffffffffffffffffffffffff167fdec2bacdd2f05b59de34da9b523dff8be42e5e38e818c82fdb0bae774387a7248383604051610dbf929190611872565b60405180910390a250505b5f73ffffffffffffffffffffffffffffffffffffffff168273ffffffffffffffffffffffffffffffffffffffff1614610ef2575f5f610e63600a5f8673ffffffffffffffffffffffffffffffffffffffff1673ffffffffffffffffffffffffffffffffffffffff1681526020019081526020015f20610b1e60201b61123417610e5886610b3360201b60201c565b610ba060201b60201c565b79ffffffffffffffffffffffffffffffffffffffffffffffffffff16915079ffffffffffffffffffffffffffffffffffffffffffffffffffff1691508373ffffffffffffffffffffffffffffffffffffffff167fdec2bacdd2f05b59de34da9b523dff8be42e5e38e818c82fdb0bae774387a7248383604051610ee7929190611872565b60405180910390a250505b5b505050565b5f60055f9054906101000a900460ff16905090565b5f610f1c610faa60201b60201c565b905090565b5f5f825f018054905090505f8114610f7f57610f51835f01600183610f469190611a72565b610fbf60201b60201c565b5f0160069054906101000a900479ffffffffffffffffffffffffffffffffffffffffffffffffffff16610f81565b5f5b915050919050565b5f5f610f9e855f018585610fd160201b60201c565b91509150935093915050565b5f610fba436112cb60201b60201c565b905090565b5f825f528160205f2001905092915050565b5f5f5f858054905090505f8111156111e3575f61100087600184610ff59190611a72565b610fbf60201b60201c565b90505f815f015f9054906101000a900465ffffffffffff1690505f825f0160069054906101000a900479ffffffffffffffffffffffffffffffffffffffffffffffffffff1690508765ffffffffffff168265ffffffffffff161115611091576040517f2520601d00000000000000000000000000000000000000000000000000000000815260040160405180910390fd5b8765ffffffffffff168265ffffffffffff16036110fb5786835f0160066101000a81548179ffffffffffffffffffffffffffffffffffffffffffffffffffff021916908379ffffffffffffffffffffffffffffffffffffffffffffffffffff1602179055506111d4565b8860405180604001604052808a65ffffffffffff1681526020018979ffffffffffffffffffffffffffffffffffffffffffffffffffff16815250908060018154018082558091505060019003905f5260205f20015f909190919091505f820151815f015f6101000a81548165ffffffffffff021916908365ffffffffffff1602179055506020820151815f0160066101000a81548179ffffffffffffffffffffffffffffffffffffffffffffffffffff021916908379ffffffffffffffffffffffffffffffffffffffffffffffffffff16021790555050505b808795509550505050506112c3565b8560405180604001604052808765ffffffffffff1681526020018679ffffffffffffffffffffffffffffffffffffffffffffffffffff16815250908060018154018082558091505060019003905f5260205f20015f909190919091505f820151815f015f6101000a81548165ffffffffffff021916908365ffffffffffff1602179055506020820151815f0160066101000a81548179ffffffffffffffffffffffffffffffffffffffffffffffffffff021916908379ffffffffffffffffffffffffffffffffffffffffffffffffffff16021790555050505f8492509250505b935093915050565b5f65ffffffffffff801682111561131c576030826040517f6dfcc650000000000000000000000000000000000000000000000000000000008152600401611313929190611ade565b60405180910390fd5b819050919050565b5f5ffd5b5f819050919050565b61133a81611328565b8114611344575f5ffd5b50565b5f8151905061135581611331565b92915050565b5f602082840312156113705761136f611324565b5b5f61137d84828501611347565b91505092915050565b5f81519050919050565b7f4e487b71000000000000000000000000000000000000000000000000000000005f52604160045260245ffd5b7f4e487b71000000000000000000000000000000000000000000000000000000005f52602260045260245ffd5b5f600282049050600182168061140157607f821691505b602082108103611414576114136113bd565b5b50919050565b5f819050815f5260205f209050919050565b5f6020601f8301049050919050565b5f82821b905092915050565b5f600883026114767fffffffffffffffffffffffffffffffffffffffffffffffffffffffffffffffff8261143b565b611480868361143b565b95508019841693508086168417925050509392505050565b5f819050919050565b5f6114bb6114b66114b184611328565b611498565b611328565b9050919050565b5f819050919050565b6114d4836114a1565b6114e86114e0826114c2565b848454611447565b825550505050565b5f5f905090565b6114ff6114f0565b61150a8184846114cb565b505050565b5b8181101561152d576115225f826114f7565b600181019050611510565b5050565b601f821115611572576115438161141a565b61154c8461142c565b8101602085101561155b578190505b61156f6115678561142c565b83018261150f565b50505b505050565b5f82821c905092915050565b5f6115925f1984600802611577565b1980831691505092915050565b5f6115aa8383611583565b9150826002028217905092915050565b6115c382611386565b67ffffffffffffffff8111156115dc576115db611390565b5b6115e682546113ea565b6115f1828285611531565b5f60209050601f831160018114611622575f8415611610578287015190505b61161a858261159f565b865550611681565b601f1984166116308661141a565b5f5b8281101561165757848901518255600182019150602085019450602081019050611632565b868310156116745784890151611670601f891682611583565b8355505b6001600288020188555050505b505050505050565b5f73ffffffffffffffffffffffffffffffffffffffff82169050919050565b5f6116b282611689565b9050919050565b6116c2816116a8565b82525050565b5f6020820190506116db5f8301846116b9565b92915050565b5f819050919050565b6116f3816116e1565b82525050565b61170281611328565b82525050565b5f60a08201905061171b5f8301886116ea565b61172860208301876116ea565b61173560408301866116ea565b61174260608301856116f9565b61174f60808301846116b9565b9695505050505050565b5f82825260208201905092915050565b8281835e5f83830152505050565b5f601f19601f8301169050919050565b5f61179182611386565b61179b8185611759565b93506117ab818560208601611769565b6117b481611777565b840191505092915050565b5f6020820190508181035f8301526117d78184611787565b905092915050565b5f81519050919050565b5f819050602082019050919050565b5f61180382516116e1565b80915050919050565b5f611816826117df565b82611820846117e9565b905061182b816117f8565b9250602082101561186b576118667fffffffffffffffffffffffffffffffffffffffffffffffffffffffffffffffff8360200360080261143b565b831692505b5050919050565b5f6040820190506118855f8301856116f9565b61189260208301846116f9565b9392505050565b7f4e487b71000000000000000000000000000000000000000000000000000000005f52601160045260245ffd5b5f6118d082611328565b91506118db83611328565b92508282019050808211156118f3576118f2611899565b5b92915050565b5f60608201905061190c5f8301866116b9565b61191960208301856116f9565b61192660408301846116f9565b949350505050565b5f6020820190506119415f8301846116f9565b92915050565b5f79ffffffffffffffffffffffffffffffffffffffffffffffffffff82169050919050565b5f61197682611947565b915061198183611947565b9250828201905079ffffffffffffffffffffffffffffffffffffffffffffffffffff8111156119b3576119b2611899565b5b92915050565b5f819050919050565b5f60ff82169050919050565b5f6119e86119e36119de846119b9565b611498565b6119c2565b9050919050565b6119f8816119ce565b82525050565b5f604082019050611a115f8301856119ef565b611a1e60208301846116f9565b9392505050565b5f611a2f82611947565b9150611a3a83611947565b9250828203905079ffffffffffffffffffffffffffffffffffffffffffffffffffff811115611a6c57611a6b611899565b5b92915050565b5f611a7c82611328565b9150611a8783611328565b9250828203905081811115611a9f57611a9e611899565b5b92915050565b5f819050919050565b5f611ac8611ac3611abe84611aa5565b611498565b6119c2565b9050919050565b611ad881611aae565b82525050565b5f604082019050611af15f830185611acf565b611afe60208301846116f9565b9392505050565b60805160a05160c05160e0516101005161012051610140516142ca611b565f395f611cc101525f611c8601525f61218301525f61216201525f61157401525f6115ca01525f6115f301526142ca5ff3fe608060405234801561000f575f5ffd5b506004361061023b575f3560e01c8063715018a611610139578063a217fddf116100b6578063d547741f1161007a578063d547741f146106e3578063dd62ed3e146106ff578063e63ab1e91461072f578063f1127ed81461074d578063f2fde38b1461077d5761023b565b8063a217fddf1461063f578063a9059cbb1461065d578063c3cda5201461068d578063d505accf146106a9578063d5391393146106c55761023b565b80638e539e8c116100fd5780638e539e8c1461057357806391d14854146105a357806391ddadf4146105d357806395d89b41146105f15780639ab24eb01461060f5761023b565b8063715018a6146104ed5780637ecebe00146104f75780638456cb591461052757806384b0196e146105315780638da5cb5b146105555761023b565b806336568abe116101c7578063587cde1e1161018b578063587cde1e146104235780635c19a95c146104535780635c975abb1461046f5780636fcfff451461048d57806370a08231146104bd5761023b565b806336568abe146103935780633a46b1a8146103af5780633f4ba83a146103df57806340c10f19146103e95780634bf5d7e9146104055761023b565b806323b872dd1161020e57806323b872dd146102db578063248a9ca31461030b5780632f2ff15d1461033b578063313ce567146103575780633644e515146103755761023b565b806301ffc9a71461023f57806306fdde031461026f578063095ea7b31461028d57806318160ddd146102bd575b5f5ffd5b610259600480360381019061025491906134f6565b610799565b604051610266919061353b565b60405180910390f35b6102776107aa565b60405161028491906135c4565b60405180910390f35b6102a760048036038101906102a29190613671565b61083a565b6040516102b4919061353b565b60405180910390f35b6102c561085c565b6040516102d291906136be565b60405180910390f35b6102f560048036038101906102f091906136d7565b610865565b604051610302919061353b565b60405180910390f35b6103256004803603810190610320919061375a565b610893565b6040516103329190613794565b60405180910390f35b610355600480360381019061035091906137ad565b6108b0565b005b61035f6108d2565b60405161036c9190613806565b60405180910390f35b61037d6108da565b60405161038a9190613794565b60405180910390f35b6103ad60048036038101906103a891906137ad565b6108e8565b005b6103c960048036038101906103c49190613671565b610963565b6040516103d691906136be565b60405180910390f35b6103e76109df565b005b61040360048036038101906103fe9190613671565b610a14565b005b61040d610a2a565b60405161041a91906135c4565b60405180910390f35b61043d6004803603810190610438919061381f565b610abe565b60405161044a9190613859565b60405180910390f35b61046d6004803603810190610468919061381f565b610b23565b005b610477610b3c565b604051610484919061353b565b60405180910390f35b6104a760048036038101906104a2919061381f565b610b51565b6040516104b49190613890565b60405180910390f35b6104d760048036038101906104d2919061381f565b610b62565b6040516104e491906136be565b60405180910390f35b6104f5610ba7565b005b610511600480360381019061050c919061381f565b610bba565b60405161051e91906136be565b60405180910390f35b61052f610bcb565b005b610539610c00565b60405161054c979695949392919061399a565b60405180910390f35b61055d610ca5565b60405161056a9190613859565b60405180910390f35b61058d60048036038101906105889190613a1c565b610ccd565b60405161059a91906136be565b60405180910390f35b6105bd60048036038101906105b891906137ad565b610d0d565b6040516105ca919061353b565b60405180910390f35b6105db610d71565b6040516105e89190613a67565b60405180910390f35b6105f9610d7f565b60405161060691906135c4565b60405180910390f35b6106296004803603810190610624919061381f565b610e0f565b60405161063691906136be565b60405180910390f35b610647610e78565b6040516106549190613794565b60405180910390f35b61067760048036038101906106729190613671565b610e7e565b604051610684919061353b565b60405180910390f35b6106a760048036038101906106a29190613aaa565b610ea0565b005b6106c360048036038101906106be9190613b33565b610f65565b005b6106cd6110aa565b6040516106da9190613794565b60405180910390f35b6106fd60048036038101906106f891906137ad565b6110ce565b005b61071960048036038101906107149190613bd0565b6110f0565b60405161072691906136be565b60405180910390f35b610737611172565b6040516107449190613794565b60405180910390f35b61076760048036038101906107629190613c38565b611196565b6040516107749190613ce6565b60405180910390f35b6107976004803603810190610792919061381f565b6111b0565b005b5f6107a38261125e565b9050919050565b6060600380546107b990613d2c565b80601f01602080910402602001604051908101604052809291908181526020018280546107e590613d2c565b80156108305780601f1061080757610100808354040283529160200191610830565b820191905f5260205f20905b81548152906001019060200180831161081357829003601f168201915b5050505050905090565b5f5f6108446112d7565b90506108518185856112de565b600191505092915050565b5f600254905090565b5f5f61086f6112d7565b905061087c8582856112f0565b610887858585611383565b60019150509392505050565b5f600c5f8381526020019081526020015f20600101549050919050565b6108b982610893565b6108c281611473565b6108cc8383611487565b50505050565b5f6012905090565b5f6108e3611571565b905090565b6108f06112d7565b73ffffffffffffffffffffffffffffffffffffffff168173ffffffffffffffffffffffffffffffffffffffff1614610954576040517f6697b23200000000000000000000000000000000000000000000000000000000815260040160405180910390fd5b61095e8282611627565b505050565b5f6109bb61097083611711565b600a5f8673ffffffffffffffffffffffffffffffffffffffff1673ffffffffffffffffffffffffffffffffffffffff1681526020019081526020015f2061177c90919063ffffffff16565b79ffffffffffffffffffffffffffffffffffffffffffffffffffff16905092915050565b7f65d7a28e3265b37a6474929f336521b332c1681b933f6cb9f3376673440d862a610a0981611473565b610a1161186c565b50565b610a1c6118cd565b610a268282611954565b5050565b6060610a346119d3565b65ffffffffffff16610a44610d71565b65ffffffffffff1614610a83576040517f6ff0714000000000000000000000000000000000000000000000000000000000815260040160405180910390fd5b6040518060400160405280601d81526020017f6d6f64653d626c6f636b6e756d6265722666726f6d3d64656661756c74000000815250905090565b5f60095f8373ffffffffffffffffffffffffffffffffffffffff1673ffffffffffffffffffffffffffffffffffffffff1681526020019081526020015f205f9054906101000a900473ffffffffffffffffffffffffffffffffffffffff169050919050565b5f610b2c6112d7565b9050610b3881836119e2565b5050565b5f60055f9054906101000a900460ff16905090565b5f610b5b82611af2565b9050919050565b5f5f5f8373ffffffffffffffffffffffffffffffffffffffff1673ffffffffffffffffffffffffffffffffffffffff1681526020019081526020015f20549050919050565b610baf6118cd565b610bb85f611b47565b565b5f610bc482611c0a565b9050919050565b7f65d7a28e3265b37a6474929f336521b332c1681b933f6cb9f3376673440d862a610bf581611473565b610bfd611c1b565b50565b5f6060805f5f5f6060610c11611c7d565b610c19611cb8565b46305f5f1b5f67ffffffffffffffff811115610c3857610c37613d5c565b5b604051908082528060200260200182016040528015610c665781602001602082028036833780820191505090505b507f0f00000000000000000000000000000000000000000000000000000000000000959493929190965096509650965096509650965090919293949596565b5f600d5f9054906101000a900473ffffffffffffffffffffffffffffffffffffffff16905090565b5f610cea610cda83611711565b600b61177c90919063ffffffff16565b79ffffffffffffffffffffffffffffffffffffffffffffffffffff169050919050565b5f600c5f8481526020019081526020015f205f015f8373ffffffffffffffffffffffffffffffffffffffff1673ffffffffffffffffffffffffffffffffffffffff1681526020019081526020015f205f9054906101000a900460ff16905092915050565b5f610d7a6119d3565b905090565b606060048054610d8e90613d2c565b80601f0160208091040260200160405190810160405280929190818152602001828054610dba90613d2c565b8015610e055780601f10610ddc57610100808354040283529160200191610e05565b820191905f5260205f20905b815481529060010190602001808311610de857829003601f168201915b5050505050905090565b5f610e55600a5f8473ffffffffffffffffffffffffffffffffffffffff1673ffffffffffffffffffffffffffffffffffffffff1681526020019081526020015f20611cf3565b79ffffffffffffffffffffffffffffffffffffffffffffffffffff169050919050565b5f5f1b81565b5f5f610e886112d7565b9050610e95818585611383565b600191505092915050565b83421115610ee557836040517f4683af0e000000000000000000000000000000000000000000000000000000008152600401610edc91906136be565b60405180910390fd5b5f610f46610f3e7fe48329057bfd03d55e49b547132e39cffd9c1820ad7b9d4c5307691425d15adf898989604051602001610f239493929190613d89565b60405160208183030381529060405280519060200120611d55565b858585611d6e565b9050610f528187611d9c565b610f5c81886119e2565b50505050505050565b83421115610faa57836040517f62791302000000000000000000000000000000000000000000000000000000008152600401610fa191906136be565b60405180910390fd5b5f7f6e71edae12b1b97f4d1f60370fef10105fa2faae0126114a169c64845d6126c9888888610fd88c611df3565b89604051602001610fee96959493929190613dcc565b6040516020818303038152906040528051906020012090505f61101082611d55565b90505f61101f82878787611d6e565b90508973ffffffffffffffffffffffffffffffffffffffff168173ffffffffffffffffffffffffffffffffffffffff161461109357808a6040517f4b800e4600000000000000000000000000000000000000000000000000000000815260040161108a929190613e2b565b60405180910390fd5b61109e8a8a8a6112de565b50505050505050505050565b7f9f2df0fed2c77648de5860a4cc508cd0818c85b8b8a1ab4ceeef8d981c8956a681565b6110d782610893565b6110e081611473565b6110ea8383611627565b50505050565b5f60015f8473ffffffffffffffffffffffffffffffffffffffff1673ffffffffffffffffffffffffffffffffffffffff1681526020019081526020015f205f8373ffffffffffffffffffffffffffffffffffffffff1673ffffffffffffffffffffffffffffffffffffffff1681526020019081526020015f2054905092915050565b7f65d7a28e3265b37a6474929f336521b332c1681b933f6cb9f3376673440d862a81565b61119e613461565b6111a88383611e46565b905092915050565b6111b86118cd565b5f73ffffffffffffffffffffffffffffffffffffffff168173ffffffffffffffffffffffffffffffffffffffff1603611228575f6040517f1e4fbdf700000000000000000000000000000000000000000000000000000000815260040161121f9190613859565b60405180910390fd5b61123181611b47565b50565b5f81836112419190613e7f565b905092915050565b5f81836112569190613ecc565b905092915050565b5f7f7965db0b000000000000000000000000000000000000000000000000000000007bffffffffffffffffffffffffffffffffffffffffffffffffffffffff1916827bffffffffffffffffffffffffffffffffffffffffffffffffffffffff191614806112d057506112cf82611ea5565b5b9050919050565b5f33905090565b6112eb8383836001611f0e565b505050565b5f6112fb84846110f0565b90507fffffffffffffffffffffffffffffffffffffffffffffffffffffffffffffffff81101561137d578181101561136e578281836040517ffb8f41b200000000000000000000000000000000000000000000000000000000815260040161136593929190613f19565b60405180910390fd5b61137c84848484035f611f0e565b5b50505050565b5f73ffffffffffffffffffffffffffffffffffffffff168373ffffffffffffffffffffffffffffffffffffffff16036113f3575f6040517f96c6fd1e0000000000000000000000000000000000000000000000000000000081526004016113ea9190613859565b60405180910390fd5b5f73ffffffffffffffffffffffffffffffffffffffff168273ffffffffffffffffffffffffffffffffffffffff1603611463575f6040517fec442f0500000000000000000000000000000000000000000000000000000000815260040161145a9190613859565b60405180910390fd5b61146e8383836120dd565b505050565b6114848161147f6112d7565b6120ed565b50565b5f6114928383610d0d565b611567576001600c5f8581526020019081526020015f205f015f8473ffffffffffffffffffffffffffffffffffffffff1673ffffffffffffffffffffffffffffffffffffffff1681526020019081526020015f205f6101000a81548160ff0219169083151502179055506115046112d7565b73ffffffffffffffffffffffffffffffffffffffff168273ffffffffffffffffffffffffffffffffffffffff16847f2f8788117e7eff1d82e926ec794901d17c78024a50270940304540a733656f0d60405160405180910390a46001905061156b565b5f90505b92915050565b5f7f000000000000000000000000000000000000000000000000000000000000000073ffffffffffffffffffffffffffffffffffffffff163073ffffffffffffffffffffffffffffffffffffffff161480156115ec57507f000000000000000000000000000000000000000000000000000000000000000046145b15611619577f00000000000000000000000000000000000000000000000000000000000000009050611624565b61162161213e565b90505b90565b5f6116328383610d0d565b15611707575f600c5f8581526020019081526020015f205f015f8473ffffffffffffffffffffffffffffffffffffffff1673ffffffffffffffffffffffffffffffffffffffff1681526020019081526020015f205f6101000a81548160ff0219169083151502179055506116a46112d7565b73ffffffffffffffffffffffffffffffffffffffff168273ffffffffffffffffffffffffffffffffffffffff16847ff6391f5c32d9c69d2a47ea670b442974b53935d1edc7fd64eb21e047a839171b60405160405180910390a46001905061170b565b5f90505b92915050565b5f5f61171b610d71565b90508065ffffffffffff16831061176b5782816040517fecd3f81e000000000000000000000000000000000000000000000000000000008152600401611762929190613f4e565b60405180910390fd5b611774836121d3565b915050919050565b5f5f835f018054905090505f5f90505f8290506005831115611800575f6117a28461222c565b846117ad9190613f75565b90506117bb875f01826123c6565b5f015f9054906101000a900465ffffffffffff1665ffffffffffff168665ffffffffffff1610156117ee578091506117fe565b6001816117fb9190613fa8565b92505b505b5f61180f875f018785856123d8565b90505f811461185e57611830875f0160018361182b9190613f75565b6123c6565b5f0160069054906101000a900479ffffffffffffffffffffffffffffffffffffffffffffffffffff16611860565b5f5b94505050505092915050565b61187461244d565b5f60055f6101000a81548160ff0219169083151502179055507f5db9ee0a495bf2e6ff9c91a7834c1ba4fdd244a5e8aa4e537bd38aeae4b073aa6118b66112d7565b6040516118c39190613859565b60405180910390a1565b6118d56112d7565b73ffffffffffffffffffffffffffffffffffffffff166118f3610ca5565b73ffffffffffffffffffffffffffffffffffffffff1614611952576119166112d7565b6040517f118cdaa70000000000000000000000000000000000000000000000000000000081526004016119499190613859565b60405180910390fd5b565b5f73ffffffffffffffffffffffffffffffffffffffff168273ffffffffffffffffffffffffffffffffffffffff16036119c4575f6040517fec442f050000000000000000000000000000000000000000000000000000000081526004016119bb9190613859565b60405180910390fd5b6119cf5f83836120dd565b5050565b5f6119dd436121d3565b905090565b5f6119ec83610abe565b90508160095f8573ffffffffffffffffffffffffffffffffffffffff1673ffffffffffffffffffffffffffffffffffffffff1681526020019081526020015f205f6101000a81548173ffffffffffffffffffffffffffffffffffffffff021916908373ffffffffffffffffffffffffffffffffffffffff1602179055508173ffffffffffffffffffffffffffffffffffffffff168173ffffffffffffffffffffffffffffffffffffffff168473ffffffffffffffffffffffffffffffffffffffff167f3134e8a2e6d97e929a7e54011ea5485d7d196dd5f0ba4d4ef95803e8e3fc257f60405160405180910390a4611aed8183611ae88661248d565b61249e565b505050565b5f611b40611b3b600a5f8573ffffffffffffffffffffffffffffffffffffffff1673ffffffffffffffffffffffffffffffffffffffff1681526020019081526020015f2061270e565b61271d565b9050919050565b5f600d5f9054906101000a900473ffffffffffffffffffffffffffffffffffffffff16905081600d5f6101000a81548173ffffffffffffffffffffffffffffffffffffffff021916908373ffffffffffffffffffffffffffffffffffffffff1602179055508173ffffffffffffffffffffffffffffffffffffffff168173ffffffffffffffffffffffffffffffffffffffff167f8be0079c531659141344cd1fd0a4f28419497f9722a3daafe3b4186f6b6457e060405160405180910390a35050565b5f611c1482612774565b9050919050565b611c236127ba565b600160055f6101000a81548160ff0219169083151502179055507f62e78cea01bee320cd4e420270b5ea74000d11b0c9f74754ebdbfc544b05a258611c666112d7565b604051611c739190613859565b60405180910390a1565b6060611cb360067f00000000000000000000000000000000000000000000000000000000000000006127fb90919063ffffffff16565b905090565b6060611cee60077f00000000000000000000000000000000000000000000000000000000000000006127fb90919063ffffffff16565b905090565b5f5f825f018054905090505f8114611d4b57611d1d835f01600183611d189190613f75565b6123c6565b5f0160069054906101000a900479ffffffffffffffffffffffffffffffffffffffffffffffffffff16611d4d565b5f5b915050919050565b5f611d67611d61611571565b836128a8565b9050919050565b5f5f5f5f611d7e888888886128e8565b925092509250611d8e82826129cf565b829350505050949350505050565b5f611da683611df3565b9050808214611dee5782816040517f752d88c0000000000000000000000000000000000000000000000000000000008152600401611de5929190613fdb565b60405180910390fd5b505050565b5f60085f8373ffffffffffffffffffffffffffffffffffffffff1673ffffffffffffffffffffffffffffffffffffffff1681526020019081526020015f205f815480929190600101919050559050919050565b611e4e613461565b611e9d82600a5f8673ffffffffffffffffffffffffffffffffffffffff1673ffffffffffffffffffffffffffffffffffffffff1681526020019081526020015f20612b3190919063ffffffff16565b905092915050565b5f7f01ffc9a7000000000000000000000000000000000000000000000000000000007bffffffffffffffffffffffffffffffffffffffffffffffffffffffff1916827bffffffffffffffffffffffffffffffffffffffffffffffffffffffff1916149050919050565b5f73ffffffffffffffffffffffffffffffffffffffff168473ffffffffffffffffffffffffffffffffffffffff1603611f7e575f6040517fe602df05000000000000000000000000000000000000000000000000000000008152600401611f759190613859565b60405180910390fd5b5f73ffffffffffffffffffffffffffffffffffffffff168373ffffffffffffffffffffffffffffffffffffffff1603611fee575f6040517f94280d62000000000000000000000000000000000000000000000000000000008152600401611fe59190613859565b60405180910390fd5b8160015f8673ffffffffffffffffffffffffffffffffffffffff1673ffffffffffffffffffffffffffffffffffffffff1681526020019081526020015f205f8573ffffffffffffffffffffffffffffffffffffffff1673ffffffffffffffffffffffffffffffffffffffff1681526020019081526020015f208190555080156120d7578273ffffffffffffffffffffffffffffffffffffffff168473ffffffffffffffffffffffffffffffffffffffff167f8c5be1e5ebec7d5bd14f71427d1e84f3dd0314c0f7b2291e5b200ac8c7c3b925846040516120ce91906136be565b60405180910390a35b50505050565b6120e8838383612c00565b505050565b6120f78282610d0d565b61213a5780826040517fe2517d3f000000000000000000000000000000000000000000000000000000008152600401612131929190614002565b60405180910390fd5b5050565b5f7f8b73c3c69bb8fe3d512ecc4cf759cc79239f7b179b0ffacaa9a75d522b39400f7f00000000000000000000000000000000000000000000000000000000000000007f000000000000000000000000000000000000000000000000000000000000000046306040516020016121b8959493929190614029565b60405160208183030381529060405280519060200120905090565b5f65ffffffffffff8016821115612224576030826040517f6dfcc65000000000000000000000000000000000000000000000000000000000815260040161221b9291906140bc565b60405180910390fd5b819050919050565b5f6001821161223d578190506123c1565b5f8290505f60019050700100000000000000000000000000000000821061226d57608082901c9150604081901b90505b68010000000000000000821061228c57604082901c9150602081901b90505b64010000000082106122a757602082901c9150601081901b90505b6201000082106122c057601082901c9150600881901b90505b61010082106122d857600882901c9150600481901b90505b601082106122ef57600482901c9150600281901b90505b600482106122ff57600181901b90505b600181600302901c9050600181858161231b5761231a6140e3565b5b048201901c90506001818581612334576123336140e3565b5b048201901c9050600181858161234d5761234c6140e3565b5b048201901c90506001818581612366576123656140e3565b5b048201901c9050600181858161237f5761237e6140e3565b5b048201901c90506001818581612398576123976140e3565b5b048201901c90506123ba8185816123b2576123b16140e3565b5b048211612cae565b8103925050505b919050565b5f825f528160205f2001905092915050565b5f5b81831015612442575f6123ed8484612cb9565b90508465ffffffffffff1661240287836123c6565b5f015f9054906101000a900465ffffffffffff1665ffffffffffff16111561242c5780925061243c565b6001816124399190613fa8565b93505b506123da565b819050949350505050565b612455610b3c565b61248b576040517f8dfc202b00000000000000000000000000000000000000000000000000000000815260040160405180910390fd5b565b5f61249782610b62565b9050919050565b8173ffffffffffffffffffffffffffffffffffffffff168373ffffffffffffffffffffffffffffffffffffffff16141580156124d957505f81115b15612709575f73ffffffffffffffffffffffffffffffffffffffff168373ffffffffffffffffffffffffffffffffffffffff16146125f3575f5f612564600a5f8773ffffffffffffffffffffffffffffffffffffffff1673ffffffffffffffffffffffffffffffffffffffff1681526020019081526020015f2061124961255f86612cda565b612d47565b79ffffffffffffffffffffffffffffffffffffffffffffffffffff16915079ffffffffffffffffffffffffffffffffffffffffffffffffffff1691508473ffffffffffffffffffffffffffffffffffffffff167fdec2bacdd2f05b59de34da9b523dff8be42e5e38e818c82fdb0bae774387a72483836040516125e8929190614110565b60405180910390a250505b5f73ffffffffffffffffffffffffffffffffffffffff168273ffffffffffffffffffffffffffffffffffffffff1614612708575f5f612679600a5f8673ffffffffffffffffffffffffffffffffffffffff1673ffffffffffffffffffffffffffffffffffffffff1681526020019081526020015f2061123461267486612cda565b612d47565b79ffffffffffffffffffffffffffffffffffffffffffffffffffff16915079ffffffffffffffffffffffffffffffffffffffffffffffffffff1691508373ffffffffffffffffffffffffffffffffffffffff167fdec2bacdd2f05b59de34da9b523dff8be42e5e38e818c82fdb0bae774387a72483836040516126fd929190614110565b60405180910390a250505b5b505050565b5f815f01805490509050919050565b5f63ffffffff801682111561276c576020826040517f6dfcc650000000000000000000000000000000000000000000000000000000008152600401612763929190614170565b60405180910390fd5b819050919050565b5f60085f8373ffffffffffffffffffffffffffffffffffffffff1673ffffffffffffffffffffffffffffffffffffffff1681526020019081526020015f20549050919050565b6127c2610b3c565b156127f9576040517fd93c066500000000000000000000000000000000000000000000000000000000815260040160405180910390fd5b565b606060ff5f1b83146128175761281083612d86565b90506128a2565b81805461282390613d2c565b80601f016020809104026020016040519081016040528092919081815260200182805461284f90613d2c565b801561289a5780601f106128715761010080835404028352916020019161289a565b820191905f5260205f20905b81548152906001019060200180831161287d57829003601f168201915b505050505090505b92915050565b5f6040517f190100000000000000000000000000000000000000000000000000000000000081528360028201528260228201526042812091505092915050565b5f5f5f7f7fffffffffffffffffffffffffffffff5d576e7357a4501ddfe92f46681b20a0845f1c1115612924575f6003859250925092506129c5565b5f6001888888886040515f81526020016040526040516129479493929190614197565b6020604051602081039080840390855afa158015612967573d5f5f3e3d5ffd5b5050506020604051035190505f73ffffffffffffffffffffffffffffffffffffffff168173ffffffffffffffffffffffffffffffffffffffff16036129b8575f60015f5f1b935093509350506129c5565b805f5f5f1b935093509350505b9450945094915050565b5f60038111156129e2576129e16141da565b5b8260038111156129f5576129f46141da565b5b0315612b2d5760016003811115612a0f57612a0e6141da565b5b826003811115612a2257612a216141da565b5b03612a59576040517ff645eedf00000000000000000000000000000000000000000000000000000000815260040160405180910390fd5b60026003811115612a6d57612a6c6141da565b5b826003811115612a8057612a7f6141da565b5b03612ac457805f1c6040517ffce698f7000000000000000000000000000000000000000000000000000000008152600401612abb91906136be565b60405180910390fd5b600380811115612ad757612ad66141da565b5b826003811115612aea57612ae96141da565b5b03612b2c57806040517fd78bce0c000000000000000000000000000000000000000000000000000000008152600401612b239190613794565b60405180910390fd5b5b5050565b612b39613461565b825f018263ffffffff1681548110612b5457612b53614207565b5b905f5260205f20016040518060400160405290815f82015f9054906101000a900465ffffffffffff1665ffffffffffff1665ffffffffffff1681526020015f820160069054906101000a900479ffffffffffffffffffffffffffffffffffffffffffffffffffff1679ffffffffffffffffffffffffffffffffffffffffffffffffffff1679ffffffffffffffffffffffffffffffffffffffffffffffffffff1681525050905092915050565b612c0b838383612df8565b5f73ffffffffffffffffffffffffffffffffffffffff168373ffffffffffffffffffffffffffffffffffffffff1603612c9e575f612c4761085c565b90505f612c52612e10565b905080821115612c9b5781816040517f1cb15d26000000000000000000000000000000000000000000000000000000008152600401612c92929190614110565b60405180910390fd5b50505b612ca9838383612e33565b505050565b5f8115159050919050565b5f600282841881612ccd57612ccc6140e3565b5b0482841601905092915050565b5f79ffffffffffffffffffffffffffffffffffffffffffffffffffff8016821115612d3f5760d0826040517f6dfcc650000000000000000000000000000000000000000000000000000000008152600401612d3692919061426d565b60405180910390fd5b819050919050565b5f5f612d7a612d54610d71565b612d6a612d6088611cf3565b868863ffffffff16565b87612eeb9092919063ffffffff16565b91509150935093915050565b60605f612d9283612f06565b90505f602067ffffffffffffffff811115612db057612daf613d5c565b5b6040519080825280601f01601f191660200182016040528015612de25781602001600182028036833780820191505090505b5090508181528360208201528092505050919050565b612e006127ba565b612e0b838383612f54565b505050565b5f79ffffffffffffffffffffffffffffffffffffffffffffffffffff8016905090565b5f73ffffffffffffffffffffffffffffffffffffffff168373ffffffffffffffffffffffffffffffffffffffff1603612e7f57612e7c600b611234612e7784612cda565b612d47565b50505b5f73ffffffffffffffffffffffffffffffffffffffff168273ffffffffffffffffffffffffffffffffffffffff1603612ecb57612ec8600b611249612ec384612cda565b612d47565b50505b612ee6612ed784610abe565b612ee084610abe565b8361249e565b505050565b5f5f612efa855f01858561316d565b91509150935093915050565b5f5f60ff835f1c169050601f811115612f4b576040517fb3512b0c00000000000000000000000000000000000000000000000000000000815260040160405180910390fd5b80915050919050565b5f73ffffffffffffffffffffffffffffffffffffffff168373ffffffffffffffffffffffffffffffffffffffff1603612fa4578060025f828254612f989190613fa8565b92505081905550613072565b5f5f5f8573ffffffffffffffffffffffffffffffffffffffff1673ffffffffffffffffffffffffffffffffffffffff1681526020019081526020015f205490508181101561302d578381836040517fe450d38c00000000000000000000000000000000000000000000000000000000815260040161302493929190613f19565b60405180910390fd5b8181035f5f8673ffffffffffffffffffffffffffffffffffffffff1673ffffffffffffffffffffffffffffffffffffffff1681526020019081526020015f2081905550505b5f73ffffffffffffffffffffffffffffffffffffffff168273ffffffffffffffffffffffffffffffffffffffff16036130b9578060025f8282540392505081905550613103565b805f5f8473ffffffffffffffffffffffffffffffffffffffff1673ffffffffffffffffffffffffffffffffffffffff1681526020019081526020015f205f82825401925050819055505b8173ffffffffffffffffffffffffffffffffffffffff168373ffffffffffffffffffffffffffffffffffffffff167fddf252ad1be2c89b69c2b068fc378daa952ba7f163c4a11628f55a4df523b3ef8360405161316091906136be565b60405180910390a3505050565b5f5f5f858054905090505f811115613379575f613196876001846131919190613f75565b6123c6565b90505f815f015f9054906101000a900465ffffffffffff1690505f825f0160069054906101000a900479ffffffffffffffffffffffffffffffffffffffffffffffffffff1690508765ffffffffffff168265ffffffffffff161115613227576040517f2520601d00000000000000000000000000000000000000000000000000000000815260040160405180910390fd5b8765ffffffffffff168265ffffffffffff16036132915786835f0160066101000a81548179ffffffffffffffffffffffffffffffffffffffffffffffffffff021916908379ffffffffffffffffffffffffffffffffffffffffffffffffffff16021790555061336a565b8860405180604001604052808a65ffffffffffff1681526020018979ffffffffffffffffffffffffffffffffffffffffffffffffffff16815250908060018154018082558091505060019003905f5260205f20015f909190919091505f820151815f015f6101000a81548165ffffffffffff021916908365ffffffffffff1602179055506020820151815f0160066101000a81548179ffffffffffffffffffffffffffffffffffffffffffffffffffff021916908379ffffffffffffffffffffffffffffffffffffffffffffffffffff16021790555050505b80879550955050505050613459565b8560405180604001604052808765ffffffffffff1681526020018679ffffffffffffffffffffffffffffffffffffffffffffffffffff16815250908060018154018082558091505060019003905f5260205f20015f909190919091505f820151815f015f6101000a81548165ffffffffffff021916908365ffffffffffff1602179055506020820151815f0160066101000a81548179ffffffffffffffffffffffffffffffffffffffffffffffffffff021916908379ffffffffffffffffffffffffffffffffffffffffffffffffffff16021790555050505f8492509250505b935093915050565b60405180604001604052805f65ffffffffffff1681526020015f79ffffffffffffffffffffffffffffffffffffffffffffffffffff1681525090565b5f5ffd5b5f7fffffffff0000000000000000000000000000000000000000000000000000000082169050919050565b6134d5816134a1565b81146134df575f5ffd5b50565b5f813590506134f0816134cc565b92915050565b5f6020828403121561350b5761350a61349d565b5b5f613518848285016134e2565b91505092915050565b5f8115159050919050565b61353581613521565b82525050565b5f60208201905061354e5f83018461352c565b92915050565b5f81519050919050565b5f82825260208201905092915050565b8281835e5f83830152505050565b5f601f19601f8301169050919050565b5f61359682613554565b6135a0818561355e565b93506135b081856020860161356e565b6135b98161357c565b840191505092915050565b5f6020820190508181035f8301526135dc818461358c565b905092915050565b5f73ffffffffffffffffffffffffffffffffffffffff82169050919050565b5f61360d826135e4565b9050919050565b61361d81613603565b8114613627575f5ffd5b50565b5f8135905061363881613614565b92915050565b5f819050919050565b6136508161363e565b811461365a575f5ffd5b50565b5f8135905061366b81613647565b92915050565b5f5f604083850312156136875761368661349d565b5b5f6136948582860161362a565b92505060206136a58582860161365d565b9150509250929050565b6136b88161363e565b82525050565b5f6020820190506136d15f8301846136af565b92915050565b5f5f5f606084860312156136ee576136ed61349d565b5b5f6136fb8682870161362a565b935050602061370c8682870161362a565b925050604061371d8682870161365d565b9150509250925092565b5f819050919050565b61373981613727565b8114613743575f5ffd5b50565b5f8135905061375481613730565b92915050565b5f6020828403121561376f5761376e61349d565b5b5f61377c84828501613746565b91505092915050565b61378e81613727565b82525050565b5f6020820190506137a75f830184613785565b92915050565b5f5f604083850312156137c3576137c261349d565b5b5f6137d085828601613746565b92505060206137e18582860161362a565b9150509250929050565b5f60ff82169050919050565b613800816137eb565b82525050565b5f6020820190506138195f8301846137f7565b92915050565b5f602082840312156138345761383361349d565b5b5f6138418482850161362a565b91505092915050565b61385381613603565b82525050565b5f60208201905061386c5f83018461384a565b92915050565b5f63ffffffff82169050919050565b61388a81613872565b82525050565b5f6020820190506138a35f830184613881565b92915050565b5f7fff0000000000000000000000000000000000000000000000000000000000000082169050919050565b6138dd816138a9565b82525050565b5f81519050919050565b5f82825260208201905092915050565b5f819050602082019050919050565b6139158161363e565b82525050565b5f613926838361390c565b60208301905092915050565b5f602082019050919050565b5f613948826138e3565b61395281856138ed565b935061395d836138fd565b805f5b8381101561398d578151613974888261391b565b975061397f83613932565b925050600181019050613960565b5085935050505092915050565b5f60e0820190506139ad5f83018a6138d4565b81810360208301526139bf818961358c565b905081810360408301526139d3818861358c565b90506139e260608301876136af565b6139ef608083018661384a565b6139fc60a0830185613785565b81810360c0830152613a0e818461393e565b905098975050505050505050565b5f60208284031215613a3157613a3061349d565b5b5f613a3e8482850161365d565b91505092915050565b5f65ffffffffffff82169050919050565b613a6181613a47565b82525050565b5f602082019050613a7a5f830184613a58565b92915050565b613a89816137eb565b8114613a93575f5ffd5b50565b5f81359050613aa481613a80565b92915050565b5f5f5f5f5f5f60c08789031215613ac457613ac361349d565b5b5f613ad189828a0161362a565b9650506020613ae289828a0161365d565b9550506040613af389828a0161365d565b9450506060613b0489828a01613a96565b9350506080613b1589828a01613746565b92505060a0613b2689828a01613746565b9150509295509295509295565b5f5f5f5f5f5f5f60e0888a031215613b4e57613b4d61349d565b5b5f613b5b8a828b0161362a565b9750506020613b6c8a828b0161362a565b9650506040613b7d8a828b0161365d565b9550506060613b8e8a828b0161365d565b9450506080613b9f8a828b01613a96565b93505060a0613bb08a828b01613746565b92505060c0613bc18a828b01613746565b91505092959891949750929550565b5f5f60408385031215613be657613be561349d565b5b5f613bf38582860161362a565b9250506020613c048582860161362a565b9150509250929050565b613c1781613872565b8114613c21575f5ffd5b50565b5f81359050613c3281613c0e565b92915050565b5f5f60408385031215613c4e57613c4d61349d565b5b5f613c5b8582860161362a565b9250506020613c6c85828601613c24565b9150509250929050565b613c7f81613a47565b82525050565b5f79ffffffffffffffffffffffffffffffffffffffffffffffffffff82169050919050565b613cb381613c85565b82525050565b604082015f820151613ccd5f850182613c76565b506020820151613ce06020850182613caa565b50505050565b5f604082019050613cf95f830184613cb9565b92915050565b7f4e487b71000000000000000000000000000000000000000000000000000000005f52602260045260245ffd5b5f6002820490506001821680613d4357607f821691505b602082108103613d5657613d55613cff565b5b50919050565b7f4e487b71000000000000000000000000000000000000000000000000000000005f52604160045260245ffd5b5f608082019050613d9c5f830187613785565b613da9602083018661384a565b613db660408301856136af565b613dc360608301846136af565b95945050505050565b5f60c082019050613ddf5f830189613785565b613dec602083018861384a565b613df9604083018761384a565b613e0660608301866136af565b613e1360808301856136af565b613e2060a08301846136af565b979650505050505050565b5f604082019050613e3e5f83018561384a565b613e4b602083018461384a565b9392505050565b7f4e487b71000000000000000000000000000000000000000000000000000000005f52601160045260245ffd5b5f613e8982613c85565b9150613e9483613c85565b9250828201905079ffffffffffffffffffffffffffffffffffffffffffffffffffff811115613ec657613ec5613e52565b5b92915050565b5f613ed682613c85565b9150613ee183613c85565b9250828203905079ffffffffffffffffffffffffffffffffffffffffffffffffffff811115613f1357613f12613e52565b5b92915050565b5f606082019050613f2c5f83018661384a565b613f3960208301856136af565b613f4660408301846136af565b949350505050565b5f604082019050613f615f8301856136af565b613f6e6020830184613a58565b9392505050565b5f613f7f8261363e565b9150613f8a8361363e565b9250828203905081811115613fa257613fa1613e52565b5b92915050565b5f613fb28261363e565b9150613fbd8361363e565b9250828201905080821115613fd557613fd4613e52565b5b92915050565b5f604082019050613fee5f83018561384a565b613ffb60208301846136af565b9392505050565b5f6040820190506140155f83018561384a565b6140226020830184613785565b9392505050565b5f60a08201905061403c5f830188613785565b6140496020830187613785565b6140566040830186613785565b61406360608301856136af565b614070608083018461384a565b9695505050505050565b5f819050919050565b5f819050919050565b5f6140a66140a161409c8461407a565b614083565b6137eb565b9050919050565b6140b68161408c565b82525050565b5f6040820190506140cf5f8301856140ad565b6140dc60208301846136af565b9392505050565b7f4e487b71000000000000000000000000000000000000000000000000000000005f52601260045260245ffd5b5f6040820190506141235f8301856136af565b61413060208301846136af565b9392505050565b5f819050919050565b5f61415a61415561415084614137565b614083565b6137eb565b9050919050565b61416a81614140565b82525050565b5f6040820190506141835f830185614161565b61419060208301846136af565b9392505050565b5f6080820190506141aa5f830187613785565b6141b760208301866137f7565b6141c46040830185613785565b6141d16060830184613785565b95945050505050565b7f4e487b71000000000000000000000000000000000000000000000000000000005f52602160045260245ffd5b7f4e487b71000000000000000000000000000000000000000000000000000000005f52603260045260245ffd5b5f819050919050565b5f61425761425261424d84614234565b614083565b6137eb565b9050919050565b6142678161423d565b82525050565b5f6040820190506142805f83018561425e565b61428d60208301846136af565b939250505056fea264697066735822122000fa48488edc72716ed7c2a59575fc36fd78a30bb086e2e0f0b6d2c085a9761d64736f6c634300081c0033",
  "linkReferences": {},
  "deployedLinkReferences": {}
}