{
  "_format": "hh-sol-artifact-1",
  "contractName": "BloomToken",
  "sourceName": "contracts/BloomToken.sol",
  "abi": [
    {
      "inputs": [
        {
          "internalType": "uint256",
          "name": "initialSupply",
          "type": "uint256"
        }
      ],
      "stateMutability": "nonpayable",
      "type": "constructor"
    },
    {
      "inputs": [],
      "name": "AccessControlBadConfirmation",
      "type": "error"
    },
    {
      "inputs": [
        {
          "internalType": "address",
          "name": "account",
          "type": "address"
        },
        {
          "internalType": "bytes32",
          "name": "neededRole",
          "type": "bytes32"
        }
      ],
      "name": "AccessControlUnauthorizedAccount",
      "type": "error"
    },
    {
      "inputs": [],
      "name": "CheckpointUnorderedInsertion",
      "type": "error"
    },
    {
      "inputs": [],
      "name": "ECDSAInvalidSignature",
      "type": "error"
    },
    {
      "inputs": [
        {
          "internalType": "uint256",
          "name": "length",
          "type": "uint256"
        }
      ],
      "name": "ECDSAInvalidSignatureLength",
      "type": "error"
    },
    {
      "inputs": [
        {
          "internalType": "bytes32",
          "name": "s",
          "type": "bytes32"
        }
      ],
      "name": "ECDSAInvalidSignatureS",
      "type": "error"
    },
    {
      "inputs": [
        {
          "internalType": "uint256",
          "name": "increasedSupply",
          "type": "uint256"
        },
        {
          "internalType": "uint256",
          "name": "cap",
          "type": "uint256"
        }
      ],
      "name": "ERC20ExceededSafeSupply",
      "type": "error"
    },
    {
      "inputs": [
        {
          "internalType": "address",
          "name": "spender",
          "type": "address"
        },
        {
          "internalType": "uint256",
          "name": "allowance",
          "type": "uint256"
        },
        {
          "internalType": "uint256",
          "name": "needed",
          "type": "uint256"
        }
      ],
      "name": "ERC20InsufficientAllowance",
      "type": "error"
    },
    {
      "inputs": [
        {
          "internalType": "address",
          "name": "sender",
          "type": "address"
        },
        {
          "internalType": "uint256",
          "name": "balance",
          "type": "uint256"
        },
        {
          "internalType": "uint256",
          "name": "needed",
          "type": "uint256"
        }
      ],
      "name": "ERC20InsufficientBalance",
      "type": "error"
    },
    {
      "inputs": [
        {
          "internalType": "address",
          "name": "approver",
          "type": "address"
        }
      ],
      "name": "ERC20InvalidApprover",
      "type": "error"
    },
    {
      "inputs": [
        {
          "internalType": "address",
          "name": "receiver",
          "type": "address"
        }
      ],
      "name": "ERC20InvalidReceiver",
      "type": "error"
    },
    {
      "inputs": [
        {
          "internalType": "address",
          "name": "sender",
          "type": "address"
        }
      ],
      "name": "ERC20InvalidSender",
      "type": "error"
    },
    {
      "inputs": [
        {
          "internalType": "address",
          "name": "spender",
          "type": "address"
        }
      ],
      "name": "ERC20InvalidSpender",
      "type": "error"
    },
    {
      "inputs": [
        {
          "internalType": "uint256",
          "name": "deadline",
          "type": "uint256"
        }
      ],
      "name": "ERC2612ExpiredSignature",
      "type": "error"
    },
    {
      "inputs": [
        {
          "internalType": "address",
          "name": "signer",
          "type": "address"
        },
        {
          "internalType": "address",
          "name": "owner",
          "type": "address"
        }
      ],
      "name": "ERC2612InvalidSigner",
      "type": "error"
    },
    {
      "inputs": [
        {
          "internalType": "uint256",
          "name": "timepoint",
          "type": "uint256"
        },
        {
          "internalType": "uint48",
          "name": "clock",
          "type": "uint48"
        }
      ],
      "name": "ERC5805FutureLookup",
      "type": "error"
    },
    {
      "inputs": [],
      "name": "ERC6372InconsistentClock",
      "type": "error"
    },
    {
      "inputs": [],
      "name": "EnforcedPause",
      "type": "error"
    },
    {
      "inputs": [],
      "name": "ExpectedPause",
      "type": "error"
    },
    {
      "inputs": [
        {
          "internalType": "address",
          "name": "account",
          "type": "address"
        },
        {
          "internalType": "uint256",
          "name": "currentNonce",
          "type": "uint256"
        }
      ],
      "name": "InvalidAccountNonce",
      "type": "error"
    },
    {
      "inputs": [],
      "name": "InvalidShortString",
      "type": "error"
    },
    {
      "inputs": [
        {
          "internalType": "uint8",
          "name": "bits",
          "type": "uint8"
        },
        {
          "internalType": "uint256",
          "name": "value",
          "type": "uint256"
        }
      ],
      "name": "SafeCastOverflowedUintDowncast",
      "type": "error"
    },
    {
      "inputs": [
        {
          "internalType": "string",
          "name": "str",
          "type": "string"
        }
      ],
      "name": "StringTooLong",
      "type": "error"
    },
    {
      "inputs": [
        {
          "internalType": "uint256",
          "name": "expiry",
          "type": "uint256"
        }
      ],
      "name": "VotesExpiredSignature",
      "type": "error"
    },
    {
      "anonymous": false,
      "inputs": [
        {
          "indexed": true,
          "internalType": "address",
          "name": "owner",
          "type": "address"
        },
        {
          "indexed": true,
          "internalType": "address",
          "name": "spender",
          "type": "address"
        },
        {
          "indexed": false,
          "internalType": "uint256",
          "name": "value",
          "type": "uint256"
        }
      ],
      "name": "Approval",
      "type": "event"
    },
    {
      "anonymous": false,
      "inputs": [
        {
          "indexed": true,
          "internalType": "address",
          "name": "delegator",
          "type": "address"
        },
        {
          "indexed": true,
          "internalType": "address",
          "name": "fromDelegate",
          "type": "address"
        },
        {
          "indexed": true,
          "internalType": "address",
          "name": "toDelegate",
          "type": "address"
        }
      ],
      "name": "DelegateChanged",
      "type": "event"
    },
    {
      "anonymous": false,
      "inputs": [
        {
          "indexed": true,
          "internalType": "address",
          "name": "delegate",
          "type": "address"
        },
        {
          "indexed": false,
          "internalType": "uint256",
          "name": "previousVotes",
          "type": "uint256"
        },
        {
          "indexed": false,
          "internalType": "uint256",
          "name": "newVotes",
          "type": "uint256"
        }
      ],
      "name": "DelegateVotesChanged",
      "type": "event"
    },
    {
      "anonymous": false,
      "inputs": [],
      "name": "EIP712DomainChanged",
      "type": "event"
    },
    {
      "anonymous": false,
      "inputs": [
        {
          "indexed": false,
          "internalType": "address",
          "name": "account",
          "type": "address"
        }
      ],
      "name": "Paused",
      "type": "event"
    },
    {
      "anonymous": false,
      "inputs": [
        {
          "indexed": true,
          "internalType": "bytes32",
          "name": "role",
          "type": "bytes32"
        },
        {
          "indexed": true,
          "internalType": "bytes32",
          "name": "previousAdminRole",
          "type": "bytes32"
        },
        {
          "indexed": true,
          "internalType": "bytes32",
          "name": "newAdminRole",
          "type": "bytes32"
        }
      ],
      "name": "RoleAdminChanged",
      "type": "event"
    },
    {
      "anonymous": false,
      "inputs": [
        {
          "indexed": true,
          "internalType": "bytes32",
          "name": "role",
          "type": "bytes32"
        },
        {
          "indexed": true,
          "internalType": "address",
          "name": "account",
          "type": "address"
        },
        {
          "indexed": true,
          "internalType": "address",
          "name": "sender",
          "type": "address"
        }
      ],
      "name": "RoleGranted",
      "type": "event"
    },
    {
      "anonymous": false,
      "inputs": [
        {
          "indexed": true,
          "internalType": "bytes32",
          "name": "role",
          "type": "bytes32"
        },
        {
          "indexed": true,
          "internalType": "address",
          "name": "account",
          "type": "address"
        },
        {
          "indexed": true,
          "internalType": "address",
          "name": "sender",
          "type": "address"
        }
      ],
      "name": "RoleRevoked",
      "type": "event"
    },
    {
      "anonymous": false,
      "inputs": [
        {
          "indexed": true,
          "internalType": "address",
          "name": "from",
          "type": "address"
        },
        {
          "indexed": true,
          "internalType": "address",
          "name": "to",
          "type": "address"
        },
        {
          "indexed": false,
          "internalType": "uint256",
          "name": "value",
          "type": "uint256"
        }
      ],
      "name": "Transfer",
      "type": "event"
    },
    {
      "anonymous": false,
      "inputs": [
        {
          "indexed": false,
          "internalType": "address",
          "name": "account",
          "type": "address"
        }
      ],
      "name": "Unpaused",
      "type": "event"
    },
    {
      "inputs": [],
      "name": "CLOCK_MODE",
      "outputs": [
        {
          "internalType": "string",
          "name": "",
          "type": "string"
        }
      ],
      "stateMutability": "view",
      "type": "function"
    },
    {
      "inputs": [],
      "name": "DEFAULT_ADMIN_ROLE",
      "outputs": [
        {
          "internalType": "bytes32",
          "name": "",
          "type": "bytes32"
        }
      ],
      "stateMutability": "view",
      "type": "function"
    },
    {
      "inputs": [],
      "name": "DOMAIN_SEPARATOR",
      "outputs": [
        {
          "internalType": "bytes32",
          "name": "",
          "type": "bytes32"
        }
      ],
      "stateMutability": "view",
      "type": "function"
    },
    {
      "inputs": [],
      "name": "MINTER_ROLE",
      "outputs": [
        {
          "internalType": "bytes32",
          "name": "",
          "type": "bytes32"
        }
      ],
      "stateMutability": "view",
      "type": "function"
    },
    {
      "inputs": [],
      "name": "PAUSER_ROLE",
      "outputs": [
        {
          "internalType": "bytes32",
          "name": "",
          "type": "bytes32"
        }
      ],
      "stateMutability": "view",
      "type": "function"
    },
    {
      "inputs": [
        {
          "internalType": "address",
          "name": "owner",
          "type": "address"
        },
        {
          "internalType": "address",
          "name": "spender",
          "type": "address"
        }
      ],
      "name": "allowance",
      "outputs": [
        {
          "internalType": "uint256",
          "name": "",
          "type": "uint256"
        }
      ],
      "stateMutability": "view",
      "type": "function"
    },
    {
      "inputs": [
        {
          "internalType": "address",
          "name": "spender",
          "type": "address"
        },
        {
          "internalType": "uint256",
          "name": "value",
          "type": "uint256"
        }
      ],
      "name": "approve",
      "outputs": [
        {
          "internalType": "bool",
          "name": "",
          "type": "bool"
        }
      ],
      "stateMutability": "nonpayable",
      "type": "function"
    },
    {
      "inputs": [
        {
          "internalType": "address",
          "name": "account",
          "type": "address"
        }
      ],
      "name": "balanceOf",
      "outputs": [
        {
          "internalType": "uint256",
          "name": "",
          "type": "uint256"
        }
      ],
      "stateMutability": "view",
      "type": "function"
    },
    {
      "inputs": [
        {
          "internalType": "address",
          "name": "account",
          "type": "address"
        },
        {
          "internalType": "uint32",
          "name": "pos",
          "type": "uint32"
        }
      ],
      "name": "checkpoints",
      "outputs": [
        {
          "components": [
            {
              "internalType": "uint48",
              "name": "_key",
              "type": "uint48"
            },
            {
              "internalType": "uint208",
              "name": "_value",
              "type": "uint208"
            }
          ],
          "internalType": "struct Checkpoints.Checkpoint208",
          "name": "",
          "type": "tuple"
        }
      ],
      "stateMutability": "view",
      "type": "function"
    },
    {
      "inputs": [],
      "name": "clock",
      "outputs": [
        {
          "internalType": "uint48",
          "name": "",
          "type": "uint48"
        }
      ],
      "stateMutability": "view",
      "type": "function"
    },
    {
      "inputs": [],
      "name": "decimals",
      "outputs": [
        {
          "internalType": "uint8",
          "name": "",
          "type": "uint8"
        }
      ],
      "stateMutability": "view",
      "type": "function"
    },
    {
      "inputs": [
        {
          "internalType": "address",
          "name": "delegatee",
          "type": "address"
        }
      ],
      "name": "delegate",
      "outputs": [],
      "stateMutability": "nonpayable",
      "type": "function"
    },
    {
      "inputs": [
        {
          "internalType": "address",
          "name": "delegatee",
          "type": "address"
        },
        {
          "internalType": "uint256",
          "name": "nonce",
          "type": "uint256"
        },
        {
          "internalType": "uint256",
          "name": "expiry",
          "type": "uint256"
        },
        {
          "internalType": "uint8",
          "name": "v",
          "type": "uint8"
        },
        {
          "internalType": "bytes32",
          "name": "r",
          "type": "bytes32"
        },
        {
          "internalType": "bytes32",
          "name": "s",
          "type": "bytes32"
        }
      ],
      "name": "delegateBySig",
      "outputs": [],
      "stateMutability": "nonpayable",
      "type": "function"
    },
    {
      "inputs": [
        {
          "internalType": "address",
          "name": "account",
          "type": "address"
        }
      ],
      "name": "delegates",
      "outputs": [
        {
          "internalType": "address",
          "name": "",
          "type": "address"
        }
      ],
      "stateMutability": "view",
      "type": "function"
    },
    {
      "inputs": [],
      "name": "eip712Domain",
      "outputs": [
        {
          "internalType": "bytes1",
          "name": "fields",
          "type": "bytes1"
        },
        {
          "internalType": "string",
          "name": "name",
          "type": "string"
        },
        {
          "internalType": "string",
          "name": "version",
          "type": "string"
        },
        {
          "internalType": "uint256",
          "name": "chainId",
          "type": "uint256"
        },
        {
          "internalType": "address",
          "name": "verifyingContract",
          "type": "address"
        },
        {
          "internalType": "bytes32",
          "name": "salt",
          "type": "bytes32"
        },
        {
          "internalType": "uint256[]",
          "name": "extensions",
          "type": "uint256[]"
        }
      ],
      "stateMutability": "view",
      "type": "function"
    },
    {
      "inputs": [
        {
          "internalType": "uint256",
          "name": "timepoint",
          "type": "uint256"
        }
      ],
      "name": "getPastTotalSupply",
      "outputs": [
        {
          "internalType": "uint256",
          "name": "",
          "type": "uint256"
        }
      ],
      "stateMutability": "view",
      "type": "function"
    },
    {
      "inputs": [
        {
          "internalType": "address",
          "name": "account",
          "type": "address"
        },
        {
          "internalType": "uint256",
          "name": "timepoint",
          "type": "uint256"
        }
      ],
      "name": "getPastVotes",
      "outputs": [
        {
          "internalType": "uint256",
          "name": "",
          "type": "uint256"
        }
      ],
      "stateMutability": "view",
      "type": "function"
    },
    {
      "inputs": [
        {
          "internalType": "bytes32",
          "name": "role",
          "type": "bytes32"
        }
      ],
      "name": "getRoleAdmin",
      "outputs": [
        {
          "internalType": "bytes32",
          "name": "",
          "type": "bytes32"
        }
      ],
      "stateMutability": "view",
      "type": "function"
    },
    {
      "inputs": [
        {
          "internalType": "address",
          "name": "account",
          "type": "address"
        }
      ],
      "name": "getVotes",
      "outputs": [
        {
          "internalType": "uint256",
          "name": "",
          "type": "uint256"
        }
      ],
      "stateMutability": "view",
      "type": "function"
    },
    {
      "inputs": [
        {
          "internalType": "bytes32",
          "name": "role",
          "type": "bytes32"
        },
        {
          "internalType": "address",
          "name": "account",
          "type": "address"
        }
      ],
      "name": "grantRole",
      "outputs": [],
      "stateMutability": "nonpayable",
      "type": "function"
    },
    {
      "inputs": [
        {
          "internalType": "bytes32",
          "name": "role",
          "type": "bytes32"
        },
        {
          "internalType": "address",
          "name": "account",
          "type": "address"
        }
      ],
      "name": "hasRole",
      "outputs": [
        {
          "internalType": "bool",
          "name": "",
          "type": "bool"
        }
      ],
      "stateMutability": "view",
      "type": "function"
    },
    {
      "inputs": [
        {
          "internalType": "address",
          "name": "to",
          "type": "address"
        },
        {
          "internalType": "uint256",
          "name": "amount",
          "type": "uint256"
        }
      ],
      "name": "mint",
      "outputs": [],
      "stateMutability": "nonpayable",
      "type": "function"
    },
    {
      "inputs": [],
      "name": "name",
      "outputs": [
        {
          "internalType": "string",
          "name": "",
          "type": "string"
        }
      ],
      "stateMutability": "view",
      "type": "function"
    },
    {
      "inputs": [
        {
          "internalType": "address",
          "name": "owner",
          "type": "address"
        }
      ],
      "name": "nonces",
      "outputs": [
        {
          "internalType": "uint256",
          "name": "",
          "type": "uint256"
        }
      ],
      "stateMutability": "view",
      "type": "function"
    },
    {
      "inputs": [
        {
          "internalType": "address",
          "name": "account",
          "type": "address"
        }
      ],
      "name": "numCheckpoints",
      "outputs": [
        {
          "internalType": "uint32",
          "name": "",
          "type": "uint32"
        }
      ],
      "stateMutability": "view",
      "type": "function"
    },
    {
      "inputs": [],
      "name": "pause",
      "outputs": [],
      "stateMutability": "nonpayable",
      "type": "function"
    },
    {
      "inputs": [],
      "name": "paused",
      "outputs": [
        {
          "internalType": "bool",
          "name": "",
          "type": "bool"
        }
      ],
      "stateMutability": "view",
      "type": "function"
    },
    {
      "inputs": [
        {
          "internalType": "address",
          "name": "owner",
          "type": "address"
        },
        {
          "internalType": "address",
          "name": "spender",
          "type": "address"
        },
        {
          "internalType": "uint256",
          "name": "value",
          "type": "uint256"
        },
        {
          "internalType": "uint256",
          "name": "deadline",
          "type": "uint256"
        },
        {
          "internalType": "uint8",
          "name": "v",
          "type": "uint8"
        },
        {
          "internalType": "bytes32",
          "name": "r",
          "type": "bytes32"
        },
        {
          "internalType": "bytes32",
          "name": "s",
          "type": "bytes32"
        }
      ],
      "name": "permit",
      "outputs": [],
      "stateMutability": "nonpayable",
      "type": "function"
    },
    {
      "inputs": [
        {
          "internalType": "bytes32",
          "name": "role",
          "type": "bytes32"
        },
        {
          "internalType": "address",
          "name": "callerConfirmation",
          "type": "address"
        }
      ],
      "name": "renounceRole",
      "outputs": [],
      "stateMutability": "nonpayable",
      "type": "function"
    },
    {
      "inputs": [
        {
          "internalType": "bytes32",
          "name": "role",
          "type": "bytes32"
        },
        {
          "internalType": "address",
          "name": "account",
          "type": "address"
        }
      ],
      "name": "revokeRole",
      "outputs": [],
      "stateMutability": "nonpayable",
      "type": "function"
    },
    {
      "inputs": [
        {
          "internalType": "bytes4",
          "name": "interfaceId",
          "type": "bytes4"
        }
      ],
      "name": "supportsInterface",
      "outputs": [
        {
          "internalType": "bool",
          "name": "",
          "type": "bool"
        }
      ],
      "stateMutability": "view",
      "type": "function"
    },
    {
      "inputs": [],
      "name": "symbol",
      "outputs": [
        {
          "internalType": "string",
          "name": "",
          "type": "string"
        }
      ],
      "stateMutability": "view",
      "type": "function"
    },
    {
      "inputs": [],
      "name": "totalSupply",
      "outputs": [
        {
          "internalType": "uint256",
          "name": "",
          "type": "uint256"
        }
      ],
      "stateMutability": "view",
      "type": "function"
    },
    {
      "inputs": [
        {
          "internalType": "address",
          "name": "to",
          "type": "address"
        },
        {
          "internalType": "uint256",
          "name": "value",
          "type": "uint256"
        }
      ],
      "name": "transfer",
      "outputs": [
        {
          "internalType": "bool",
          "name": "",
          "type": "bool"
        }
      ],
      "stateMutability": "nonpayable",
      "type": "function"
    },
    {
      "inputs": [
        {
          "internalType": "address",
          "name": "from",
          "type": "address"
        },
        {
          "internalType": "address",
          "name": "to",
          "type": "address"
        },
        {
          "internalType": "uint256",
          "name": "value",
          "type": "uint256"
        }
      ],
      "name": "transferFrom",
      "outputs": [
        {
          "internalType": "bool",
          "name": "",
          "type": "bool"
        }
      ],
      "stateMutability": "nonpayable",
      "type": "function"
    },
    {
      "inputs": [],
      "name": "unpause",
      "outputs": [],
      "stateMutability": "nonpayable",
      "type": "function"
    }
  ],
  "bytecode": "0x610160604052348015610010575f5ffd5b50604051615a91380380615a9183398181016040528101906100329190611217565b6040518060400160405280601081526020017f426c6f636b426c6f6f6d20546f6b656e00000000000000000000000000000000815250806040518060400160405280600181526020017f31000000000000000000000000000000000000000000000000000000000000008152506040518060400160405280601081526020017f426c6f636b426c6f6f6d20546f6b656e000000000000000000000000000000008152506040518060400160405280600581526020017f424c4f4f4d000000000000000000000000000000000000000000000000000000815250816003908161011a9190611476565b50806004908161012a9190611476565b50505061014160068361026360201b90919060201c565b610120818152505061015d60078261026360201b90919060201c565b6101408181525050818051906020012060e08181525050808051906020012061010081815250504660a0818152505061019a6102b060201b60201c565b608081815250503073ffffffffffffffffffffffffffffffffffffffff1660c08173ffffffffffffffffffffffffffffffffffffffff16815250505050506101ea5f5f1b3361030a60201b60201c565b5061021b7f9f2df0fed2c77648de5860a4cc508cd0818c85b8b8a1ab4ceeef8d981c8956a63361030a60201b60201c565b5061024c7f65d7a28e3265b37a6474929f336521b332c1681b933f6cb9f3376673440d862a3361030a60201b60201c565b5061025d338261040060201b60201c565b506119c1565b5f6020835110156102845761027d8361048560201b60201c565b90506102aa565b82610294836104ea60201b60201c565b5f0190816102a29190611476565b5060ff5f1b90505b92915050565b5f7f8b73c3c69bb8fe3d512ecc4cf759cc79239f7b179b0ffacaa9a75d522b39400f60e0516101005146306040516020016102ef9594939291906115ab565b60405160208183030381529060405280519060200120905090565b5f61031b83836104f360201b60201c565b6103f6576001600c5f8581526020019081526020015f205f015f8473ffffffffffffffffffffffffffffffffffffffff1673ffffffffffffffffffffffffffffffffffffffff1681526020019081526020015f205f6101000a81548160ff02191690831515021790555061039361055760201b60201c565b73ffffffffffffffffffffffffffffffffffffffff168273ffffffffffffffffffffffffffffffffffffffff16847f2f8788117e7eff1d82e926ec794901d17c78024a50270940304540a733656f0d60405160405180910390a4600190506103fa565b5f90505b92915050565b5f73ffffffffffffffffffffffffffffffffffffffff168273ffffffffffffffffffffffffffffffffffffffff1603610470575f6040517fec442f0500000000000000000000000000000000000000000000000000000000815260040161046791906115fc565b60405180910390fd5b6104815f838361055e60201b60201c565b5050565b5f5f829050601f815111156104d157826040517f305a27a90000000000000000000000000000000000000000000000000000000081526004016104c8919061167b565b60405180910390fd5b8051816104dd906116c8565b5f1c175f1b915050919050565b5f819050919050565b5f600c5f8481526020019081526020015f205f015f8373ffffffffffffffffffffffffffffffffffffffff1673ffffffffffffffffffffffffffffffffffffffff1681526020019081526020015f205f9054906101000a900460ff16905092915050565b5f33905090565b61056f83838361057460201b60201c565b505050565b61058583838361063a60201b60201c565b5f73ffffffffffffffffffffffffffffffffffffffff168373ffffffffffffffffffffffffffffffffffffffff1603610624575f6105c761065e60201b60201c565b90505f6105d861066760201b60201c565b9050808211156106215781816040517f1cb15d2600000000000000000000000000000000000000000000000000000000815260040161061892919061172e565b60405180910390fd5b50505b61063583838361068a60201b60201c565b505050565b61064861077a60201b60201c565b6106598383836107c160201b60201c565b505050565b5f600254905090565b5f79ffffffffffffffffffffffffffffffffffffffffffffffffffff8016905090565b5f73ffffffffffffffffffffffffffffffffffffffff168373ffffffffffffffffffffffffffffffffffffffff16036106e9576106e6600b6109da60201b611133176106db846109ef60201b60201c565b610a5c60201b60201c565b50505b5f73ffffffffffffffffffffffffffffffffffffffff168273ffffffffffffffffffffffffffffffffffffffff160361074857610745600b610aa460201b6111481761073a846109ef60201b60201c565b610a5c60201b60201c565b50505b61077561075a84610ab960201b60201c565b61076984610ab960201b60201c565b83610b1e60201b60201c565b505050565b610788610db460201b60201c565b156107bf576040517fd93c066500000000000000000000000000000000000000000000000000000000815260040160405180910390fd5b565b5f73ffffffffffffffffffffffffffffffffffffffff168373ffffffffffffffffffffffffffffffffffffffff1603610811578060025f8282546108059190611782565b925050819055506108df565b5f5f5f8573ffffffffffffffffffffffffffffffffffffffff1673ffffffffffffffffffffffffffffffffffffffff1681526020019081526020015f205490508181101561089a578381836040517fe450d38c000000000000000000000000000000000000000000000000000000008152600401610891939291906117b5565b60405180910390fd5b8181035f5f8673ffffffffffffffffffffffffffffffffffffffff1673ffffffffffffffffffffffffffffffffffffffff1681526020019081526020015f2081905550505b5f73ffffffffffffffffffffffffffffffffffffffff168273ffffffffffffffffffffffffffffffffffffffff1603610926578060025f8282540392505081905550610970565b805f5f8473ffffffffffffffffffffffffffffffffffffffff1673ffffffffffffffffffffffffffffffffffffffff1681526020019081526020015f205f82825401925050819055505b8173ffffffffffffffffffffffffffffffffffffffff168373ffffffffffffffffffffffffffffffffffffffff167fddf252ad1be2c89b69c2b068fc378daa952ba7f163c4a11628f55a4df523b3ef836040516109cd91906117ea565b60405180910390a3505050565b5f81836109e79190611828565b905092915050565b5f79ffffffffffffffffffffffffffffffffffffffffffffffffffff8016821115610a545760d0826040517f6dfcc650000000000000000000000000000000000000000000000000000000008152600401610a4b9291906118ba565b60405180910390fd5b819050919050565b5f5f610a98610a6f610dc960201b60201c565b610a88610a8188610ddd60201b60201c565b868860201c565b87610e4560201b9092919060201c565b91509150935093915050565b5f8183610ab191906118e1565b905092915050565b5f60095f8373ffffffffffffffffffffffffffffffffffffffff1673ffffffffffffffffffffffffffffffffffffffff1681526020019081526020015f205f9054906101000a900473ffffffffffffffffffffffffffffffffffffffff169050919050565b8173ffffffffffffffffffffffffffffffffffffffff168373ffffffffffffffffffffffffffffffffffffffff1614158015610b5957505f81115b15610daf575f73ffffffffffffffffffffffffffffffffffffffff168373ffffffffffffffffffffffffffffffffffffffff1614610c86575f5f610bf7600a5f8773ffffffffffffffffffffffffffffffffffffffff1673ffffffffffffffffffffffffffffffffffffffff1681526020019081526020015f20610aa460201b61114817610bec866109ef60201b60201c565b610a5c60201b60201c565b79ffffffffffffffffffffffffffffffffffffffffffffffffffff16915079ffffffffffffffffffffffffffffffffffffffffffffffffffff1691508473ffffffffffffffffffffffffffffffffffffffff167fdec2bacdd2f05b59de34da9b523dff8be42e5e38e818c82fdb0bae774387a7248383604051610c7b92919061172e565b60405180910390a250505b5f73ffffffffffffffffffffffffffffffffffffffff168273ffffffffffffffffffffffffffffffffffffffff1614610dae575f5f610d1f600a5f8673ffffffffffffffffffffffffffffffffffffffff1673ffffffffffffffffffffffffffffffffffffffff1681526020019081526020015f206109da60201b61113317610d14866109ef60201b60201c565b610a5c60201b60201c565b79ffffffffffffffffffffffffffffffffffffffffffffffffffff16915079ffffffffffffffffffffffffffffffffffffffffffffffffffff1691508373ffffffffffffffffffffffffffffffffffffffff167fdec2bacdd2f05b59de34da9b523dff8be42e5e38e818c82fdb0bae774387a7248383604051610da392919061172e565b60405180910390a250505b5b505050565b5f60055f9054906101000a900460ff16905090565b5f610dd8610e6660201b60201c565b905090565b5f5f825f018054905090505f8114610e3b57610e0d835f01600183610e02919061192e565b610e7b60201b60201c565b5f0160069054906101000a900479ffffffffffffffffffffffffffffffffffffffffffffffffffff16610e3d565b5f5b915050919050565b5f5f610e5a855f018585610e8d60201b60201c565b91509150935093915050565b5f610e764361118760201b60201c565b905090565b5f825f528160205f2001905092915050565b5f5f5f858054905090505f81111561109f575f610ebc87600184610eb1919061192e565b610e7b60201b60201c565b90505f815f015f9054906101000a900465ffffffffffff1690505f825f0160069054906101000a900479ffffffffffffffffffffffffffffffffffffffffffffffffffff1690508765ffffffffffff168265ffffffffffff161115610f4d576040517f2520601d00000000000000000000000000000000000000000000000000000000815260040160405180910390fd5b8765ffffffffffff168265ffffffffffff1603610fb75786835f0160066101000a81548179ffffffffffffffffffffffffffffffffffffffffffffffffffff021916908379ffffffffffffffffffffffffffffffffffffffffffffffffffff160217905550611090565b8860405180604001604052808a65ffffffffffff1681526020018979ffffffffffffffffffffffffffffffffffffffffffffffffffff16815250908060018154018082558091505060019003905f5260205f20015f909190919091505f820151815f015f6101000a81548165ffffffffffff021916908365ffffffffffff1602179055506020820151815f0160066101000a81548179ffffffffffffffffffffffffffffffffffffffffffffffffffff021916908379ffffffffffffffffffffffffffffffffffffffffffffffffffff16021790555050505b8087955095505050505061117f565b8560405180604001604052808765ffffffffffff1681526020018679ffffffffffffffffffffffffffffffffffffffffffffffffffff16815250908060018154018082558091505060019003905f5260205f20015f909190919091505f820151815f015f6101000a81548165ffffffffffff021916908365ffffffffffff1602179055506020820151815f0160066101000a81548179ffffffffffffffffffffffffffffffffffffffffffffffffffff021916908379ffffffffffffffffffffffffffffffffffffffffffffffffffff16021790555050505f8492509250505b935093915050565b5f65ffffffffffff80168211156111d8576030826040517f6dfcc6500000000000000000000000000000000000000000000000000000000081526004016111cf92919061199a565b60405180910390fd5b819050919050565b5f5ffd5b5f819050919050565b6111f6816111e4565b8114611200575f5ffd5b50565b5f81519050611211816111ed565b92915050565b5f6020828403121561122c5761122b6111e0565b5b5f61123984828501611203565b91505092915050565b5f81519050919050565b7f4e487b71000000000000000000000000000000000000000000000000000000005f52604160045260245ffd5b7f4e487b71000000000000000000000000000000000000000000000000000000005f52602260045260245ffd5b5f60028204905060018216806112bd57607f821691505b6020821081036112d0576112cf611279565b5b50919050565b5f819050815f5260205f209050919050565b5f6020601f8301049050919050565b5f82821b905092915050565b5f600883026113327fffffffffffffffffffffffffffffffffffffffffffffffffffffffffffffffff826112f7565b61133c86836112f7565b95508019841693508086168417925050509392505050565b5f819050919050565b5f61137761137261136d846111e4565b611354565b6111e4565b9050919050565b5f819050919050565b6113908361135d565b6113a461139c8261137e565b848454611303565b825550505050565b5f5f905090565b6113bb6113ac565b6113c6818484611387565b505050565b5b818110156113e9576113de5f826113b3565b6001810190506113cc565b5050565b601f82111561142e576113ff816112d6565b611408846112e8565b81016020851015611417578190505b61142b611423856112e8565b8301826113cb565b50505b505050565b5f82821c905092915050565b5f61144e5f1984600802611433565b1980831691505092915050565b5f611466838361143f565b9150826002028217905092915050565b61147f82611242565b67ffffffffffffffff8111156114985761149761124c565b5b6114a282546112a6565b6114ad8282856113ed565b5f60209050601f8311600181146114de575f84156114cc578287015190505b6114d6858261145b565b86555061153d565b601f1984166114ec866112d6565b5f5b82811015611513578489015182556001820191506020850194506020810190506114ee565b86831015611530578489015161152c601f89168261143f565b8355505b6001600288020188555050505b505050505050565b5f819050919050565b61155781611545565b82525050565b611566816111e4565b82525050565b5f73ffffffffffffffffffffffffffffffffffffffff82169050919050565b5f6115958261156c565b9050919050565b6115a58161158b565b82525050565b5f60a0820190506115be5f83018861154e565b6115cb602083018761154e565b6115d8604083018661154e565b6115e5606083018561155d565b6115f2608083018461159c565b9695505050505050565b5f60208201905061160f5f83018461159c565b92915050565b5f82825260208201905092915050565b8281835e5f83830152505050565b5f601f19601f8301169050919050565b5f61164d82611242565b6116578185611615565b9350611667818560208601611625565b61167081611633565b840191505092915050565b5f6020820190508181035f8301526116938184611643565b905092915050565b5f81519050919050565b5f819050602082019050919050565b5f6116bf8251611545565b80915050919050565b5f6116d28261169b565b826116dc846116a5565b90506116e7816116b4565b92506020821015611727576117227fffffffffffffffffffffffffffffffffffffffffffffffffffffffffffffffff836020036008026112f7565b831692505b5050919050565b5f6040820190506117415f83018561155d565b61174e602083018461155d565b9392505050565b7f4e487b71000000000000000000000000000000000000000000000000000000005f52601160045260245ffd5b5f61178c826111e4565b9150611797836111e4565b92508282019050808211156117af576117ae611755565b5b92915050565b5f6060820190506117c85f83018661159c565b6117d5602083018561155d565b6117e2604083018461155d565b949350505050565b5f6020820190506117fd5f83018461155d565b92915050565b5f79ffffffffffffffffffffffffffffffffffffffffffffffffffff82169050919050565b5f61183282611803565b915061183d83611803565b9250828201905079ffffffffffffffffffffffffffffffffffffffffffffffffffff81111561186f5761186e611755565b5b92915050565b5f819050919050565b5f60ff82169050919050565b5f6118a461189f61189a84611875565b611354565b61187e565b9050919050565b6118b48161188a565b82525050565b5f6040820190506118cd5f8301856118ab565b6118da602083018461155d565b9392505050565b5f6118eb82611803565b91506118f683611803565b9250828203905079ffffffffffffffffffffffffffffffffffffffffffffffffffff81111561192857611927611755565b5b92915050565b5f611938826111e4565b9150611943836111e4565b925082820390508181111561195b5761195a611755565b5b92915050565b5f819050919050565b5f61198461197f61197a84611961565b611354565b61187e565b9050919050565b6119948161196a565b82525050565b5f6040820190506119ad5f83018561198b565b6119ba602083018461155d565b9392505050565b60805160a05160c05160e05161010051610120516101405161407f611a125f395f611a7601525f611a3b01525f611f3801525f611f1701525f61147301525f6114c901525f6114f2015261407f5ff3fe608060405234801561000f575f5ffd5b506004361061021a575f3560e01c806370a0823111610123578063a217fddf116100ab578063d53913931161007a578063d53913931461067c578063d547741f1461069a578063dd62ed3e146106b6578063e63ab1e9146106e6578063f1127ed8146107045761021a565b8063a217fddf146105f6578063a9059cbb14610614578063c3cda52014610644578063d505accf146106605761021a565b80638e539e8c116100f25780638e539e8c1461052a57806391d148541461055a57806391ddadf41461058a57806395d89b41146105a85780639ab24eb0146105c65761021a565b806370a082311461049c5780637ecebe00146104cc5780638456cb59146104fc57806384b0196e146105065761021a565b806336568abe116101a65780634bf5d7e9116101755780634bf5d7e9146103e4578063587cde1e146104025780635c19a95c146104325780635c975abb1461044e5780636fcfff451461046c5761021a565b806336568abe146103725780633a46b1a81461038e5780633f4ba83a146103be57806340c10f19146103c85761021a565b806323b872dd116101ed57806323b872dd146102ba578063248a9ca3146102ea5780632f2ff15d1461031a578063313ce567146103365780633644e515146103545761021a565b806301ffc9a71461021e57806306fdde031461024e578063095ea7b31461026c57806318160ddd1461029c575b5f5ffd5b610238600480360381019061023391906132ab565b610734565b60405161024591906132f0565b60405180910390f35b610256610745565b6040516102639190613379565b60405180910390f35b61028660048036038101906102819190613426565b6107d5565b60405161029391906132f0565b60405180910390f35b6102a46107f7565b6040516102b19190613473565b60405180910390f35b6102d460048036038101906102cf919061348c565b610800565b6040516102e191906132f0565b60405180910390f35b61030460048036038101906102ff919061350f565b61082e565b6040516103119190613549565b60405180910390f35b610334600480360381019061032f9190613562565b61084b565b005b61033e61086d565b60405161034b91906135bb565b60405180910390f35b61035c610875565b6040516103699190613549565b60405180910390f35b61038c60048036038101906103879190613562565b610883565b005b6103a860048036038101906103a39190613426565b6108fe565b6040516103b59190613473565b60405180910390f35b6103c661097a565b005b6103e260048036038101906103dd9190613426565b6109af565b005b6103ec6109e8565b6040516103f99190613379565b60405180910390f35b61041c600480360381019061041791906135d4565b610a7c565b604051610429919061360e565b60405180910390f35b61044c600480360381019061044791906135d4565b610ae1565b005b610456610afa565b60405161046391906132f0565b60405180910390f35b610486600480360381019061048191906135d4565b610b0f565b6040516104939190613645565b60405180910390f35b6104b660048036038101906104b191906135d4565b610b20565b6040516104c39190613473565b60405180910390f35b6104e660048036038101906104e191906135d4565b610b65565b6040516104f39190613473565b60405180910390f35b610504610b76565b005b61050e610bab565b604051610521979695949392919061374f565b60405180910390f35b610544600480360381019061053f91906137d1565b610c50565b6040516105519190613473565b60405180910390f35b610574600480360381019061056f9190613562565b610c90565b60405161058191906132f0565b60405180910390f35b610592610cf4565b60405161059f919061381c565b60405180910390f35b6105b0610d02565b6040516105bd9190613379565b60405180910390f35b6105e060048036038101906105db91906135d4565b610d92565b6040516105ed9190613473565b60405180910390f35b6105fe610dfb565b60405161060b9190613549565b60405180910390f35b61062e60048036038101906106299190613426565b610e01565b60405161063b91906132f0565b60405180910390f35b61065e6004803603810190610659919061385f565b610e23565b005b61067a600480360381019061067591906138e8565b610ee8565b005b61068461102d565b6040516106919190613549565b60405180910390f35b6106b460048036038101906106af9190613562565b611051565b005b6106d060048036038101906106cb9190613985565b611073565b6040516106dd9190613473565b60405180910390f35b6106ee6110f5565b6040516106fb9190613549565b60405180910390f35b61071e600480360381019061071991906139ed565b611119565b60405161072b9190613a9b565b60405180910390f35b5f61073e8261115d565b9050919050565b60606003805461075490613ae1565b80601f016020809104026020016040519081016040528092919081815260200182805461078090613ae1565b80156107cb5780601f106107a2576101008083540402835291602001916107cb565b820191905f5260205f20905b8154815290600101906020018083116107ae57829003601f168201915b5050505050905090565b5f5f6107df6111d6565b90506107ec8185856111dd565b600191505092915050565b5f600254905090565b5f5f61080a6111d6565b90506108178582856111ef565b610822858585611282565b60019150509392505050565b5f600c5f8381526020019081526020015f20600101549050919050565b6108548261082e565b61085d81611372565b6108678383611386565b50505050565b5f6012905090565b5f61087e611470565b905090565b61088b6111d6565b73ffffffffffffffffffffffffffffffffffffffff168173ffffffffffffffffffffffffffffffffffffffff16146108ef576040517f6697b23200000000000000000000000000000000000000000000000000000000815260040160405180910390fd5b6108f98282611526565b505050565b5f61095661090b83611610565b600a5f8673ffffffffffffffffffffffffffffffffffffffff1673ffffffffffffffffffffffffffffffffffffffff1681526020019081526020015f2061167b90919063ffffffff16565b79ffffffffffffffffffffffffffffffffffffffffffffffffffff16905092915050565b7f65d7a28e3265b37a6474929f336521b332c1681b933f6cb9f3376673440d862a6109a481611372565b6109ac61176b565b50565b7f9f2df0fed2c77648de5860a4cc508cd0818c85b8b8a1ab4ceeef8d981c8956a66109d981611372565b6109e383836117cc565b505050565b60606109f261184b565b65ffffffffffff16610a02610cf4565b65ffffffffffff1614610a41576040517f6ff0714000000000000000000000000000000000000000000000000000000000815260040160405180910390fd5b6040518060400160405280601d81526020017f6d6f64653d626c6f636b6e756d6265722666726f6d3d64656661756c74000000815250905090565b5f60095f8373ffffffffffffffffffffffffffffffffffffffff1673ffffffffffffffffffffffffffffffffffffffff1681526020019081526020015f205f9054906101000a900473ffffffffffffffffffffffffffffffffffffffff169050919050565b5f610aea6111d6565b9050610af6818361185a565b5050565b5f60055f9054906101000a900460ff16905090565b5f610b198261196a565b9050919050565b5f5f5f8373ffffffffffffffffffffffffffffffffffffffff1673ffffffffffffffffffffffffffffffffffffffff1681526020019081526020015f20549050919050565b5f610b6f826119bf565b9050919050565b7f65d7a28e3265b37a6474929f336521b332c1681b933f6cb9f3376673440d862a610ba081611372565b610ba86119d0565b50565b5f6060805f5f5f6060610bbc611a32565b610bc4611a6d565b46305f5f1b5f67ffffffffffffffff811115610be357610be2613b11565b5b604051908082528060200260200182016040528015610c115781602001602082028036833780820191505090505b507f0f00000000000000000000000000000000000000000000000000000000000000959493929190965096509650965096509650965090919293949596565b5f610c6d610c5d83611610565b600b61167b90919063ffffffff16565b79ffffffffffffffffffffffffffffffffffffffffffffffffffff169050919050565b5f600c5f8481526020019081526020015f205f015f8373ffffffffffffffffffffffffffffffffffffffff1673ffffffffffffffffffffffffffffffffffffffff1681526020019081526020015f205f9054906101000a900460ff16905092915050565b5f610cfd61184b565b905090565b606060048054610d1190613ae1565b80601f0160208091040260200160405190810160405280929190818152602001828054610d3d90613ae1565b8015610d885780601f10610d5f57610100808354040283529160200191610d88565b820191905f5260205f20905b815481529060010190602001808311610d6b57829003601f168201915b5050505050905090565b5f610dd8600a5f8473ffffffffffffffffffffffffffffffffffffffff1673ffffffffffffffffffffffffffffffffffffffff1681526020019081526020015f20611aa8565b79ffffffffffffffffffffffffffffffffffffffffffffffffffff169050919050565b5f5f1b81565b5f5f610e0b6111d6565b9050610e18818585611282565b600191505092915050565b83421115610e6857836040517f4683af0e000000000000000000000000000000000000000000000000000000008152600401610e5f9190613473565b60405180910390fd5b5f610ec9610ec17fe48329057bfd03d55e49b547132e39cffd9c1820ad7b9d4c5307691425d15adf898989604051602001610ea69493929190613b3e565b60405160208183030381529060405280519060200120611b0a565b858585611b23565b9050610ed58187611b51565b610edf818861185a565b50505050505050565b83421115610f2d57836040517f62791302000000000000000000000000000000000000000000000000000000008152600401610f249190613473565b60405180910390fd5b5f7f6e71edae12b1b97f4d1f60370fef10105fa2faae0126114a169c64845d6126c9888888610f5b8c611ba8565b89604051602001610f7196959493929190613b81565b6040516020818303038152906040528051906020012090505f610f9382611b0a565b90505f610fa282878787611b23565b90508973ffffffffffffffffffffffffffffffffffffffff168173ffffffffffffffffffffffffffffffffffffffff161461101657808a6040517f4b800e4600000000000000000000000000000000000000000000000000000000815260040161100d929190613be0565b60405180910390fd5b6110218a8a8a6111dd565b50505050505050505050565b7f9f2df0fed2c77648de5860a4cc508cd0818c85b8b8a1ab4ceeef8d981c8956a681565b61105a8261082e565b61106381611372565b61106d8383611526565b50505050565b5f60015f8473ffffffffffffffffffffffffffffffffffffffff1673ffffffffffffffffffffffffffffffffffffffff1681526020019081526020015f205f8373ffffffffffffffffffffffffffffffffffffffff1673ffffffffffffffffffffffffffffffffffffffff1681526020019081526020015f2054905092915050565b7f65d7a28e3265b37a6474929f336521b332c1681b933f6cb9f3376673440d862a81565b611121613216565b61112b8383611bfb565b905092915050565b5f81836111409190613c34565b905092915050565b5f81836111559190613c81565b905092915050565b5f7f7965db0b000000000000000000000000000000000000000000000000000000007bffffffffffffffffffffffffffffffffffffffffffffffffffffffff1916827bffffffffffffffffffffffffffffffffffffffffffffffffffffffff191614806111cf57506111ce82611c5a565b5b9050919050565b5f33905090565b6111ea8383836001611cc3565b505050565b5f6111fa8484611073565b90507fffffffffffffffffffffffffffffffffffffffffffffffffffffffffffffffff81101561127c578181101561126d578281836040517ffb8f41b200000000000000000000000000000000000000000000000000000000815260040161126493929190613cce565b60405180910390fd5b61127b84848484035f611cc3565b5b50505050565b5f73ffffffffffffffffffffffffffffffffffffffff168373ffffffffffffffffffffffffffffffffffffffff16036112f2575f6040517f96c6fd1e0000000000000000000000000000000000000000000000000000000081526004016112e9919061360e565b60405180910390fd5b5f73ffffffffffffffffffffffffffffffffffffffff168273ffffffffffffffffffffffffffffffffffffffff1603611362575f6040517fec442f05000000000000000000000000000000000000000000000000000000008152600401611359919061360e565b60405180910390fd5b61136d838383611e92565b505050565b6113838161137e6111d6565b611ea2565b50565b5f6113918383610c90565b611466576001600c5f8581526020019081526020015f205f015f8473ffffffffffffffffffffffffffffffffffffffff1673ffffffffffffffffffffffffffffffffffffffff1681526020019081526020015f205f6101000a81548160ff0219169083151502179055506114036111d6565b73ffffffffffffffffffffffffffffffffffffffff168273ffffffffffffffffffffffffffffffffffffffff16847f2f8788117e7eff1d82e926ec794901d17c78024a50270940304540a733656f0d60405160405180910390a46001905061146a565b5f90505b92915050565b5f7f000000000000000000000000000000000000000000000000000000000000000073ffffffffffffffffffffffffffffffffffffffff163073ffffffffffffffffffffffffffffffffffffffff161480156114eb57507f000000000000000000000000000000000000000000000000000000000000000046145b15611518577f00000000000000000000000000000000000000000000000000000000000000009050611523565b611520611ef3565b90505b90565b5f6115318383610c90565b15611606575f600c5f8581526020019081526020015f205f015f8473ffffffffffffffffffffffffffffffffffffffff1673ffffffffffffffffffffffffffffffffffffffff1681526020019081526020015f205f6101000a81548160ff0219169083151502179055506115a36111d6565b73ffffffffffffffffffffffffffffffffffffffff168273ffffffffffffffffffffffffffffffffffffffff16847ff6391f5c32d9c69d2a47ea670b442974b53935d1edc7fd64eb21e047a839171b60405160405180910390a46001905061160a565b5f90505b92915050565b5f5f61161a610cf4565b90508065ffffffffffff16831061166a5782816040517fecd3f81e000000000000000000000000000000000000000000000000000000008152600401611661929190613d03565b60405180910390fd5b61167383611f88565b915050919050565b5f5f835f018054905090505f5f90505f82905060058311156116ff575f6116a184611fe1565b846116ac9190613d2a565b90506116ba875f018261217b565b5f015f9054906101000a900465ffffffffffff1665ffffffffffff168665ffffffffffff1610156116ed578091506116fd565b6001816116fa9190613d5d565b92505b505b5f61170e875f0187858561218d565b90505f811461175d5761172f875f0160018361172a9190613d2a565b61217b565b5f0160069054906101000a900479ffffffffffffffffffffffffffffffffffffffffffffffffffff1661175f565b5f5b94505050505092915050565b611773612202565b5f60055f6101000a81548160ff0219169083151502179055507f5db9ee0a495bf2e6ff9c91a7834c1ba4fdd244a5e8aa4e537bd38aeae4b073aa6117b56111d6565b6040516117c2919061360e565b60405180910390a1565b5f73ffffffffffffffffffffffffffffffffffffffff168273ffffffffffffffffffffffffffffffffffffffff160361183c575f6040517fec442f05000000000000000000000000000000000000000000000000000000008152600401611833919061360e565b60405180910390fd5b6118475f8383611e92565b5050565b5f61185543611f88565b905090565b5f61186483610a7c565b90508160095f8573ffffffffffffffffffffffffffffffffffffffff1673ffffffffffffffffffffffffffffffffffffffff1681526020019081526020015f205f6101000a81548173ffffffffffffffffffffffffffffffffffffffff021916908373ffffffffffffffffffffffffffffffffffffffff1602179055508173ffffffffffffffffffffffffffffffffffffffff168173ffffffffffffffffffffffffffffffffffffffff168473ffffffffffffffffffffffffffffffffffffffff167f3134e8a2e6d97e929a7e54011ea5485d7d196dd5f0ba4d4ef95803e8e3fc257f60405160405180910390a4611965818361196086612242565b612253565b505050565b5f6119b86119b3600a5f8573ffffffffffffffffffffffffffffffffffffffff1673ffffffffffffffffffffffffffffffffffffffff1681526020019081526020015f206124c3565b6124d2565b9050919050565b5f6119c982612529565b9050919050565b6119d861256f565b600160055f6101000a81548160ff0219169083151502179055507f62e78cea01bee320cd4e420270b5ea74000d11b0c9f74754ebdbfc544b05a258611a1b6111d6565b604051611a28919061360e565b60405180910390a1565b6060611a6860067f00000000000000000000000000000000000000000000000000000000000000006125b090919063ffffffff16565b905090565b6060611aa360077f00000000000000000000000000000000000000000000000000000000000000006125b090919063ffffffff16565b905090565b5f5f825f018054905090505f8114611b0057611ad2835f01600183611acd9190613d2a565b61217b565b5f0160069054906101000a900479ffffffffffffffffffffffffffffffffffffffffffffffffffff16611b02565b5f5b915050919050565b5f611b1c611b16611470565b8361265d565b9050919050565b5f5f5f5f611b338888888861269d565b925092509250611b438282612784565b829350505050949350505050565b5f611b5b83611ba8565b9050808214611ba35782816040517f752d88c0000000000000000000000000000000000000000000000000000000008152600401611b9a929190613d90565b60405180910390fd5b505050565b5f60085f8373ffffffffffffffffffffffffffffffffffffffff1673ffffffffffffffffffffffffffffffffffffffff1681526020019081526020015f205f815480929190600101919050559050919050565b611c03613216565b611c5282600a5f8673ffffffffffffffffffffffffffffffffffffffff1673ffffffffffffffffffffffffffffffffffffffff1681526020019081526020015f206128e690919063ffffffff16565b905092915050565b5f7f01ffc9a7000000000000000000000000000000000000000000000000000000007bffffffffffffffffffffffffffffffffffffffffffffffffffffffff1916827bffffffffffffffffffffffffffffffffffffffffffffffffffffffff1916149050919050565b5f73ffffffffffffffffffffffffffffffffffffffff168473ffffffffffffffffffffffffffffffffffffffff1603611d33575f6040517fe602df05000000000000000000000000000000000000000000000000000000008152600401611d2a919061360e565b60405180910390fd5b5f73ffffffffffffffffffffffffffffffffffffffff168373ffffffffffffffffffffffffffffffffffffffff1603611da3575f6040517f94280d62000000000000000000000000000000000000000000000000000000008152600401611d9a919061360e565b60405180910390fd5b8160015f8673ffffffffffffffffffffffffffffffffffffffff1673ffffffffffffffffffffffffffffffffffffffff1681526020019081526020015f205f8573ffffffffffffffffffffffffffffffffffffffff1673ffffffffffffffffffffffffffffffffffffffff1681526020019081526020015f20819055508015611e8c578273ffffffffffffffffffffffffffffffffffffffff168473ffffffffffffffffffffffffffffffffffffffff167f8c5be1e5ebec7d5bd14f71427d1e84f3dd0314c0f7b2291e5b200ac8c7c3b92584604051611e839190613473565b60405180910390a35b50505050565b611e9d8383836129b5565b505050565b611eac8282610c90565b611eef5780826040517fe2517d3f000000000000000000000000000000000000000000000000000000008152600401611ee6929190613db7565b60405180910390fd5b5050565b5f7f8b73c3c69bb8fe3d512ecc4cf759cc79239f7b179b0ffacaa9a75d522b39400f7f00000000000000000000000000000000000000000000000000000000000000007f00000000000000000000000000000000000000000000000000000000000000004630604051602001611f6d959493929190613dde565b60405160208183030381529060405280519060200120905090565b5f65ffffffffffff8016821115611fd9576030826040517f6dfcc650000000000000000000000000000000000000000000000000000000008152600401611fd0929190613e71565b60405180910390fd5b819050919050565b5f60018211611ff257819050612176565b5f8290505f60019050700100000000000000000000000000000000821061202257608082901c9150604081901b90505b68010000000000000000821061204157604082901c9150602081901b90505b640100000000821061205c57602082901c9150601081901b90505b62010000821061207557601082901c9150600881901b90505b610100821061208d57600882901c9150600481901b90505b601082106120a457600482901c9150600281901b90505b600482106120b457600181901b90505b600181600302901c905060018185816120d0576120cf613e98565b5b048201901c905060018185816120e9576120e8613e98565b5b048201901c9050600181858161210257612101613e98565b5b048201901c9050600181858161211b5761211a613e98565b5b048201901c9050600181858161213457612133613e98565b5b048201901c9050600181858161214d5761214c613e98565b5b048201901c905061216f81858161216757612166613e98565b5b048211612a63565b8103925050505b919050565b5f825f528160205f2001905092915050565b5f5b818310156121f7575f6121a28484612a6e565b90508465ffffffffffff166121b7878361217b565b5f015f9054906101000a900465ffffffffffff1665ffffffffffff1611156121e1578092506121f1565b6001816121ee9190613d5d565b93505b5061218f565b819050949350505050565b61220a610afa565b612240576040517f8dfc202b00000000000000000000000000000000000000000000000000000000815260040160405180910390fd5b565b5f61224c82610b20565b9050919050565b8173ffffffffffffffffffffffffffffffffffffffff168373ffffffffffffffffffffffffffffffffffffffff161415801561228e57505f81115b156124be575f73ffffffffffffffffffffffffffffffffffffffff168373ffffffffffffffffffffffffffffffffffffffff16146123a8575f5f612319600a5f8773ffffffffffffffffffffffffffffffffffffffff1673ffffffffffffffffffffffffffffffffffffffff1681526020019081526020015f2061114861231486612a8f565b612afc565b79ffffffffffffffffffffffffffffffffffffffffffffffffffff16915079ffffffffffffffffffffffffffffffffffffffffffffffffffff1691508473ffffffffffffffffffffffffffffffffffffffff167fdec2bacdd2f05b59de34da9b523dff8be42e5e38e818c82fdb0bae774387a724838360405161239d929190613ec5565b60405180910390a250505b5f73ffffffffffffffffffffffffffffffffffffffff168273ffffffffffffffffffffffffffffffffffffffff16146124bd575f5f61242e600a5f8673ffffffffffffffffffffffffffffffffffffffff1673ffffffffffffffffffffffffffffffffffffffff1681526020019081526020015f2061113361242986612a8f565b612afc565b79ffffffffffffffffffffffffffffffffffffffffffffffffffff16915079ffffffffffffffffffffffffffffffffffffffffffffffffffff1691508373ffffffffffffffffffffffffffffffffffffffff167fdec2bacdd2f05b59de34da9b523dff8be42e5e38e818c82fdb0bae774387a72483836040516124b2929190613ec5565b60405180910390a250505b5b505050565b5f815f01805490509050919050565b5f63ffffffff8016821115612521576020826040517f6dfcc650000000000000000000000000000000000000000000000000000000008152600401612518929190613f25565b60405180910390fd5b819050919050565b5f60085f8373ffffffffffffffffffffffffffffffffffffffff1673ffffffffffffffffffffffffffffffffffffffff1681526020019081526020015f20549050919050565b612577610afa565b156125ae576040517fd93c066500000000000000000000000000000000000000000000000000000000815260040160405180910390fd5b565b606060ff5f1b83146125cc576125c583612b3b565b9050612657565b8180546125d890613ae1565b80601f016020809104026020016040519081016040528092919081815260200182805461260490613ae1565b801561264f5780601f106126265761010080835404028352916020019161264f565b820191905f5260205f20905b81548152906001019060200180831161263257829003601f168201915b505050505090505b92915050565b5f6040517f190100000000000000000000000000000000000000000000000000000000000081528360028201528260228201526042812091505092915050565b5f5f5f7f7fffffffffffffffffffffffffffffff5d576e7357a4501ddfe92f46681b20a0845f1c11156126d9575f60038592509250925061277a565b5f6001888888886040515f81526020016040526040516126fc9493929190613f4c565b6020604051602081039080840390855afa15801561271c573d5f5f3e3d5ffd5b5050506020604051035190505f73ffffffffffffffffffffffffffffffffffffffff168173ffffffffffffffffffffffffffffffffffffffff160361276d575f60015f5f1b9350935093505061277a565b805f5f5f1b935093509350505b9450945094915050565b5f600381111561279757612796613f8f565b5b8260038111156127aa576127a9613f8f565b5b03156128e257600160038111156127c4576127c3613f8f565b5b8260038111156127d7576127d6613f8f565b5b0361280e576040517ff645eedf00000000000000000000000000000000000000000000000000000000815260040160405180910390fd5b6002600381111561282257612821613f8f565b5b82600381111561283557612834613f8f565b5b0361287957805f1c6040517ffce698f70000000000000000000000000000000000000000000000000000000081526004016128709190613473565b60405180910390fd5b60038081111561288c5761288b613f8f565b5b82600381111561289f5761289e613f8f565b5b036128e157806040517fd78bce0c0000000000000000000000000000000000000000000000000000000081526004016128d89190613549565b60405180910390fd5b5b5050565b6128ee613216565b825f018263ffffffff168154811061290957612908613fbc565b5b905f5260205f20016040518060400160405290815f82015f9054906101000a900465ffffffffffff1665ffffffffffff1665ffffffffffff1681526020015f820160069054906101000a900479ffffffffffffffffffffffffffffffffffffffffffffffffffff1679ffffffffffffffffffffffffffffffffffffffffffffffffffff1679ffffffffffffffffffffffffffffffffffffffffffffffffffff1681525050905092915050565b6129c0838383612bad565b5f73ffffffffffffffffffffffffffffffffffffffff168373ffffffffffffffffffffffffffffffffffffffff1603612a53575f6129fc6107f7565b90505f612a07612bc5565b905080821115612a505781816040517f1cb15d26000000000000000000000000000000000000000000000000000000008152600401612a47929190613ec5565b60405180910390fd5b50505b612a5e838383612be8565b505050565b5f8115159050919050565b5f600282841881612a8257612a81613e98565b5b0482841601905092915050565b5f79ffffffffffffffffffffffffffffffffffffffffffffffffffff8016821115612af45760d0826040517f6dfcc650000000000000000000000000000000000000000000000000000000008152600401612aeb929190614022565b60405180910390fd5b819050919050565b5f5f612b2f612b09610cf4565b612b1f612b1588611aa8565b868863ffffffff16565b87612ca09092919063ffffffff16565b91509150935093915050565b60605f612b4783612cbb565b90505f602067ffffffffffffffff811115612b6557612b64613b11565b5b6040519080825280601f01601f191660200182016040528015612b975781602001600182028036833780820191505090505b5090508181528360208201528092505050919050565b612bb561256f565b612bc0838383612d09565b505050565b5f79ffffffffffffffffffffffffffffffffffffffffffffffffffff8016905090565b5f73ffffffffffffffffffffffffffffffffffffffff168373ffffffffffffffffffffffffffffffffffffffff1603612c3457612c31600b611133612c2c84612a8f565b612afc565b50505b5f73ffffffffffffffffffffffffffffffffffffffff168273ffffffffffffffffffffffffffffffffffffffff1603612c8057612c7d600b611148612c7884612a8f565b612afc565b50505b612c9b612c8c84610a7c565b612c9584610a7c565b83612253565b505050565b5f5f612caf855f018585612f22565b91509150935093915050565b5f5f60ff835f1c169050601f811115612d00576040517fb3512b0c00000000000000000000000000000000000000000000000000000000815260040160405180910390fd5b80915050919050565b5f73ffffffffffffffffffffffffffffffffffffffff168373ffffffffffffffffffffffffffffffffffffffff1603612d59578060025f828254612d4d9190613d5d565b92505081905550612e27565b5f5f5f8573ffffffffffffffffffffffffffffffffffffffff1673ffffffffffffffffffffffffffffffffffffffff1681526020019081526020015f2054905081811015612de2578381836040517fe450d38c000000000000000000000000000000000000000000000000000000008152600401612dd993929190613cce565b60405180910390fd5b8181035f5f8673ffffffffffffffffffffffffffffffffffffffff1673ffffffffffffffffffffffffffffffffffffffff1681526020019081526020015f2081905550505b5f73ffffffffffffffffffffffffffffffffffffffff168273ffffffffffffffffffffffffffffffffffffffff1603612e6e578060025f8282540392505081905550612eb8565b805f5f8473ffffffffffffffffffffffffffffffffffffffff1673ffffffffffffffffffffffffffffffffffffffff1681526020019081526020015f205f82825401925050819055505b8173ffffffffffffffffffffffffffffffffffffffff168373ffffffffffffffffffffffffffffffffffffffff167fddf252ad1be2c89b69c2b068fc378daa952ba7f163c4a11628f55a4df523b3ef83604051612f159190613473565b60405180910390a3505050565b5f5f5f858054905090505f81111561312e575f612f4b87600184612f469190613d2a565b61217b565b90505f815f015f9054906101000a900465ffffffffffff1690505f825f0160069054906101000a900479ffffffffffffffffffffffffffffffffffffffffffffffffffff1690508765ffffffffffff168265ffffffffffff161115612fdc576040517f2520601d00000000000000000000000000000000000000000000000000000000815260040160405180910390fd5b8765ffffffffffff168265ffffffffffff16036130465786835f0160066101000a81548179ffffffffffffffffffffffffffffffffffffffffffffffffffff021916908379ffffffffffffffffffffffffffffffffffffffffffffffffffff16021790555061311f565b8860405180604001604052808a65ffffffffffff1681526020018979ffffffffffffffffffffffffffffffffffffffffffffffffffff16815250908060018154018082558091505060019003905f5260205f20015f909190919091505f820151815f015f6101000a81548165ffffffffffff021916908365ffffffffffff1602179055506020820151815f0160066101000a81548179ffffffffffffffffffffffffffffffffffffffffffffffffffff021916908379ffffffffffffffffffffffffffffffffffffffffffffffffffff16021790555050505b8087955095505050505061320e565b8560405180604001604052808765ffffffffffff1681526020018679ffffffffffffffffffffffffffffffffffffffffffffffffffff16815250908060018154018082558091505060019003905f5260205f20015f909190919091505f820151815f015f6101000a81548165ffffffffffff021916908365ffffffffffff1602179055506020820151815f0160066101000a81548179ffffffffffffffffffffffffffffffffffffffffffffffffffff021916908379ffffffffffffffffffffffffffffffffffffffffffffffffffff16021790555050505f8492509250505b935093915050565b60405180604001604052805f65ffffffffffff1681526020015f79ffffffffffffffffffffffffffffffffffffffffffffffffffff1681525090565b5f5ffd5b5f7fffffffff0000000000000000000000000000000000000000000000000000000082169050919050565b61328a81613256565b8114613294575f5ffd5b50565b5f813590506132a581613281565b92915050565b5f602082840312156132c0576132bf613252565b5b5f6132cd84828501613297565b91505092915050565b5f8115159050919050565b6132ea816132d6565b82525050565b5f6020820190506133035f8301846132e1565b92915050565b5f81519050919050565b5f82825260208201905092915050565b8281835e5f83830152505050565b5f601f19601f8301169050919050565b5f61334b82613309565b6133558185613313565b9350613365818560208601613323565b61336e81613331565b840191505092915050565b5f6020820190508181035f8301526133918184613341565b905092915050565b5f73ffffffffffffffffffffffffffffffffffffffff82169050919050565b5f6133c282613399565b9050919050565b6133d2816133b8565b81146133dc575f5ffd5b50565b5f813590506133ed816133c9565b92915050565b5f819050919050565b613405816133f3565b811461340f575f5ffd5b50565b5f81359050613420816133fc565b92915050565b5f5f6040838503121561343c5761343b613252565b5b5f613449858286016133df565b925050602061345a85828601613412565b9150509250929050565b61346d816133f3565b82525050565b5f6020820190506134865f830184613464565b92915050565b5f5f5f606084860312156134a3576134a2613252565b5b5f6134b0868287016133df565b93505060206134c1868287016133df565b92505060406134d286828701613412565b9150509250925092565b5f819050919050565b6134ee816134dc565b81146134f8575f5ffd5b50565b5f81359050613509816134e5565b92915050565b5f6020828403121561352457613523613252565b5b5f613531848285016134fb565b91505092915050565b613543816134dc565b82525050565b5f60208201905061355c5f83018461353a565b92915050565b5f5f6040838503121561357857613577613252565b5b5f613585858286016134fb565b9250506020613596858286016133df565b9150509250929050565b5f60ff82169050919050565b6135b5816135a0565b82525050565b5f6020820190506135ce5f8301846135ac565b92915050565b5f602082840312156135e9576135e8613252565b5b5f6135f6848285016133df565b91505092915050565b613608816133b8565b82525050565b5f6020820190506136215f8301846135ff565b92915050565b5f63ffffffff82169050919050565b61363f81613627565b82525050565b5f6020820190506136585f830184613636565b92915050565b5f7fff0000000000000000000000000000000000000000000000000000000000000082169050919050565b6136928161365e565b82525050565b5f81519050919050565b5f82825260208201905092915050565b5f819050602082019050919050565b6136ca816133f3565b82525050565b5f6136db83836136c1565b60208301905092915050565b5f602082019050919050565b5f6136fd82613698565b61370781856136a2565b9350613712836136b2565b805f5b8381101561374257815161372988826136d0565b9750613734836136e7565b925050600181019050613715565b5085935050505092915050565b5f60e0820190506137625f83018a613689565b81810360208301526137748189613341565b905081810360408301526137888188613341565b90506137976060830187613464565b6137a460808301866135ff565b6137b160a083018561353a565b81810360c08301526137c381846136f3565b905098975050505050505050565b5f602082840312156137e6576137e5613252565b5b5f6137f384828501613412565b91505092915050565b5f65ffffffffffff82169050919050565b613816816137fc565b82525050565b5f60208201905061382f5f83018461380d565b92915050565b61383e816135a0565b8114613848575f5ffd5b50565b5f8135905061385981613835565b92915050565b5f5f5f5f5f5f60c0878903121561387957613878613252565b5b5f61388689828a016133df565b965050602061389789828a01613412565b95505060406138a889828a01613412565b94505060606138b989828a0161384b565b93505060806138ca89828a016134fb565b92505060a06138db89828a016134fb565b9150509295509295509295565b5f5f5f5f5f5f5f60e0888a03121561390357613902613252565b5b5f6139108a828b016133df565b97505060206139218a828b016133df565b96505060406139328a828b01613412565b95505060606139438a828b01613412565b94505060806139548a828b0161384b565b93505060a06139658a828b016134fb565b92505060c06139768a828b016134fb565b91505092959891949750929550565b5f5f6040838503121561399b5761399a613252565b5b5f6139a8858286016133df565b92505060206139b9858286016133df565b9150509250929050565b6139cc81613627565b81146139d6575f5ffd5b50565b5f813590506139e7816139c3565b92915050565b5f5f60408385031215613a0357613a02613252565b5b5f613a10858286016133df565b9250506020613a21858286016139d9565b9150509250929050565b613a34816137fc565b82525050565b5f79ffffffffffffffffffffffffffffffffffffffffffffffffffff82169050919050565b613a6881613a3a565b82525050565b604082015f820151613a825f850182613a2b565b506020820151613a956020850182613a5f565b50505050565b5f604082019050613aae5f830184613a6e565b92915050565b7f4e487b71000000000000000000000000000000000000000000000000000000005f52602260045260245ffd5b5f6002820490506001821680613af857607f821691505b602082108103613b0b57613b0a613ab4565b5b50919050565b7f4e487b71000000000000000000000000000000000000000000000000000000005f52604160045260245ffd5b5f608082019050613b515f83018761353a565b613b5e60208301866135ff565b613b6b6040830185613464565b613b786060830184613464565b95945050505050565b5f60c082019050613b945f83018961353a565b613ba160208301886135ff565b613bae60408301876135ff565b613bbb6060830186613464565b613bc86080830185613464565b613bd560a0830184613464565b979650505050505050565b5f604082019050613bf35f8301856135ff565b613c0060208301846135ff565b9392505050565b7f4e487b71000000000000000000000000000000000000000000000000000000005f52601160045260245ffd5b5f613c3e82613a3a565b9150613c4983613a3a565b9250828201905079ffffffffffffffffffffffffffffffffffffffffffffffffffff811115613c7b57613c7a613c07565b5b92915050565b5f613c8b82613a3a565b9150613c9683613a3a565b9250828203905079ffffffffffffffffffffffffffffffffffffffffffffffffffff811115613cc857613cc7613c07565b5b92915050565b5f606082019050613ce15f8301866135ff565b613cee6020830185613464565b613cfb6040830184613464565b949350505050565b5f604082019050613d165f830185613464565b613d23602083018461380d565b9392505050565b5f613d34826133f3565b9150613d3f836133f3565b9250828203905081811115613d5757613d56613c07565b5b92915050565b5f613d67826133f3565b9150613d72836133f3565b9250828201905080821115613d8a57613d89613c07565b5b92915050565b5f604082019050613da35f8301856135ff565b613db06020830184613464565b9392505050565b5f604082019050613dca5f8301856135ff565b613dd7602083018461353a565b9392505050565b5f60a082019050613df15f83018861353a565b613dfe602083018761353a565b613e0b604083018661353a565b613e186060830185613464565b613e2560808301846135ff565b9695505050505050565b5f819050919050565b5f819050919050565b5f613e5b613e56613e5184613e2f565b613e38565b6135a0565b9050919050565b613e6b81613e41565b82525050565b5f604082019050613e845f830185613e62565b613e916020830184613464565b9392505050565b7f4e487b71000000000000000000000000000000000000000000000000000000005f52601260045260245ffd5b5f604082019050613ed85f830185613464565b613ee56020830184613464565b9392505050565b5f819050919050565b5f613f0f613f0a613f0584613eec565b613e38565b6135a0565b9050919050565b613f1f81613ef5565b82525050565b5f604082019050613f385f830185613f16565b613f456020830184613464565b9392505050565b5f608082019050613f5f5f83018761353a565b613f6c60208301866135ac565b613f79604083018561353a565b613f86606083018461353a565b95945050505050565b7f4e487b71000000000000000000000000000000000000000000000000000000005f52602160045260245ffd5b7f4e487b71000000000000000000000000000000000000000000000000000000005f52603260045260245ffd5b5f819050919050565b5f61400c61400761400284613fe9565b613e38565b6135a0565b9050919050565b61401c81613ff2565b82525050565b5f6040820190506140355f830185614013565b6140426020830184613464565b939250505056fea26469706673582212201f30f41d89f27ad60e03700c4c1883be9f7576d2ee6e01b8006201a5e87f975c64736f6c634300081c0033",
  "linkReferences": {},
  "deployedLinkReferences": {}
}