{
  "_format": "hh-sol-artifact-1",
  "contractName": "DAOFactory",
  "sourceName": "contracts/DAOFactory.sol",
  "abi": [
    {
      "anonymous": false,
      "inputs": [
        {
          "indexed": true,
          "internalType": "address",
          "name": "daoAddress",
          "type": "address"
        },
        {
          "indexed": true,
          "internalType": "address",
          "name": "treasuryAddress",
          "type": "address"
        },
        {
          "indexed": false,
          "internalType": "string",
          "name": "name",
          "type": "string"
        },
        {
          "indexed": true,
          "internalType": "address",
          "name": "tokenAddress",
          "type": "address"
        },
        {
          "indexed": false,
          "internalType": "uint256",
          "name": "proposalThreshold",
          "type": "uint256"
        },
        {
          "indexed": false,
          "internalType": "uint256",
          "name": "timelockDelay",
          "type": "uint256"
        },
        {
          "indexed": false,
          "internalType": "uint256",
          "name": "quorumPercentage",
          "type": "uint256"
        },
        {
          "indexed": false,
          "internalType": "address",
          "name": "creator",
          "type": "address"
        }
      ],
      "name": "DAOCreated",
      "type": "event"
    },
    {
      "inputs": [
        {
          "internalType": "string",
          "name": "_name",
          "type": "string"
        },
        {
          "internalType": "address",
          "name": "_tokenAddress",
          "type": "address"
        },
        {
          "internalType": "uint256",
          "name": "_proposalThreshold",
          "type": "uint256"
        },
        {
          "internalType": "uint256",
          "name": "_timelockDelay",
          "type": "uint256"
        },
        {
          "internalType": "uint256",
          "name": "_quorumPercentage",
          "type": "uint256"
        }
      ],
      "name": "createDAO",
      "outputs": [
        {
          "internalType": "address",
          "name": "",
          "type": "address"
        }
      ],
      "stateMutability": "nonpayable",
      "type": "function"
    },
    {
      "inputs": [
        {
          "internalType": "uint256",
          "name": "",
          "type": "uint256"
        }
      ],
      "name": "deployedDAOs",
      "outputs": [
        {
          "internalType": "address",
          "name": "",
          "type": "address"
        }
      ],
      "stateMutability": "view",
      "type": "function"
    },
    {
      "inputs": [],
      "name": "getDeployedDAOs",
      "outputs": [
        {
          "internalType": "address[]",
          "name": "",
          "type": "address[]"
        }
      ],
      "stateMutability": "view",
      "type": "function"
    }
  ],
  "bytecode": "0x6080604052348015600e575f5ffd5b50614d2a8061001c5f395ff3fe608060405234801561000f575f5ffd5b506004361061003f575f3560e01c806319e0b28814610043578063aa41d4d514610073578063c43965cf146100a3575b5f5ffd5b61005d60048036038101906100589190610374565b6100c1565b60405161006a91906103de565b60405180910390f35b61008d6004803603810190610088919061055d565b6100fb565b60405161009a91906103de565b60405180910390f35b6100ab610299565b6040516100b891906106a7565b60405180910390f35b5f81815481106100cf575f80fd5b905f5260205f20015f915054906101000a900473ffffffffffffffffffffffffffffffffffffffff1681565b5f5f868686868660405161010e90610323565b61011c959493929190610736565b604051809103905ff080158015610135573d5f5f3e3d5ffd5b5090505f8190505f81908060018154018082558091505060019003905f5260205f20015f9091909190916101000a81548173ffffffffffffffffffffffffffffffffffffffff021916908373ffffffffffffffffffffffffffffffffffffffff1602179055508673ffffffffffffffffffffffffffffffffffffffff168273ffffffffffffffffffffffffffffffffffffffff166361d027b36040518163ffffffff1660e01b8152600401602060405180830381865afa1580156101fb573d5f5f3e3d5ffd5b505050506040513d601f19601f8201168201806040525081019061021f91906107da565b73ffffffffffffffffffffffffffffffffffffffff168273ffffffffffffffffffffffffffffffffffffffff167fafcf0eab68967fa34481a9e69a097bc91e5dbfca5c1988688b0c7cb65ac63f798b8a8a8a33604051610283959493929190610805565b60405180910390a4809250505095945050505050565b60605f80548060200260200160405190810160405280929190818152602001828054801561031957602002820191905f5260205f20905b815f9054906101000a900473ffffffffffffffffffffffffffffffffffffffff1673ffffffffffffffffffffffffffffffffffffffff16815260200190600101908083116102d0575b5050505050905090565b6144978061085e83390190565b5f604051905090565b5f5ffd5b5f5ffd5b5f819050919050565b61035381610341565b811461035d575f5ffd5b50565b5f8135905061036e8161034a565b92915050565b5f6020828403121561038957610388610339565b5b5f61039684828501610360565b91505092915050565b5f73ffffffffffffffffffffffffffffffffffffffff82169050919050565b5f6103c88261039f565b9050919050565b6103d8816103be565b82525050565b5f6020820190506103f15f8301846103cf565b92915050565b5f5ffd5b5f5ffd5b5f601f19601f8301169050919050565b7f4e487b71000000000000000000000000000000000000000000000000000000005f52604160045260245ffd5b610445826103ff565b810181811067ffffffffffffffff821117156104645761046361040f565b5b80604052505050565b5f610476610330565b9050610482828261043c565b919050565b5f67ffffffffffffffff8211156104a1576104a061040f565b5b6104aa826103ff565b9050602081019050919050565b828183375f83830152505050565b5f6104d76104d284610487565b61046d565b9050828152602081018484840111156104f3576104f26103fb565b5b6104fe8482856104b7565b509392505050565b5f82601f83011261051a576105196103f7565b5b813561052a8482602086016104c5565b91505092915050565b61053c816103be565b8114610546575f5ffd5b50565b5f8135905061055781610533565b92915050565b5f5f5f5f5f60a0868803121561057657610575610339565b5b5f86013567ffffffffffffffff8111156105935761059261033d565b5b61059f88828901610506565b95505060206105b088828901610549565b94505060406105c188828901610360565b93505060606105d288828901610360565b92505060806105e388828901610360565b9150509295509295909350565b5f81519050919050565b5f82825260208201905092915050565b5f819050602082019050919050565b610622816103be565b82525050565b5f6106338383610619565b60208301905092915050565b5f602082019050919050565b5f610655826105f0565b61065f81856105fa565b935061066a8361060a565b805f5b8381101561069a5781516106818882610628565b975061068c8361063f565b92505060018101905061066d565b5085935050505092915050565b5f6020820190508181035f8301526106bf818461064b565b905092915050565b5f81519050919050565b5f82825260208201905092915050565b8281835e5f83830152505050565b5f6106f9826106c7565b61070381856106d1565b93506107138185602086016106e1565b61071c816103ff565b840191505092915050565b61073081610341565b82525050565b5f60a0820190508181035f83015261074e81886106ef565b905061075d60208301876103cf565b61076a6040830186610727565b6107776060830185610727565b6107846080830184610727565b9695505050505050565b5f6107988261039f565b9050919050565b5f6107a98261078e565b9050919050565b6107b98161079f565b81146107c3575f5ffd5b50565b5f815190506107d4816107b0565b92915050565b5f602082840312156107ef576107ee610339565b5b5f6107fc848285016107c6565b91505092915050565b5f60a0820190508181035f83015261081d81886106ef565b905061082c6020830187610727565b6108396040830186610727565b6108466060830185610727565b61085360808301846103cf565b969550505050505056fe608060405234801561000f575f5ffd5b50604051614497380380614497833981810160405281019061003191906102f1565b845f908161003f919061058b565b508360025f6101000a81548173ffffffffffffffffffffffffffffffffffffffff021916908373ffffffffffffffffffffffffffffffffffffffff1602179055508260048190555080600581905550308260405161009c9061010a565b6100a7929190610678565b604051809103905ff0801580156100c0573d5f5f3e3d5ffd5b5060035f6101000a81548173ffffffffffffffffffffffffffffffffffffffff021916908373ffffffffffffffffffffffffffffffffffffffff160217905550505050505061069f565b6111a6806132f183390190565b5f604051905090565b5f5ffd5b5f5ffd5b5f5ffd5b5f5ffd5b5f601f19601f8301169050919050565b7f4e487b71000000000000000000000000000000000000000000000000000000005f52604160045260245ffd5b61017682610130565b810181811067ffffffffffffffff8211171561019557610194610140565b5b80604052505050565b5f6101a7610117565b90506101b3828261016d565b919050565b5f67ffffffffffffffff8211156101d2576101d1610140565b5b6101db82610130565b9050602081019050919050565b8281835e5f83830152505050565b5f610208610203846101b8565b61019e565b9050828152602081018484840111156102245761022361012c565b5b61022f8482856101e8565b509392505050565b5f82601f83011261024b5761024a610128565b5b815161025b8482602086016101f6565b91505092915050565b5f73ffffffffffffffffffffffffffffffffffffffff82169050919050565b5f61028d82610264565b9050919050565b61029d81610283565b81146102a7575f5ffd5b50565b5f815190506102b881610294565b92915050565b5f819050919050565b6102d0816102be565b81146102da575f5ffd5b50565b5f815190506102eb816102c7565b92915050565b5f5f5f5f5f60a0868803121561030a57610309610120565b5b5f86015167ffffffffffffffff81111561032757610326610124565b5b61033388828901610237565b9550506020610344888289016102aa565b9450506040610355888289016102dd565b9350506060610366888289016102dd565b9250506080610377888289016102dd565b9150509295509295909350565b5f81519050919050565b7f4e487b71000000000000000000000000000000000000000000000000000000005f52602260045260245ffd5b5f60028204905060018216806103d257607f821691505b6020821081036103e5576103e461038e565b5b50919050565b5f819050815f5260205f209050919050565b5f6020601f8301049050919050565b5f82821b905092915050565b5f600883026104477fffffffffffffffffffffffffffffffffffffffffffffffffffffffffffffffff8261040c565b610451868361040c565b95508019841693508086168417925050509392505050565b5f819050919050565b5f61048c610487610482846102be565b610469565b6102be565b9050919050565b5f819050919050565b6104a583610472565b6104b96104b182610493565b848454610418565b825550505050565b5f5f905090565b6104d06104c1565b6104db81848461049c565b505050565b5b818110156104fe576104f35f826104c8565b6001810190506104e1565b5050565b601f82111561054357610514816103eb565b61051d846103fd565b8101602085101561052c578190505b610540610538856103fd565b8301826104e0565b50505b505050565b5f82821c905092915050565b5f6105635f1984600802610548565b1980831691505092915050565b5f61057b8383610554565b9150826002028217905092915050565b61059482610384565b67ffffffffffffffff8111156105ad576105ac610140565b5b6105b782546103bb565b6105c2828285610502565b5f60209050601f8311600181146105f3575f84156105e1578287015190505b6105eb8582610570565b865550610652565b601f198416610601866103eb565b5f5b8281101561062857848901518255600182019150602085019450602081019050610603565b868310156106455784890151610641601f891682610554565b8355505b6001600288020188555050505b505050505050565b61066381610283565b82525050565b610672816102be565b82525050565b5f60408201905061068b5f83018561065a565b6106986020830184610669565b9392505050565b612c45806106ac5f395ff3fe608060405234801561000f575f5ffd5b50600436106100cd575f3560e01c80635652077c1161008a578063b384abef11610064578063b384abef14610211578063b58131b01461022d578063c7f758a81461024b578063da35c66414610284576100cd565b80635652077c146101b957806361d027b3146101d5578063b2491e67146101f3576100cd565b806306fdde03146100d15780630d61b519146100ef57806310c6f4ab1461010b5780631df787841461013b578063438596321461016b5780634fa76ec91461019b575b5f5ffd5b6100d96102a2565b6040516100e691906115e0565b60405180910390f35b61010960048036038101906101049190611644565b61032d565b005b610125600480360381019061012091906118d7565b61080c565b6040516101329190611995565b60405180910390f35b610155600480360381019061015091906119ae565b6108d5565b6040516101629190611995565b60405180910390f35b61018560048036038101906101809190611a71565b6108ec565b6040516101929190611ac9565b60405180910390f35b6101a3610916565b6040516101b09190611995565b60405180910390f35b6101d360048036038101906101ce9190611644565b61091c565b005b6101dd610aa7565b6040516101ea9190611b3d565b60405180910390f35b6101fb610acc565b6040516102089190611b87565b60405180910390f35b61022b60048036038101906102269190611ba0565b610af1565b005b610235610e83565b6040516102429190611995565b60405180910390f35b61026560048036038101906102609190611644565b610e89565b60405161027b9a99989796959493929190611da7565b60405180910390f35b61028c61113b565b6040516102999190611995565b60405180910390f35b5f80546102ae90611e83565b80601f01602080910402602001604051908101604052809291908181526020018280546102da90611e83565b80156103255780601f106102fc57610100808354040283529160200191610325565b820191905f5260205f20905b81548152906001019060200180831161030857829003601f168201915b505050505081565b5f8111801561033e57506001548111155b61037d576040517f08c379a000000000000000000000000000000000000000000000000000000000815260040161037490611efd565b60405180910390fd5b5f60065f8381526020019081526020015f209050806004015442116103d7576040517f08c379a00000000000000000000000000000000000000000000000000000000081526004016103ce90611f65565b60405180910390fd5b806005015f9054906101000a900460ff1615610428576040517f08c379a000000000000000000000000000000000000000000000000000000000815260040161041f90611fcd565b60405180910390fd5b5f816007015f8154811061043f5761043e611feb565b5b905f5260205f20015490505f8190505f600190505b83600701805490508110156104fd5783600701818154811061047957610478611feb565b5b905f5260205f2001548310156104c4576040517f08c379a00000000000000000000000000000000000000000000000000000000081526004016104bb90612062565b60405180910390fd5b8360070181815481106104da576104d9611feb565b5b905f5260205f200154826104ee91906120ad565b91508080600101915050610454565b505f8211610540576040517f08c379a00000000000000000000000000000000000000000000000000000000081526004016105379061212a565b60405180910390fd5b5f60025f9054906101000a900473ffffffffffffffffffffffffffffffffffffffff1673ffffffffffffffffffffffffffffffffffffffff16638e539e8c85600301546040518263ffffffff1660e01b815260040161059f9190611995565b602060405180830381865afa1580156105ba573d5f5f3e3d5ffd5b505050506040513d601f19601f820116820180604052508101906105de919061215c565b90505f6064600554836105f19190612187565b6105fb91906121f5565b905080831015610640576040517f08c379a00000000000000000000000000000000000000000000000000000000081526004016106379061226f565b60405180910390fd5b6001856005015f6101000a81548160ff0219169083151502179055505f73ffffffffffffffffffffffffffffffffffffffff16856008015f9054906101000a900473ffffffffffffffffffffffffffffffffffffffff1673ffffffffffffffffffffffffffffffffffffffff16141580156106be57505f8560090154115b156107cd575f60035f9054906101000a900473ffffffffffffffffffffffffffffffffffffffff1673ffffffffffffffffffffffffffffffffffffffff1663542250cc876008015f9054906101000a900473ffffffffffffffffffffffffffffffffffffffff1688600901546040518363ffffffff1660e01b81526004016107479291906122ad565b6020604051808303815f875af1158015610763573d5f5f3e3d5ffd5b505050506040513d601f19601f820116820180604052508101906107879190612307565b90508086600a01819055507f025b0c83fe178c6c2484be14bc8ffaaadb46e5136f7aba5e4fa7059edcd7161a87826040516107c3929190612341565b60405180910390a1505b7f712ae1383f79ac853f8d882153778e0260ef8f03b504e2866e0593e04d2b291f866040516107fc9190611995565b60405180910390a1505050505050565b5f5f73ffffffffffffffffffffffffffffffffffffffff168373ffffffffffffffffffffffffffffffffffffffff160361087b576040517f08c379a0000000000000000000000000000000000000000000000000000000008152600401610872906123b2565b60405180910390fd5b5f82116108bd576040517f08c379a00000000000000000000000000000000000000000000000000000000081526004016108b49061241a565b60405180910390fd5b6108ca8686868686611141565b905095945050505050565b5f6108e38484845f5f611141565b90509392505050565b6007602052815f5260405f20602052805f5260405f205f915091509054906101000a900460ff1681565b60055481565b5f8111801561092d57506001548111155b61096c576040517f08c379a000000000000000000000000000000000000000000000000000000000815260040161096390611efd565b60405180910390fd5b5f60065f8381526020019081526020015f209050806005015f9054906101000a900460ff166109d0576040517f08c379a00000000000000000000000000000000000000000000000000000000081526004016109c7906124a8565b60405180910390fd5b5f5f1b81600a015403610a18576040517f08c379a0000000000000000000000000000000000000000000000000000000008152600401610a0f90612510565b60405180910390fd5b60035f9054906101000a900473ffffffffffffffffffffffffffffffffffffffff1673ffffffffffffffffffffffffffffffffffffffff1663c69ed5f282600a01546040518263ffffffff1660e01b8152600401610a76919061252e565b5f604051808303815f87803b158015610a8d575f5ffd5b505af1158015610a9f573d5f5f3e3d5ffd5b505050505050565b60035f9054906101000a900473ffffffffffffffffffffffffffffffffffffffff1681565b60025f9054906101000a900473ffffffffffffffffffffffffffffffffffffffff1681565b5f82118015610b0257506001548211155b610b41576040517f08c379a0000000000000000000000000000000000000000000000000000000008152600401610b3890611efd565b60405180910390fd5b5f60065f8481526020019081526020015f20905080600301544311610b9b576040517f08c379a0000000000000000000000000000000000000000000000000000000008152600401610b92906125b7565b60405180910390fd5b8060040154421115610be2576040517f08c379a0000000000000000000000000000000000000000000000000000000008152600401610bd99061261f565b60405180910390fd5b60075f8481526020019081526020015f205f3373ffffffffffffffffffffffffffffffffffffffff1673ffffffffffffffffffffffffffffffffffffffff1681526020019081526020015f205f9054906101000a900460ff1615610c7b576040517f08c379a0000000000000000000000000000000000000000000000000000000008152600401610c7290612687565b60405180910390fd5b80600601805490508210610cc4576040517f08c379a0000000000000000000000000000000000000000000000000000000008152600401610cbb906126ef565b60405180910390fd5b5f60025f9054906101000a900473ffffffffffffffffffffffffffffffffffffffff1673ffffffffffffffffffffffffffffffffffffffff16633a46b1a83384600301546040518363ffffffff1660e01b8152600401610d2592919061270d565b602060405180830381865afa158015610d40573d5f5f3e3d5ffd5b505050506040513d601f19601f82011682018060405250810190610d64919061215c565b90505f8111610da8576040517f08c379a0000000000000000000000000000000000000000000000000000000008152600401610d9f9061277e565b60405180910390fd5b600160075f8681526020019081526020015f205f3373ffffffffffffffffffffffffffffffffffffffff1673ffffffffffffffffffffffffffffffffffffffff1681526020019081526020015f205f6101000a81548160ff02191690831515021790555080826007018481548110610e2357610e22611feb565b5b905f5260205f20015f828254610e3991906120ad565b925050819055507f0271f53eebbe20450d9578f28ec279231556c34545b30e2278d754ffd39cd63c84338584604051610e75949392919061279c565b60405180910390a150505050565b60045481565b5f5f60605f5f5f6060805f5f5f8b118015610ea657506001548b11155b610ee5576040517f08c379a0000000000000000000000000000000000000000000000000000000008152600401610edc90611efd565b60405180910390fd5b5f60065f8d81526020019081526020015f209050805f0154816001015f9054906101000a900473ffffffffffffffffffffffffffffffffffffffff168260020183600301548460040154856005015f9054906101000a900460ff168660060187600701886008015f9054906101000a900473ffffffffffffffffffffffffffffffffffffffff168960090154878054610f7d90611e83565b80601f0160208091040260200160405190810160405280929190818152602001828054610fa990611e83565b8015610ff45780601f10610fcb57610100808354040283529160200191610ff4565b820191905f5260205f20905b815481529060010190602001808311610fd757829003601f168201915b5050505050975083805480602002602001604051908101604052809291908181526020015f905b828210156110c3578382905f5260205f2001805461103890611e83565b80601f016020809104026020016040519081016040528092919081815260200182805461106490611e83565b80156110af5780601f10611086576101008083540402835291602001916110af565b820191905f5260205f20905b81548152906001019060200180831161109257829003601f168201915b50505050508152602001906001019061101b565b5050505093508280548060200260200160405190810160405280929190818152602001828054801561111257602002820191905f5260205f20905b8154815260200190600101908083116110fe575b505050505092509a509a509a509a509a509a509a509a509a509a50509193959799509193959799565b60015481565b5f60045460025f9054906101000a900473ffffffffffffffffffffffffffffffffffffffff1673ffffffffffffffffffffffffffffffffffffffff16639ab24eb0336040518263ffffffff1660e01b815260040161119f91906127df565b602060405180830381865afa1580156111ba573d5f5f3e3d5ffd5b505050506040513d601f19601f820116820180604052508101906111de919061215c565b101561121f576040517f08c379a000000000000000000000000000000000000000000000000000000000815260040161121690612868565b60405180910390fd5b6001845111611263576040517f08c379a000000000000000000000000000000000000000000000000000000000815260040161125a906128d0565b60405180910390fd5b60015f815480929190611275906128ee565b91905055505f60015490505f60065f8381526020019081526020015f20905081815f018190555033816001015f6101000a81548173ffffffffffffffffffffffffffffffffffffffff021916908373ffffffffffffffffffffffffffffffffffffffff160217905550878160020190816112ef9190612acc565b50438160030181905550603c876113069190612187565b4261131191906120ad565b81600401819055505f816005015f6101000a81548160ff0219169083151502179055508581600601908051906020019061134c929190611453565b50855167ffffffffffffffff81111561136857611367611677565b5b6040519080825280602002602001820160405280156113965781602001602082028036833780820191505090505b508160070190805190602001906113ae9291906114aa565b5084816008015f6101000a81548173ffffffffffffffffffffffffffffffffffffffff021916908373ffffffffffffffffffffffffffffffffffffffff1602179055508381600901819055507f9f6e33c02eac7195e05cdeeda66671bcda6693d8470461ba070c0a24c94e3ed682338a846003015485600401548a8a60405161143d9796959493929190612b9b565b60405180910390a1819250505095945050505050565b828054828255905f5260205f20908101928215611499579160200282015b828111156114985782518290816114889190612acc565b5091602001919060010190611471565b5b5090506114a691906114f5565b5090565b828054828255905f5260205f209081019282156114e4579160200282015b828111156114e35782518255916020019190600101906114c8565b5b5090506114f19190611518565b5090565b5b80821115611514575f818161150b9190611533565b506001016114f6565b5090565b5b8082111561152f575f815f905550600101611519565b5090565b50805461153f90611e83565b5f825580601f10611550575061156d565b601f0160209004905f5260205f209081019061156c9190611518565b5b50565b5f81519050919050565b5f82825260208201905092915050565b8281835e5f83830152505050565b5f601f19601f8301169050919050565b5f6115b282611570565b6115bc818561157a565b93506115cc81856020860161158a565b6115d581611598565b840191505092915050565b5f6020820190508181035f8301526115f881846115a8565b905092915050565b5f604051905090565b5f5ffd5b5f5ffd5b5f819050919050565b61162381611611565b811461162d575f5ffd5b50565b5f8135905061163e8161161a565b92915050565b5f6020828403121561165957611658611609565b5b5f61166684828501611630565b91505092915050565b5f5ffd5b5f5ffd5b7f4e487b71000000000000000000000000000000000000000000000000000000005f52604160045260245ffd5b6116ad82611598565b810181811067ffffffffffffffff821117156116cc576116cb611677565b5b80604052505050565b5f6116de611600565b90506116ea82826116a4565b919050565b5f67ffffffffffffffff82111561170957611708611677565b5b61171282611598565b9050602081019050919050565b828183375f83830152505050565b5f61173f61173a846116ef565b6116d5565b90508281526020810184848401111561175b5761175a611673565b5b61176684828561171f565b509392505050565b5f82601f8301126117825761178161166f565b5b813561179284826020860161172d565b91505092915050565b5f67ffffffffffffffff8211156117b5576117b4611677565b5b602082029050602081019050919050565b5f5ffd5b5f6117dc6117d78461179b565b6116d5565b905080838252602082019050602084028301858111156117ff576117fe6117c6565b5b835b8181101561184657803567ffffffffffffffff8111156118245761182361166f565b5b808601611831898261176e565b85526020850194505050602081019050611801565b5050509392505050565b5f82601f8301126118645761186361166f565b5b81356118748482602086016117ca565b91505092915050565b5f73ffffffffffffffffffffffffffffffffffffffff82169050919050565b5f6118a68261187d565b9050919050565b6118b68161189c565b81146118c0575f5ffd5b50565b5f813590506118d1816118ad565b92915050565b5f5f5f5f5f60a086880312156118f0576118ef611609565b5b5f86013567ffffffffffffffff81111561190d5761190c61160d565b5b6119198882890161176e565b955050602061192a88828901611630565b945050604086013567ffffffffffffffff81111561194b5761194a61160d565b5b61195788828901611850565b9350506060611968888289016118c3565b925050608061197988828901611630565b9150509295509295909350565b61198f81611611565b82525050565b5f6020820190506119a85f830184611986565b92915050565b5f5f5f606084860312156119c5576119c4611609565b5b5f84013567ffffffffffffffff8111156119e2576119e161160d565b5b6119ee8682870161176e565b93505060206119ff86828701611630565b925050604084013567ffffffffffffffff811115611a2057611a1f61160d565b5b611a2c86828701611850565b9150509250925092565b5f611a408261187d565b9050919050565b611a5081611a36565b8114611a5a575f5ffd5b50565b5f81359050611a6b81611a47565b92915050565b5f5f60408385031215611a8757611a86611609565b5b5f611a9485828601611630565b9250506020611aa585828601611a5d565b9150509250929050565b5f8115159050919050565b611ac381611aaf565b82525050565b5f602082019050611adc5f830184611aba565b92915050565b5f819050919050565b5f611b05611b00611afb8461187d565b611ae2565b61187d565b9050919050565b5f611b1682611aeb565b9050919050565b5f611b2782611b0c565b9050919050565b611b3781611b1d565b82525050565b5f602082019050611b505f830184611b2e565b92915050565b5f611b6082611aeb565b9050919050565b5f611b7182611b56565b9050919050565b611b8181611b67565b82525050565b5f602082019050611b9a5f830184611b78565b92915050565b5f5f60408385031215611bb657611bb5611609565b5b5f611bc385828601611630565b9250506020611bd485828601611630565b9150509250929050565b611be781611a36565b82525050565b5f81519050919050565b5f82825260208201905092915050565b5f819050602082019050919050565b5f82825260208201905092915050565b5f611c3082611570565b611c3a8185611c16565b9350611c4a81856020860161158a565b611c5381611598565b840191505092915050565b5f611c698383611c26565b905092915050565b5f602082019050919050565b5f611c8782611bed565b611c918185611bf7565b935083602082028501611ca385611c07565b805f5b85811015611cde5784840389528151611cbf8582611c5e565b9450611cca83611c71565b925060208a01995050600181019050611ca6565b50829750879550505050505092915050565b5f81519050919050565b5f82825260208201905092915050565b5f819050602082019050919050565b611d2281611611565b82525050565b5f611d338383611d19565b60208301905092915050565b5f602082019050919050565b5f611d5582611cf0565b611d5f8185611cfa565b9350611d6a83611d0a565b805f5b83811015611d9a578151611d818882611d28565b9750611d8c83611d3f565b925050600181019050611d6d565b5085935050505092915050565b5f61014082019050611dbb5f83018d611986565b611dc8602083018c611bde565b8181036040830152611dda818b6115a8565b9050611de9606083018a611986565b611df66080830189611986565b611e0360a0830188611aba565b81810360c0830152611e158187611c7d565b905081810360e0830152611e298186611d4b565b9050611e39610100830185611bde565b611e47610120830184611986565b9b9a5050505050505050505050565b7f4e487b71000000000000000000000000000000000000000000000000000000005f52602260045260245ffd5b5f6002820490506001821680611e9a57607f821691505b602082108103611ead57611eac611e56565b5b50919050565b7f496e76616c69642070726f706f73616c204944000000000000000000000000005f82015250565b5f611ee760138361157a565b9150611ef282611eb3565b602082019050919050565b5f6020820190508181035f830152611f1481611edb565b9050919050565b7f566f74696e6720686173206e6f7420656e6465642079657400000000000000005f82015250565b5f611f4f60188361157a565b9150611f5a82611f1b565b602082019050919050565b5f6020820190508181035f830152611f7c81611f43565b9050919050565b7f50726f706f73616c20616c7265616479206578656375746564000000000000005f82015250565b5f611fb760198361157a565b9150611fc282611f83565b602082019050919050565b5f6020820190508181035f830152611fe481611fab565b9050919050565b7f4e487b71000000000000000000000000000000000000000000000000000000005f52603260045260245ffd5b7f4f7074696f6e203020646964206e6f742077696e0000000000000000000000005f82015250565b5f61204c60148361157a565b915061205782612018565b602082019050919050565b5f6020820190508181035f83015261207981612040565b9050919050565b7f4e487b71000000000000000000000000000000000000000000000000000000005f52601160045260245ffd5b5f6120b782611611565b91506120c283611611565b92508282019050808211156120da576120d9612080565b5b92915050565b7f4e6f20766f7465732077657265206361737400000000000000000000000000005f82015250565b5f61211460128361157a565b915061211f826120e0565b602082019050919050565b5f6020820190508181035f83015261214181612108565b9050919050565b5f815190506121568161161a565b92915050565b5f6020828403121561217157612170611609565b5b5f61217e84828501612148565b91505092915050565b5f61219182611611565b915061219c83611611565b92508282026121aa81611611565b915082820484148315176121c1576121c0612080565b5b5092915050565b7f4e487b71000000000000000000000000000000000000000000000000000000005f52601260045260245ffd5b5f6121ff82611611565b915061220a83611611565b92508261221a576122196121c8565b5b828204905092915050565b7f51756f72756d206e6f74206d65740000000000000000000000000000000000005f82015250565b5f612259600e8361157a565b915061226482612225565b602082019050919050565b5f6020820190508181035f8301526122868161224d565b9050919050565b5f61229782611b56565b9050919050565b6122a78161228d565b82525050565b5f6040820190506122c05f83018561229e565b6122cd6020830184611986565b9392505050565b5f819050919050565b6122e6816122d4565b81146122f0575f5ffd5b50565b5f81519050612301816122dd565b92915050565b5f6020828403121561231c5761231b611609565b5b5f612329848285016122f3565b91505092915050565b61233b816122d4565b82525050565b5f6040820190506123545f830185611986565b6123616020830184612332565b9392505050565b7f54617267657420616464726573732063616e6e6f74206265207a65726f0000005f82015250565b5f61239c601d8361157a565b91506123a782612368565b602082019050919050565b5f6020820190508181035f8301526123c981612390565b9050919050565b7f56616c7565206d7573742062652067726561746572207468616e2030000000005f82015250565b5f612404601c8361157a565b915061240f826123d0565b602082019050919050565b5f6020820190508181035f830152612431816123f8565b9050919050565b7f50726f706f73616c20686173206e6f74206265656e20657865637574656420795f8201527f6574000000000000000000000000000000000000000000000000000000000000602082015250565b5f61249260228361157a565b915061249d82612438565b604082019050919050565b5f6020820190508181035f8301526124bf81612486565b9050919050565b7f4e6f7420612066696e616e6369616c2070726f706f73616c00000000000000005f82015250565b5f6124fa60188361157a565b9150612505826124c6565b602082019050919050565b5f6020820190508181035f830152612527816124ee565b9050919050565b5f6020820190506125415f830184612332565b92915050565b7f566f74696e672073746172747320696e2074686520626c6f636b2061667465725f8201527f2070726f706f73616c206372656174696f6e0000000000000000000000000000602082015250565b5f6125a160328361157a565b91506125ac82612547565b604082019050919050565b5f6020820190508181035f8301526125ce81612595565b9050919050565b7f566f74696e672068617320656e646564000000000000000000000000000000005f82015250565b5f61260960108361157a565b9150612614826125d5565b602082019050919050565b5f6020820190508181035f830152612636816125fd565b9050919050565b7f416c726561647920766f746564206f6e20746869732070726f706f73616c00005f82015250565b5f612671601e8361157a565b915061267c8261263d565b602082019050919050565b5f6020820190508181035f83015261269e81612665565b9050919050565b7f496e76616c6964206f7074696f6e20696e6465780000000000000000000000005f82015250565b5f6126d960148361157a565b91506126e4826126a5565b602082019050919050565b5f6020820190508181035f830152612706816126cd565b9050919050565b5f6040820190506127205f830185611bde565b61272d6020830184611986565b9392505050565b7f4e6f20766f74696e6720706f77657200000000000000000000000000000000005f82015250565b5f612768600f8361157a565b915061277382612734565b602082019050919050565b5f6020820190508181035f8301526127958161275c565b9050919050565b5f6080820190506127af5f830187611986565b6127bc6020830186611bde565b6127c96040830185611986565b6127d66060830184611986565b95945050505050565b5f6020820190506127f25f830184611bde565b92915050565b7f566f74696e6720706f7765722062656c6f772070726f706f73616c20746872655f8201527f73686f6c64000000000000000000000000000000000000000000000000000000602082015250565b5f61285260258361157a565b915061285d826127f8565b604082019050919050565b5f6020820190508181035f83015261287f81612846565b9050919050565b7f4d7573742068617665206174206c656173742032206f7074696f6e73000000005f82015250565b5f6128ba601c8361157a565b91506128c582612886565b602082019050919050565b5f6020820190508181035f8301526128e7816128ae565b9050919050565b5f6128f882611611565b91507fffffffffffffffffffffffffffffffffffffffffffffffffffffffffffffffff820361292a57612929612080565b5b600182019050919050565b5f819050815f5260205f209050919050565b5f6020601f8301049050919050565b5f82821b905092915050565b5f600883026129917fffffffffffffffffffffffffffffffffffffffffffffffffffffffffffffffff82612956565b61299b8683612956565b95508019841693508086168417925050509392505050565b5f6129cd6129c86129c384611611565b611ae2565b611611565b9050919050565b5f819050919050565b6129e6836129b3565b6129fa6129f2826129d4565b848454612962565b825550505050565b5f5f905090565b612a11612a02565b612a1c8184846129dd565b505050565b5b81811015612a3f57612a345f82612a09565b600181019050612a22565b5050565b601f821115612a8457612a5581612935565b612a5e84612947565b81016020851015612a6d578190505b612a81612a7985612947565b830182612a21565b50505b505050565b5f82821c905092915050565b5f612aa45f1984600802612a89565b1980831691505092915050565b5f612abc8383612a95565b9150826002028217905092915050565b612ad582611570565b67ffffffffffffffff811115612aee57612aed611677565b5b612af88254611e83565b612b03828285612a43565b5f60209050601f831160018114612b34575f8415612b22578287015190505b612b2c8582612ab1565b865550612b93565b601f198416612b4286612935565b5f5b82811015612b6957848901518255600182019150602085019450602081019050612b44565b86831015612b865784890151612b82601f891682612a95565b8355505b6001600288020188555050505b505050505050565b5f60e082019050612bae5f83018a611986565b612bbb6020830189611bde565b8181036040830152612bcd81886115a8565b9050612bdc6060830187611986565b612be96080830186611986565b612bf660a083018561229e565b612c0360c0830184611986565b9897505050505050505056fea26469706673582212203b7fdab11716f728e8f05329494da75ad0479058c1c3abf3be0c201b6b4b46c764736f6c634300081c0033608060405234801561000f575f5ffd5b506040516111a63803806111a68339818101604052810190610031919061010f565b815f5f6101000a81548173ffffffffffffffffffffffffffffffffffffffff021916908373ffffffffffffffffffffffffffffffffffffffff16021790555080600181905550505061014d565b5f5ffd5b5f73ffffffffffffffffffffffffffffffffffffffff82169050919050565b5f6100ab82610082565b9050919050565b6100bb816100a1565b81146100c5575f5ffd5b50565b5f815190506100d6816100b2565b92915050565b5f819050919050565b6100ee816100dc565b81146100f8575f5ffd5b50565b5f81519050610109816100e5565b92915050565b5f5f604083850312156101255761012461007e565b5b5f610132858286016100c8565b9250506020610143858286016100fb565b9150509250929050565b61104c8061015a5f395ff3fe608060405260043610610073575f3560e01c806370ba33391161004d57806370ba33391461015c578063c69ed5f214610184578063eef09bad146101ac578063f2b06537146101d6576100c8565b806312065fe0146100cc578063542250cc146100f65780635aa6e67514610132576100c8565b366100c8573373ffffffffffffffffffffffffffffffffffffffff167f8e47b87b0ef542cdfa1659c551d88bad38aa7f452d2bbb349ab7530dfec8be8f346040516100be91906109ab565b60405180910390a2005b5f5ffd5b3480156100d7575f5ffd5b506100e0610216565b6040516100ed91906109ab565b60405180910390f35b348015610101575f5ffd5b5061011c60048036038101906101179190610a4c565b61021d565b6040516101299190610aa2565b60405180910390f35b34801561013d575f5ffd5b50610146610489565b6040516101539190610aca565b60405180910390f35b348015610167575f5ffd5b50610182600480360381019061017d9190610b0d565b6104ad565b005b34801561018f575f5ffd5b506101aa60048036038101906101a59190610b0d565b610634565b005b3480156101b7575f5ffd5b506101c0610923565b6040516101cd91906109ab565b60405180910390f35b3480156101e1575f5ffd5b506101fc60048036038101906101f79190610b0d565b610929565b60405161020d959493929190610b52565b60405180910390f35b5f47905090565b5f5f5f9054906101000a900473ffffffffffffffffffffffffffffffffffffffff1673ffffffffffffffffffffffffffffffffffffffff163373ffffffffffffffffffffffffffffffffffffffff16146102ac576040517f08c379a00000000000000000000000000000000000000000000000000000000081526004016102a390610c23565b60405180910390fd5b5f600154426102bb9190610c6e565b90505f8484836040516020016102d393929190610ca1565b6040516020818303038152906040528051906020012090505f60025f8381526020019081526020015f206002015414610341576040517f08c379a000000000000000000000000000000000000000000000000000000000815260040161033890610d20565b60405180910390fd5b6040518060a001604052808673ffffffffffffffffffffffffffffffffffffffff1681526020018581526020018381526020015f151581526020015f151581525060025f8381526020019081526020015f205f820151815f015f6101000a81548173ffffffffffffffffffffffffffffffffffffffff021916908373ffffffffffffffffffffffffffffffffffffffff16021790555060208201518160010155604082015181600201556060820151816003015f6101000a81548160ff02191690831515021790555060808201518160030160016101000a81548160ff0219169083151502179055509050508473ffffffffffffffffffffffffffffffffffffffff16817f7519d8853a123928eedd53667daaff4654e17e3156685ee5d16f01e07cad01098685604051610476929190610d3e565b60405180910390a3809250505092915050565b5f5f9054906101000a900473ffffffffffffffffffffffffffffffffffffffff1681565b5f5f9054906101000a900473ffffffffffffffffffffffffffffffffffffffff1673ffffffffffffffffffffffffffffffffffffffff163373ffffffffffffffffffffffffffffffffffffffff161461053b576040517f08c379a000000000000000000000000000000000000000000000000000000000815260040161053290610c23565b60405180910390fd5b5f60025f8381526020019081526020015f2090505f816002015403610595576040517f08c379a000000000000000000000000000000000000000000000000000000000815260040161058c90610daf565b60405180910390fd5b806003015f9054906101000a900460ff16156105e6576040517f08c379a00000000000000000000000000000000000000000000000000000000081526004016105dd90610e17565b60405180910390fd5b60018160030160016101000a81548160ff021916908315150217905550817f0891e6c675e964cf1e5982f60fda276ad06301a9221b2f1d7bf2b2a42fbd69a160405160405180910390a25050565b5f60025f8381526020019081526020015f2090505f81600201540361068e576040517f08c379a000000000000000000000000000000000000000000000000000000000815260040161068590610daf565b60405180910390fd5b806003015f9054906101000a900460ff16156106df576040517f08c379a00000000000000000000000000000000000000000000000000000000081526004016106d690610e17565b60405180910390fd5b8060030160019054906101000a900460ff1615610731576040517f08c379a000000000000000000000000000000000000000000000000000000000815260040161072890610e7f565b60405180910390fd5b8060020154421015610778576040517f08c379a000000000000000000000000000000000000000000000000000000000815260040161076f90610ee7565b60405180910390fd5b80600101544710156107bf576040517f08c379a00000000000000000000000000000000000000000000000000000000081526004016107b690610f4f565b60405180910390fd5b6001816003015f6101000a81548160ff0219169083151502179055505f815f015f9054906101000a900473ffffffffffffffffffffffffffffffffffffffff1673ffffffffffffffffffffffffffffffffffffffff16826001015460405161082690610f9a565b5f6040518083038185875af1925050503d805f8114610860576040519150601f19603f3d011682016040523d82523d5f602084013e610865565b606091505b50509050806108a9576040517f08c379a00000000000000000000000000000000000000000000000000000000081526004016108a090610ff8565b60405180910390fd5b815f015f9054906101000a900473ffffffffffffffffffffffffffffffffffffffff1673ffffffffffffffffffffffffffffffffffffffff16837ff428004d3339c4a2d18a1bb05bf349f4a610100cde4d4dccde22bff25664c4fa846001015460405161091691906109ab565b60405180910390a3505050565b60015481565b6002602052805f5260405f205f91509050805f015f9054906101000a900473ffffffffffffffffffffffffffffffffffffffff1690806001015490806002015490806003015f9054906101000a900460ff16908060030160019054906101000a900460ff16905085565b5f819050919050565b6109a581610993565b82525050565b5f6020820190506109be5f83018461099c565b92915050565b5f5ffd5b5f73ffffffffffffffffffffffffffffffffffffffff82169050919050565b5f6109f1826109c8565b9050919050565b610a01816109e7565b8114610a0b575f5ffd5b50565b5f81359050610a1c816109f8565b92915050565b610a2b81610993565b8114610a35575f5ffd5b50565b5f81359050610a4681610a22565b92915050565b5f5f60408385031215610a6257610a616109c4565b5b5f610a6f85828601610a0e565b9250506020610a8085828601610a38565b9150509250929050565b5f819050919050565b610a9c81610a8a565b82525050565b5f602082019050610ab55f830184610a93565b92915050565b610ac4816109e7565b82525050565b5f602082019050610add5f830184610abb565b92915050565b610aec81610a8a565b8114610af6575f5ffd5b50565b5f81359050610b0781610ae3565b92915050565b5f60208284031215610b2257610b216109c4565b5b5f610b2f84828501610af9565b91505092915050565b5f8115159050919050565b610b4c81610b38565b82525050565b5f60a082019050610b655f830188610abb565b610b72602083018761099c565b610b7f604083018661099c565b610b8c6060830185610b43565b610b996080830184610b43565b9695505050505050565b5f82825260208201905092915050565b7f4f6e6c792074686520476f7665726e616e636520636f6e74726163742063616e5f8201527f2063616c6c207468697300000000000000000000000000000000000000000000602082015250565b5f610c0d602a83610ba3565b9150610c1882610bb3565b604082019050919050565b5f6020820190508181035f830152610c3a81610c01565b9050919050565b7f4e487b71000000000000000000000000000000000000000000000000000000005f52601160045260245ffd5b5f610c7882610993565b9150610c8383610993565b9250828201905080821115610c9b57610c9a610c41565b5b92915050565b5f606082019050610cb45f830186610abb565b610cc1602083018561099c565b610cce604083018461099c565b949350505050565b7f5472616e73616374696f6e20616c7265616479207175657565640000000000005f82015250565b5f610d0a601a83610ba3565b9150610d1582610cd6565b602082019050919050565b5f6020820190508181035f830152610d3781610cfe565b9050919050565b5f604082019050610d515f83018561099c565b610d5e602083018461099c565b9392505050565b7f5472616e73616374696f6e20646f6573206e6f742065786973740000000000005f82015250565b5f610d99601a83610ba3565b9150610da482610d65565b602082019050919050565b5f6020820190508181035f830152610dc681610d8d565b9050919050565b7f5472616e73616374696f6e20616c7265616479206578656375746564000000005f82015250565b5f610e01601c83610ba3565b9150610e0c82610dcd565b602082019050919050565b5f6020820190508181035f830152610e2e81610df5565b9050919050565b7f5472616e73616374696f6e207761732063616e63656c6c6564000000000000005f82015250565b5f610e69601983610ba3565b9150610e7482610e35565b602082019050919050565b5f6020820190508181035f830152610e9681610e5d565b9050919050565b7f54696d656c6f636b2064656c617920686173206e6f74207061737365640000005f82015250565b5f610ed1601d83610ba3565b9150610edc82610e9d565b602082019050919050565b5f6020820190508181035f830152610efe81610ec5565b9050919050565b7f496e73756666696369656e742074726561737572792062616c616e63650000005f82015250565b5f610f39601d83610ba3565b9150610f4482610f05565b602082019050919050565b5f6020820190508181035f830152610f6681610f2d565b9050919050565b5f81905092915050565b50565b5f610f855f83610f6d565b9150610f9082610f77565b5f82019050919050565b5f610fa482610f7a565b9150819050919050565b7f455448207472616e73666572206661696c6564000000000000000000000000005f82015250565b5f610fe2601383610ba3565b9150610fed82610fae565b602082019050919050565b5f6020820190508181035f83015261100f81610fd6565b905091905056fea2646970667358221220d99311e1afc5ad3cf673c85fee2927bde5a395fb5c8c8bc561e53646ae1c738664736f6c634300081c0033a26469706673582212209d65dbc18a28ba9fe4ff649521f67a8e1a37b6072327f7db51ae419aadd3d9cd64736f6c634300081c0033",
  "linkReferences": {},
  "deployedLinkReferences": {}
}