{
  "_format": "hh-sol-artifact-1",
  "contractName": "Governance",
  "sourceName": "contracts/Governance.sol",
  "abi": [
    {
      "inputs": [
        {
          "internalType": "string",
          "name": "_name",
          "type": "string"
        },
        {
          "internalType": "address",
          "name": "_tokenAddress",
          "type": "address"
        },
        {
          "internalType": "uint256",
          "name": "_proposalThreshold",
          "type": "uint256"
        },
        {
          "internalType": "uint256",
          "name": "_timelockDelay",
          "type": "uint256"
        },
        {
          "internalType": "uint256",
          "name": "_quorumPercentage",
          "type": "uint256"
        }
      ],
      "stateMutability": "nonpayable",
      "type": "constructor"
    },
    {
      "anonymous": false,
      "inputs": [
        {
          "indexed": false,
          "internalType": "uint256",
          "name": "proposalId",
          "type": "uint256"
        }
      ],
      "name": "ProposalCancelled",
      "type": "event"
    },
    {
      "anonymous": false,
      "inputs": [
        {
          "indexed": false,
          "internalType": "uint256",
          "name": "id",
          "type": "uint256"
        },
        {
          "indexed": false,
          "internalType": "address",
          "name": "proposer",
          "type": "address"
        },
        {
          "indexed": false,
          "internalType": "string",
          "name": "description",
          "type": "string"
        },
        {
          "indexed": false,
          "internalType": "uint256",
          "name": "snapshotBlock",
          "type": "uint256"
        },
        {
          "indexed": false,
          "internalType": "uint256",
          "name": "endTime",
          "type": "uint256"
        },
        {
          "indexed": false,
          "internalType": "address",
          "name": "target",
          "type": "address"
        },
        {
          "indexed": false,
          "internalType": "uint256",
          "name": "value",
          "type": "uint256"
        }
      ],
      "name": "ProposalCreated",
      "type": "event"
    },
    {
      "anonymous": false,
      "inputs": [
        {
          "indexed": false,
          "internalType": "uint256",
          "name": "proposalId",
          "type": "uint256"
        }
      ],
      "name": "ProposalExecuted",
      "type": "event"
    },
    {
      "anonymous": false,
      "inputs": [
        {
          "indexed": false,
          "internalType": "uint256",
          "name": "proposalId",
          "type": "uint256"
        },
        {
          "indexed": false,
          "internalType": "bytes32",
          "name": "timelockTxId",
          "type": "bytes32"
        }
      ],
      "name": "ProposalQueued",
      "type": "event"
    },
    {
      "anonymous": false,
      "inputs": [
        {
          "indexed": false,
          "internalType": "uint256",
          "name": "proposalId",
          "type": "uint256"
        },
        {
          "indexed": false,
          "internalType": "address",
          "name": "voter",
          "type": "address"
        },
        {
          "indexed": false,
          "internalType": "uint256",
          "name": "optionIndex",
          "type": "uint256"
        },
        {
          "indexed": false,
          "internalType": "uint256",
          "name": "weight",
          "type": "uint256"
        }
      ],
      "name": "VoteCast",
      "type": "event"
    },
    {
      "inputs": [],
      "name": "bloomToken",
      "outputs": [
        {
          "internalType": "contract ERC20Votes",
          "name": "",
          "type": "address"
        }
      ],
      "stateMutability": "view",
      "type": "function"
    },
    {
      "inputs": [
        {
          "internalType": "uint256",
          "name": "_proposalId",
          "type": "uint256"
        }
      ],
      "name": "cancelProposal",
      "outputs": [],
      "stateMutability": "nonpayable",
      "type": "function"
    },
    {
      "inputs": [
        {
          "internalType": "string",
          "name": "_description",
          "type": "string"
        },
        {
          "internalType": "uint256",
          "name": "_durationMinutes",
          "type": "uint256"
        },
        {
          "internalType": "string[]",
          "name": "_options",
          "type": "string[]"
        },
        {
          "internalType": "address payable",
          "name": "_target",
          "type": "address"
        },
        {
          "internalType": "uint256",
          "name": "_value",
          "type": "uint256"
        }
      ],
      "name": "createFinancialProposal",
      "outputs": [
        {
          "internalType": "uint256",
          "name": "",
          "type": "uint256"
        }
      ],
      "stateMutability": "nonpayable",
      "type": "function"
    },
    {
      "inputs": [
        {
          "internalType": "string",
          "name": "_description",
          "type": "string"
        },
        {
          "internalType": "uint256",
          "name": "_durationMinutes",
          "type": "uint256"
        },
        {
          "internalType": "string[]",
          "name": "_options",
          "type": "string[]"
        }
      ],
      "name": "createProposal",
      "outputs": [
        {
          "internalType": "uint256",
          "name": "",
          "type": "uint256"
        }
      ],
      "stateMutability": "nonpayable",
      "type": "function"
    },
    {
      "inputs": [
        {
          "internalType": "uint256",
          "name": "_proposalId",
          "type": "uint256"
        }
      ],
      "name": "executeProposal",
      "outputs": [],
      "stateMutability": "nonpayable",
      "type": "function"
    },
    {
      "inputs": [
        {
          "internalType": "uint256",
          "name": "_proposalId",
          "type": "uint256"
        }
      ],
      "name": "finalizeProposal",
      "outputs": [],
      "stateMutability": "nonpayable",
      "type": "function"
    },
    {
      "inputs": [
        {
          "internalType": "uint256",
          "name": "_proposalId",
          "type": "uint256"
        }
      ],
      "name": "getProposal",
      "outputs": [
        {
          "internalType": "uint256",
          "name": "id",
          "type": "uint256"
        },
        {
          "internalType": "address",
          "name": "proposer",
          "type": "address"
        },
        {
          "internalType": "string",
          "name": "description",
          "type": "string"
        },
        {
          "internalType": "uint256",
          "name": "snapshotBlock",
          "type": "uint256"
        },
        {
          "internalType": "uint256",
          "name": "endTime",
          "type": "uint256"
        },
        {
          "internalType": "bool",
          "name": "executed",
          "type": "bool"
        },
        {
          "internalType": "string[]",
          "name": "optionNames",
          "type": "string[]"
        },
        {
          "internalType": "uint256[]",
          "name": "optionVotes",
          "type": "uint256[]"
        },
        {
          "internalType": "address",
          "name": "target",
          "type": "address"
        },
        {
          "internalType": "uint256",
          "name": "value",
          "type": "uint256"
        }
      ],
      "stateMutability": "view",
      "type": "function"
    },
    {
      "inputs": [
        {
          "internalType": "uint256",
          "name": "",
          "type": "uint256"
        },
        {
          "internalType": "address",
          "name": "",
          "type": "address"
        }
      ],
      "name": "hasVoted",
      "outputs": [
        {
          "internalType": "bool",
          "name": "",
          "type": "bool"
        }
      ],
      "stateMutability": "view",
      "type": "function"
    },
    {
      "inputs": [],
      "name": "name",
      "outputs": [
        {
          "internalType": "string",
          "name": "",
          "type": "string"
        }
      ],
      "stateMutability": "view",
      "type": "function"
    },
    {
      "inputs": [],
      "name": "proposalCount",
      "outputs": [
        {
          "internalType": "uint256",
          "name": "",
          "type": "uint256"
        }
      ],
      "stateMutability": "view",
      "type": "function"
    },
    {
      "inputs": [],
      "name": "proposalThreshold",
      "outputs": [
        {
          "internalType": "uint256",
          "name": "",
          "type": "uint256"
        }
      ],
      "stateMutability": "view",
      "type": "function"
    },
    {
      "inputs": [],
      "name": "quorumPercentage",
      "outputs": [
        {
          "internalType": "uint256",
          "name": "",
          "type": "uint256"
        }
      ],
      "stateMutability": "view",
      "type": "function"
    },
    {
      "inputs": [],
      "name": "treasury",
      "outputs": [
        {
          "internalType": "contract Treasury",
          "name": "",
          "type": "address"
        }
      ],
      "stateMutability": "view",
      "type": "function"
    },
    {
      "inputs": [
        {
          "internalType": "uint256",
          "name": "_proposalId",
          "type": "uint256"
        },
        {
          "internalType": "uint256",
          "name": "_optionIndex",
          "type": "uint256"
        }
      ],
      "name": "vote",
      "outputs": [],
      "stateMutability": "nonpayable",
      "type": "function"
    }
  ],
  "bytecode": "0x608060405234801561000f575f5ffd5b506040516148f63803806148f6833981810160405281019061003191906102f1565b845f908161003f919061058b565b508360025f6101000a81548173ffffffffffffffffffffffffffffffffffffffff021916908373ffffffffffffffffffffffffffffffffffffffff1602179055508260048190555080600581905550308260405161009c9061010a565b6100a7929190610678565b604051809103905ff0801580156100c0573d5f5f3e3d5ffd5b5060035f6101000a81548173ffffffffffffffffffffffffffffffffffffffff021916908373ffffffffffffffffffffffffffffffffffffffff160217905550505050505061069f565b6112d78061361f83390190565b5f604051905090565b5f5ffd5b5f5ffd5b5f5ffd5b5f5ffd5b5f601f19601f8301169050919050565b7f4e487b71000000000000000000000000000000000000000000000000000000005f52604160045260245ffd5b61017682610130565b810181811067ffffffffffffffff8211171561019557610194610140565b5b80604052505050565b5f6101a7610117565b90506101b3828261016d565b919050565b5f67ffffffffffffffff8211156101d2576101d1610140565b5b6101db82610130565b9050602081019050919050565b8281835e5f83830152505050565b5f610208610203846101b8565b61019e565b9050828152602081018484840111156102245761022361012c565b5b61022f8482856101e8565b509392505050565b5f82601f83011261024b5761024a610128565b5b815161025b8482602086016101f6565b91505092915050565b5f73ffffffffffffffffffffffffffffffffffffffff82169050919050565b5f61028d82610264565b9050919050565b61029d81610283565b81146102a7575f5ffd5b50565b5f815190506102b881610294565b92915050565b5f819050919050565b6102d0816102be565b81146102da575f5ffd5b50565b5f815190506102eb816102c7565b92915050565b5f5f5f5f5f60a0868803121561030a57610309610120565b5b5f86015167ffffffffffffffff81111561032757610326610124565b5b61033388828901610237565b9550506020610344888289016102aa565b9450506040610355888289016102dd565b9350506060610366888289016102dd565b9250506080610377888289016102dd565b9150509295509295909350565b5f81519050919050565b7f4e487b71000000000000000000000000000000000000000000000000000000005f52602260045260245ffd5b5f60028204905060018216806103d257607f821691505b6020821081036103e5576103e461038e565b5b50919050565b5f819050815f5260205f209050919050565b5f6020601f8301049050919050565b5f82821b905092915050565b5f600883026104477fffffffffffffffffffffffffffffffffffffffffffffffffffffffffffffffff8261040c565b610451868361040c565b95508019841693508086168417925050509392505050565b5f819050919050565b5f61048c610487610482846102be565b610469565b6102be565b9050919050565b5f819050919050565b6104a583610472565b6104b96104b182610493565b848454610418565b825550505050565b5f5f905090565b6104d06104c1565b6104db81848461049c565b505050565b5b818110156104fe576104f35f826104c8565b6001810190506104e1565b5050565b601f82111561054357610514816103eb565b61051d846103fd565b8101602085101561052c578190505b610540610538856103fd565b8301826104e0565b50505b505050565b5f82821c905092915050565b5f6105635f1984600802610548565b1980831691505092915050565b5f61057b8383610554565b9150826002028217905092915050565b61059482610384565b67ffffffffffffffff8111156105ad576105ac610140565b5b6105b782546103bb565b6105c2828285610502565b5f60209050601f8311600181146105f3575f84156105e1578287015190505b6105eb8582610570565b865550610652565b601f198416610601866103eb565b5f5b8281101561062857848901518255600182019150602085019450602081019050610603565b868310156106455784890151610641601f891682610554565b8355505b6001600288020188555050505b505050505050565b61066381610283565b82525050565b610672816102be565b82525050565b5f60408201905061068b5f83018561065a565b6106986020830184610669565b9392505050565b612f73806106ac5f395ff3fe608060405234801561000f575f5ffd5b50600436106100e8575f3560e01c806361d027b31161008a578063b58131b011610064578063b58131b014610248578063c7f758a814610266578063da35c6641461029f578063e0a8f6f5146102bd576100e8565b806361d027b3146101f0578063b2491e671461020e578063b384abef1461022c576100e8565b80631df78784116100c65780631df787841461015657806343859632146101865780634fa76ec9146101b65780635652077c146101d4576100e8565b806306fdde03146100ec5780630d61b5191461010a57806310c6f4ab14610126575b5f5ffd5b6100f46102d9565b60405161010191906117a3565b60405180910390f35b610124600480360381019061011f9190611807565b610364565b005b610140600480360381019061013b9190611a9a565b610843565b60405161014d9190611b58565b60405180910390f35b610170600480360381019061016b9190611b71565b61090c565b60405161017d9190611b58565b60405180910390f35b6101a0600480360381019061019b9190611c34565b610923565b6040516101ad9190611c8c565b60405180910390f35b6101be61094d565b6040516101cb9190611b58565b60405180910390f35b6101ee60048036038101906101e99190611807565b610953565b005b6101f8610ade565b6040516102059190611d00565b60405180910390f35b610216610b03565b6040516102239190611d4a565b60405180910390f35b61024660048036038101906102419190611d63565b610b28565b005b610250610eba565b60405161025d9190611b58565b60405180910390f35b610280600480360381019061027b9190611807565b610ec0565b6040516102969a99989796959493929190611f6a565b60405180910390f35b6102a7611172565b6040516102b49190611b58565b60405180910390f35b6102d760048036038101906102d29190611807565b611178565b005b5f80546102e590612046565b80601f016020809104026020016040519081016040528092919081815260200182805461031190612046565b801561035c5780601f106103335761010080835404028352916020019161035c565b820191905f5260205f20905b81548152906001019060200180831161033f57829003601f168201915b505050505081565b5f8111801561037557506001548111155b6103b4576040517f08c379a00000000000000000000000000000000000000000000000000000000081526004016103ab906120c0565b60405180910390fd5b5f60065f8381526020019081526020015f2090508060040154421161040e576040517f08c379a000000000000000000000000000000000000000000000000000000000815260040161040590612128565b60405180910390fd5b806005015f9054906101000a900460ff161561045f576040517f08c379a000000000000000000000000000000000000000000000000000000000815260040161045690612190565b60405180910390fd5b5f816007015f81548110610476576104756121ae565b5b905f5260205f20015490505f8190505f600190505b8360070180549050811015610534578360070181815481106104b0576104af6121ae565b5b905f5260205f2001548310156104fb576040517f08c379a00000000000000000000000000000000000000000000000000000000081526004016104f290612225565b60405180910390fd5b836007018181548110610511576105106121ae565b5b905f5260205f200154826105259190612270565b9150808060010191505061048b565b505f8211610577576040517f08c379a000000000000000000000000000000000000000000000000000000000815260040161056e906122ed565b60405180910390fd5b5f60025f9054906101000a900473ffffffffffffffffffffffffffffffffffffffff1673ffffffffffffffffffffffffffffffffffffffff16638e539e8c85600301546040518263ffffffff1660e01b81526004016105d69190611b58565b602060405180830381865afa1580156105f1573d5f5f3e3d5ffd5b505050506040513d601f19601f82011682018060405250810190610615919061231f565b90505f606460055483610628919061234a565b61063291906123b8565b905080831015610677576040517f08c379a000000000000000000000000000000000000000000000000000000000815260040161066e90612432565b60405180910390fd5b6001856005015f6101000a81548160ff0219169083151502179055505f73ffffffffffffffffffffffffffffffffffffffff16856008015f9054906101000a900473ffffffffffffffffffffffffffffffffffffffff1673ffffffffffffffffffffffffffffffffffffffff16141580156106f557505f8560090154115b15610804575f60035f9054906101000a900473ffffffffffffffffffffffffffffffffffffffff1673ffffffffffffffffffffffffffffffffffffffff1663542250cc876008015f9054906101000a900473ffffffffffffffffffffffffffffffffffffffff1688600901546040518363ffffffff1660e01b815260040161077e929190612470565b6020604051808303815f875af115801561079a573d5f5f3e3d5ffd5b505050506040513d601f19601f820116820180604052508101906107be91906124ca565b90508086600a01819055507f025b0c83fe178c6c2484be14bc8ffaaadb46e5136f7aba5e4fa7059edcd7161a87826040516107fa929190612504565b60405180910390a1505b7f712ae1383f79ac853f8d882153778e0260ef8f03b504e2866e0593e04d2b291f866040516108339190611b58565b60405180910390a1505050505050565b5f5f73ffffffffffffffffffffffffffffffffffffffff168373ffffffffffffffffffffffffffffffffffffffff16036108b2576040517f08c379a00000000000000000000000000000000000000000000000000000000081526004016108a990612575565b60405180910390fd5b5f82116108f4576040517f08c379a00000000000000000000000000000000000000000000000000000000081526004016108eb906125dd565b60405180910390fd5b6109018686868686611304565b905095945050505050565b5f61091a8484845f5f611304565b90509392505050565b6007602052815f5260405f20602052805f5260405f205f915091509054906101000a900460ff1681565b60055481565b5f8111801561096457506001548111155b6109a3576040517f08c379a000000000000000000000000000000000000000000000000000000000815260040161099a906120c0565b60405180910390fd5b5f60065f8381526020019081526020015f209050806005015f9054906101000a900460ff16610a07576040517f08c379a00000000000000000000000000000000000000000000000000000000081526004016109fe9061266b565b60405180910390fd5b5f5f1b81600a015403610a4f576040517f08c379a0000000000000000000000000000000000000000000000000000000008152600401610a46906126d3565b60405180910390fd5b60035f9054906101000a900473ffffffffffffffffffffffffffffffffffffffff1673ffffffffffffffffffffffffffffffffffffffff1663c69ed5f282600a01546040518263ffffffff1660e01b8152600401610aad91906126f1565b5f604051808303815f87803b158015610ac4575f5ffd5b505af1158015610ad6573d5f5f3e3d5ffd5b505050505050565b60035f9054906101000a900473ffffffffffffffffffffffffffffffffffffffff1681565b60025f9054906101000a900473ffffffffffffffffffffffffffffffffffffffff1681565b5f82118015610b3957506001548211155b610b78576040517f08c379a0000000000000000000000000000000000000000000000000000000008152600401610b6f906120c0565b60405180910390fd5b5f60065f8481526020019081526020015f20905080600301544311610bd2576040517f08c379a0000000000000000000000000000000000000000000000000000000008152600401610bc99061277a565b60405180910390fd5b8060040154421115610c19576040517f08c379a0000000000000000000000000000000000000000000000000000000008152600401610c10906127e2565b60405180910390fd5b60075f8481526020019081526020015f205f3373ffffffffffffffffffffffffffffffffffffffff1673ffffffffffffffffffffffffffffffffffffffff1681526020019081526020015f205f9054906101000a900460ff1615610cb2576040517f08c379a0000000000000000000000000000000000000000000000000000000008152600401610ca99061284a565b60405180910390fd5b80600601805490508210610cfb576040517f08c379a0000000000000000000000000000000000000000000000000000000008152600401610cf2906128b2565b60405180910390fd5b5f60025f9054906101000a900473ffffffffffffffffffffffffffffffffffffffff1673ffffffffffffffffffffffffffffffffffffffff16633a46b1a83384600301546040518363ffffffff1660e01b8152600401610d5c9291906128d0565b602060405180830381865afa158015610d77573d5f5f3e3d5ffd5b505050506040513d601f19601f82011682018060405250810190610d9b919061231f565b90505f8111610ddf576040517f08c379a0000000000000000000000000000000000000000000000000000000008152600401610dd690612941565b60405180910390fd5b600160075f8681526020019081526020015f205f3373ffffffffffffffffffffffffffffffffffffffff1673ffffffffffffffffffffffffffffffffffffffff1681526020019081526020015f205f6101000a81548160ff02191690831515021790555080826007018481548110610e5a57610e596121ae565b5b905f5260205f20015f828254610e709190612270565b925050819055507f0271f53eebbe20450d9578f28ec279231556c34545b30e2278d754ffd39cd63c84338584604051610eac949392919061295f565b60405180910390a150505050565b60045481565b5f5f60605f5f5f6060805f5f5f8b118015610edd57506001548b11155b610f1c576040517f08c379a0000000000000000000000000000000000000000000000000000000008152600401610f13906120c0565b60405180910390fd5b5f60065f8d81526020019081526020015f209050805f0154816001015f9054906101000a900473ffffffffffffffffffffffffffffffffffffffff168260020183600301548460040154856005015f9054906101000a900460ff168660060187600701886008015f9054906101000a900473ffffffffffffffffffffffffffffffffffffffff168960090154878054610fb490612046565b80601f0160208091040260200160405190810160405280929190818152602001828054610fe090612046565b801561102b5780601f106110025761010080835404028352916020019161102b565b820191905f5260205f20905b81548152906001019060200180831161100e57829003601f168201915b5050505050975083805480602002602001604051908101604052809291908181526020015f905b828210156110fa578382905f5260205f2001805461106f90612046565b80601f016020809104026020016040519081016040528092919081815260200182805461109b90612046565b80156110e65780601f106110bd576101008083540402835291602001916110e6565b820191905f5260205f20905b8154815290600101906020018083116110c957829003601f168201915b505050505081526020019060010190611052565b5050505093508280548060200260200160405190810160405280929190818152602001828054801561114957602002820191905f5260205f20905b815481526020019060010190808311611135575b505050505092509a509a509a509a509a509a509a509a509a509a50509193959799509193959799565b60015481565b5f60065f8381526020019081526020015f209050806001015f9054906101000a900473ffffffffffffffffffffffffffffffffffffffff1673ffffffffffffffffffffffffffffffffffffffff163373ffffffffffffffffffffffffffffffffffffffff161461121d576040517f08c379a0000000000000000000000000000000000000000000000000000000008152600401611214906129ec565b60405180910390fd5b80600401544210611263576040517f08c379a000000000000000000000000000000000000000000000000000000000815260040161125a90612a54565b60405180910390fd5b806005015f9054906101000a900460ff16156112b4576040517f08c379a00000000000000000000000000000000000000000000000000000000081526004016112ab90612abc565b60405180910390fd5b6001426112c19190612ada565b81600401819055507f416e669c63d9a3a5e36ee7cc7e2104b8db28ccd286aa18966e98fa230c73b08c826040516112f89190611b58565b60405180910390a15050565b5f60045460025f9054906101000a900473ffffffffffffffffffffffffffffffffffffffff1673ffffffffffffffffffffffffffffffffffffffff16639ab24eb0336040518263ffffffff1660e01b81526004016113629190612b0d565b602060405180830381865afa15801561137d573d5f5f3e3d5ffd5b505050506040513d601f19601f820116820180604052508101906113a1919061231f565b10156113e2576040517f08c379a00000000000000000000000000000000000000000000000000000000081526004016113d990612b96565b60405180910390fd5b6001845111611426576040517f08c379a000000000000000000000000000000000000000000000000000000000815260040161141d90612bfe565b60405180910390fd5b60015f81548092919061143890612c1c565b91905055505f60015490505f60065f8381526020019081526020015f20905081815f018190555033816001015f6101000a81548173ffffffffffffffffffffffffffffffffffffffff021916908373ffffffffffffffffffffffffffffffffffffffff160217905550878160020190816114b29190612dfa565b50438160030181905550603c876114c9919061234a565b426114d49190612270565b81600401819055505f816005015f6101000a81548160ff0219169083151502179055508581600601908051906020019061150f929190611616565b50855167ffffffffffffffff81111561152b5761152a61183a565b5b6040519080825280602002602001820160405280156115595781602001602082028036833780820191505090505b5081600701908051906020019061157192919061166d565b5084816008015f6101000a81548173ffffffffffffffffffffffffffffffffffffffff021916908373ffffffffffffffffffffffffffffffffffffffff1602179055508381600901819055507f9f6e33c02eac7195e05cdeeda66671bcda6693d8470461ba070c0a24c94e3ed682338a846003015485600401548a8a6040516116009796959493929190612ec9565b60405180910390a1819250505095945050505050565b828054828255905f5260205f2090810192821561165c579160200282015b8281111561165b57825182908161164b9190612dfa565b5091602001919060010190611634565b5b50905061166991906116b8565b5090565b828054828255905f5260205f209081019282156116a7579160200282015b828111156116a657825182559160200191906001019061168b565b5b5090506116b491906116db565b5090565b5b808211156116d7575f81816116ce91906116f6565b506001016116b9565b5090565b5b808211156116f2575f815f9055506001016116dc565b5090565b50805461170290612046565b5f825580601f106117135750611730565b601f0160209004905f5260205f209081019061172f91906116db565b5b50565b5f81519050919050565b5f82825260208201905092915050565b8281835e5f83830152505050565b5f601f19601f8301169050919050565b5f61177582611733565b61177f818561173d565b935061178f81856020860161174d565b6117988161175b565b840191505092915050565b5f6020820190508181035f8301526117bb818461176b565b905092915050565b5f604051905090565b5f5ffd5b5f5ffd5b5f819050919050565b6117e6816117d4565b81146117f0575f5ffd5b50565b5f81359050611801816117dd565b92915050565b5f6020828403121561181c5761181b6117cc565b5b5f611829848285016117f3565b91505092915050565b5f5ffd5b5f5ffd5b7f4e487b71000000000000000000000000000000000000000000000000000000005f52604160045260245ffd5b6118708261175b565b810181811067ffffffffffffffff8211171561188f5761188e61183a565b5b80604052505050565b5f6118a16117c3565b90506118ad8282611867565b919050565b5f67ffffffffffffffff8211156118cc576118cb61183a565b5b6118d58261175b565b9050602081019050919050565b828183375f83830152505050565b5f6119026118fd846118b2565b611898565b90508281526020810184848401111561191e5761191d611836565b5b6119298482856118e2565b509392505050565b5f82601f83011261194557611944611832565b5b81356119558482602086016118f0565b91505092915050565b5f67ffffffffffffffff8211156119785761197761183a565b5b602082029050602081019050919050565b5f5ffd5b5f61199f61199a8461195e565b611898565b905080838252602082019050602084028301858111156119c2576119c1611989565b5b835b81811015611a0957803567ffffffffffffffff8111156119e7576119e6611832565b5b8086016119f48982611931565b855260208501945050506020810190506119c4565b5050509392505050565b5f82601f830112611a2757611a26611832565b5b8135611a3784826020860161198d565b91505092915050565b5f73ffffffffffffffffffffffffffffffffffffffff82169050919050565b5f611a6982611a40565b9050919050565b611a7981611a5f565b8114611a83575f5ffd5b50565b5f81359050611a9481611a70565b92915050565b5f5f5f5f5f60a08688031215611ab357611ab26117cc565b5b5f86013567ffffffffffffffff811115611ad057611acf6117d0565b5b611adc88828901611931565b9550506020611aed888289016117f3565b945050604086013567ffffffffffffffff811115611b0e57611b0d6117d0565b5b611b1a88828901611a13565b9350506060611b2b88828901611a86565b9250506080611b3c888289016117f3565b9150509295509295909350565b611b52816117d4565b82525050565b5f602082019050611b6b5f830184611b49565b92915050565b5f5f5f60608486031215611b8857611b876117cc565b5b5f84013567ffffffffffffffff811115611ba557611ba46117d0565b5b611bb186828701611931565b9350506020611bc2868287016117f3565b925050604084013567ffffffffffffffff811115611be357611be26117d0565b5b611bef86828701611a13565b9150509250925092565b5f611c0382611a40565b9050919050565b611c1381611bf9565b8114611c1d575f5ffd5b50565b5f81359050611c2e81611c0a565b92915050565b5f5f60408385031215611c4a57611c496117cc565b5b5f611c57858286016117f3565b9250506020611c6885828601611c20565b9150509250929050565b5f8115159050919050565b611c8681611c72565b82525050565b5f602082019050611c9f5f830184611c7d565b92915050565b5f819050919050565b5f611cc8611cc3611cbe84611a40565b611ca5565b611a40565b9050919050565b5f611cd982611cae565b9050919050565b5f611cea82611ccf565b9050919050565b611cfa81611ce0565b82525050565b5f602082019050611d135f830184611cf1565b92915050565b5f611d2382611cae565b9050919050565b5f611d3482611d19565b9050919050565b611d4481611d2a565b82525050565b5f602082019050611d5d5f830184611d3b565b92915050565b5f5f60408385031215611d7957611d786117cc565b5b5f611d86858286016117f3565b9250506020611d97858286016117f3565b9150509250929050565b611daa81611bf9565b82525050565b5f81519050919050565b5f82825260208201905092915050565b5f819050602082019050919050565b5f82825260208201905092915050565b5f611df382611733565b611dfd8185611dd9565b9350611e0d81856020860161174d565b611e168161175b565b840191505092915050565b5f611e2c8383611de9565b905092915050565b5f602082019050919050565b5f611e4a82611db0565b611e548185611dba565b935083602082028501611e6685611dca565b805f5b85811015611ea15784840389528151611e828582611e21565b9450611e8d83611e34565b925060208a01995050600181019050611e69565b50829750879550505050505092915050565b5f81519050919050565b5f82825260208201905092915050565b5f819050602082019050919050565b611ee5816117d4565b82525050565b5f611ef68383611edc565b60208301905092915050565b5f602082019050919050565b5f611f1882611eb3565b611f228185611ebd565b9350611f2d83611ecd565b805f5b83811015611f5d578151611f448882611eeb565b9750611f4f83611f02565b925050600181019050611f30565b5085935050505092915050565b5f61014082019050611f7e5f83018d611b49565b611f8b602083018c611da1565b8181036040830152611f9d818b61176b565b9050611fac606083018a611b49565b611fb96080830189611b49565b611fc660a0830188611c7d565b81810360c0830152611fd88187611e40565b905081810360e0830152611fec8186611f0e565b9050611ffc610100830185611da1565b61200a610120830184611b49565b9b9a5050505050505050505050565b7f4e487b71000000000000000000000000000000000000000000000000000000005f52602260045260245ffd5b5f600282049050600182168061205d57607f821691505b6020821081036120705761206f612019565b5b50919050565b7f496e76616c69642070726f706f73616c204944000000000000000000000000005f82015250565b5f6120aa60138361173d565b91506120b582612076565b602082019050919050565b5f6020820190508181035f8301526120d78161209e565b9050919050565b7f566f74696e6720686173206e6f7420656e6465642079657400000000000000005f82015250565b5f61211260188361173d565b915061211d826120de565b602082019050919050565b5f6020820190508181035f83015261213f81612106565b9050919050565b7f50726f706f73616c20616c7265616479206578656375746564000000000000005f82015250565b5f61217a60198361173d565b915061218582612146565b602082019050919050565b5f6020820190508181035f8301526121a78161216e565b9050919050565b7f4e487b71000000000000000000000000000000000000000000000000000000005f52603260045260245ffd5b7f4f7074696f6e203020646964206e6f742077696e0000000000000000000000005f82015250565b5f61220f60148361173d565b915061221a826121db565b602082019050919050565b5f6020820190508181035f83015261223c81612203565b9050919050565b7f4e487b71000000000000000000000000000000000000000000000000000000005f52601160045260245ffd5b5f61227a826117d4565b9150612285836117d4565b925082820190508082111561229d5761229c612243565b5b92915050565b7f4e6f20766f7465732077657265206361737400000000000000000000000000005f82015250565b5f6122d760128361173d565b91506122e2826122a3565b602082019050919050565b5f6020820190508181035f830152612304816122cb565b9050919050565b5f81519050612319816117dd565b92915050565b5f60208284031215612334576123336117cc565b5b5f6123418482850161230b565b91505092915050565b5f612354826117d4565b915061235f836117d4565b925082820261236d816117d4565b9150828204841483151761238457612383612243565b5b5092915050565b7f4e487b71000000000000000000000000000000000000000000000000000000005f52601260045260245ffd5b5f6123c2826117d4565b91506123cd836117d4565b9250826123dd576123dc61238b565b5b828204905092915050565b7f51756f72756d206e6f74206d65740000000000000000000000000000000000005f82015250565b5f61241c600e8361173d565b9150612427826123e8565b602082019050919050565b5f6020820190508181035f83015261244981612410565b9050919050565b5f61245a82611d19565b9050919050565b61246a81612450565b82525050565b5f6040820190506124835f830185612461565b6124906020830184611b49565b9392505050565b5f819050919050565b6124a981612497565b81146124b3575f5ffd5b50565b5f815190506124c4816124a0565b92915050565b5f602082840312156124df576124de6117cc565b5b5f6124ec848285016124b6565b91505092915050565b6124fe81612497565b82525050565b5f6040820190506125175f830185611b49565b61252460208301846124f5565b9392505050565b7f54617267657420616464726573732063616e6e6f74206265207a65726f0000005f82015250565b5f61255f601d8361173d565b915061256a8261252b565b602082019050919050565b5f6020820190508181035f83015261258c81612553565b9050919050565b7f56616c7565206d7573742062652067726561746572207468616e2030000000005f82015250565b5f6125c7601c8361173d565b91506125d282612593565b602082019050919050565b5f6020820190508181035f8301526125f4816125bb565b9050919050565b7f50726f706f73616c20686173206e6f74206265656e20657865637574656420795f8201527f6574000000000000000000000000000000000000000000000000000000000000602082015250565b5f61265560228361173d565b9150612660826125fb565b604082019050919050565b5f6020820190508181035f83015261268281612649565b9050919050565b7f4e6f7420612066696e616e6369616c2070726f706f73616c00000000000000005f82015250565b5f6126bd60188361173d565b91506126c882612689565b602082019050919050565b5f6020820190508181035f8301526126ea816126b1565b9050919050565b5f6020820190506127045f8301846124f5565b92915050565b7f566f74696e672073746172747320696e2074686520626c6f636b2061667465725f8201527f2070726f706f73616c206372656174696f6e0000000000000000000000000000602082015250565b5f61276460328361173d565b915061276f8261270a565b604082019050919050565b5f6020820190508181035f83015261279181612758565b9050919050565b7f566f74696e672068617320656e646564000000000000000000000000000000005f82015250565b5f6127cc60108361173d565b91506127d782612798565b602082019050919050565b5f6020820190508181035f8301526127f9816127c0565b9050919050565b7f416c726561647920766f746564206f6e20746869732070726f706f73616c00005f82015250565b5f612834601e8361173d565b915061283f82612800565b602082019050919050565b5f6020820190508181035f83015261286181612828565b9050919050565b7f496e76616c6964206f7074696f6e20696e6465780000000000000000000000005f82015250565b5f61289c60148361173d565b91506128a782612868565b602082019050919050565b5f6020820190508181035f8301526128c981612890565b9050919050565b5f6040820190506128e35f830185611da1565b6128f06020830184611b49565b9392505050565b7f4e6f20766f74696e6720706f77657200000000000000000000000000000000005f82015250565b5f61292b600f8361173d565b9150612936826128f7565b602082019050919050565b5f6020820190508181035f8301526129588161291f565b9050919050565b5f6080820190506129725f830187611b49565b61297f6020830186611da1565b61298c6040830185611b49565b6129996060830184611b49565b95945050505050565b7f4f6e6c792070726f706f7365722063616e2063616e63656c00000000000000005f82015250565b5f6129d660188361173d565b91506129e1826129a2565b602082019050919050565b5f6020820190508181035f830152612a03816129ca565b9050919050565b7f566f74696e6720616c726561647920656e6465640000000000000000000000005f82015250565b5f612a3e60148361173d565b9150612a4982612a0a565b602082019050919050565b5f6020820190508181035f830152612a6b81612a32565b9050919050565b7f416c7265616479206578656375746564000000000000000000000000000000005f82015250565b5f612aa660108361173d565b9150612ab182612a72565b602082019050919050565b5f6020820190508181035f830152612ad381612a9a565b9050919050565b5f612ae4826117d4565b9150612aef836117d4565b9250828203905081811115612b0757612b06612243565b5b92915050565b5f602082019050612b205f830184611da1565b92915050565b7f566f74696e6720706f7765722062656c6f772070726f706f73616c20746872655f8201527f73686f6c64000000000000000000000000000000000000000000000000000000602082015250565b5f612b8060258361173d565b9150612b8b82612b26565b604082019050919050565b5f6020820190508181035f830152612bad81612b74565b9050919050565b7f4d7573742068617665206174206c656173742032206f7074696f6e73000000005f82015250565b5f612be8601c8361173d565b9150612bf382612bb4565b602082019050919050565b5f6020820190508181035f830152612c1581612bdc565b9050919050565b5f612c26826117d4565b91507fffffffffffffffffffffffffffffffffffffffffffffffffffffffffffffffff8203612c5857612c57612243565b5b600182019050919050565b5f819050815f5260205f209050919050565b5f6020601f8301049050919050565b5f82821b905092915050565b5f60088302612cbf7fffffffffffffffffffffffffffffffffffffffffffffffffffffffffffffffff82612c84565b612cc98683612c84565b95508019841693508086168417925050509392505050565b5f612cfb612cf6612cf1846117d4565b611ca5565b6117d4565b9050919050565b5f819050919050565b612d1483612ce1565b612d28612d2082612d02565b848454612c90565b825550505050565b5f5f905090565b612d3f612d30565b612d4a818484612d0b565b505050565b5b81811015612d6d57612d625f82612d37565b600181019050612d50565b5050565b601f821115612db257612d8381612c63565b612d8c84612c75565b81016020851015612d9b578190505b612daf612da785612c75565b830182612d4f565b50505b505050565b5f82821c905092915050565b5f612dd25f1984600802612db7565b1980831691505092915050565b5f612dea8383612dc3565b9150826002028217905092915050565b612e0382611733565b67ffffffffffffffff811115612e1c57612e1b61183a565b5b612e268254612046565b612e31828285612d71565b5f60209050601f831160018114612e62575f8415612e50578287015190505b612e5a8582612ddf565b865550612ec1565b601f198416612e7086612c63565b5f5b82811015612e9757848901518255600182019150602085019450602081019050612e72565b86831015612eb45784890151612eb0601f891682612dc3565b8355505b6001600288020188555050505b505050505050565b5f60e082019050612edc5f83018a611b49565b612ee96020830189611da1565b8181036040830152612efb818861176b565b9050612f0a6060830187611b49565b612f176080830186611b49565b612f2460a0830185612461565b612f3160c0830184611b49565b9897505050505050505056fea264697066735822122051b12644e3c78f08336e10dbc1339accd74c53abb2976ae61b7b8ffb043c907d64736f6c634300081c0033608060405234801561000f575f5ffd5b506040516112d73803806112d783398181016040528101906100319190610165565b600161004f6100446100a260201b60201c565b6100cb60201b60201c565b5f0181905550815f5f6101000a81548173ffffffffffffffffffffffffffffffffffffffff021916908373ffffffffffffffffffffffffffffffffffffffff1602179055508060018190555050506101a3565b5f7f9b779b17422d0df92223018b32b4d1fa46e071723d6817e2486d003becc55f005f1b905090565b5f819050919050565b5f5ffd5b5f73ffffffffffffffffffffffffffffffffffffffff82169050919050565b5f610101826100d8565b9050919050565b610111816100f7565b811461011b575f5ffd5b50565b5f8151905061012c81610108565b92915050565b5f819050919050565b61014481610132565b811461014e575f5ffd5b50565b5f8151905061015f8161013b565b92915050565b5f5f6040838503121561017b5761017a6100d4565b5b5f6101888582860161011e565b925050602061019985828601610151565b9150509250929050565b611127806101b05f395ff3fe608060405260043610610073575f3560e01c806370ba33391161004d57806370ba33391461015c578063c69ed5f214610184578063eef09bad146101ac578063f2b06537146101d6576100c8565b806312065fe0146100cc578063542250cc146100f65780635aa6e67514610132576100c8565b366100c8573373ffffffffffffffffffffffffffffffffffffffff167f8e47b87b0ef542cdfa1659c551d88bad38aa7f452d2bbb349ab7530dfec8be8f346040516100be9190610a86565b60405180910390a2005b5f5ffd5b3480156100d7575f5ffd5b506100e0610216565b6040516100ed9190610a86565b60405180910390f35b348015610101575f5ffd5b5061011c60048036038101906101179190610b27565b61021d565b6040516101299190610b7d565b60405180910390f35b34801561013d575f5ffd5b50610146610489565b6040516101539190610ba5565b60405180910390f35b348015610167575f5ffd5b50610182600480360381019061017d9190610be8565b6104ad565b005b34801561018f575f5ffd5b506101aa60048036038101906101a59190610be8565b610634565b005b3480156101b7575f5ffd5b506101c0610933565b6040516101cd9190610a86565b60405180910390f35b3480156101e1575f5ffd5b506101fc60048036038101906101f79190610be8565b610939565b60405161020d959493929190610c2d565b60405180910390f35b5f47905090565b5f5f5f9054906101000a900473ffffffffffffffffffffffffffffffffffffffff1673ffffffffffffffffffffffffffffffffffffffff163373ffffffffffffffffffffffffffffffffffffffff16146102ac576040517f08c379a00000000000000000000000000000000000000000000000000000000081526004016102a390610cfe565b60405180910390fd5b5f600154426102bb9190610d49565b90505f8484836040516020016102d393929190610d7c565b6040516020818303038152906040528051906020012090505f60025f8381526020019081526020015f206002015414610341576040517f08c379a000000000000000000000000000000000000000000000000000000000815260040161033890610dfb565b60405180910390fd5b6040518060a001604052808673ffffffffffffffffffffffffffffffffffffffff1681526020018581526020018381526020015f151581526020015f151581525060025f8381526020019081526020015f205f820151815f015f6101000a81548173ffffffffffffffffffffffffffffffffffffffff021916908373ffffffffffffffffffffffffffffffffffffffff16021790555060208201518160010155604082015181600201556060820151816003015f6101000a81548160ff02191690831515021790555060808201518160030160016101000a81548160ff0219169083151502179055509050508473ffffffffffffffffffffffffffffffffffffffff16817f7519d8853a123928eedd53667daaff4654e17e3156685ee5d16f01e07cad01098685604051610476929190610e19565b60405180910390a3809250505092915050565b5f5f9054906101000a900473ffffffffffffffffffffffffffffffffffffffff1681565b5f5f9054906101000a900473ffffffffffffffffffffffffffffffffffffffff1673ffffffffffffffffffffffffffffffffffffffff163373ffffffffffffffffffffffffffffffffffffffff161461053b576040517f08c379a000000000000000000000000000000000000000000000000000000000815260040161053290610cfe565b60405180910390fd5b5f60025f8381526020019081526020015f2090505f816002015403610595576040517f08c379a000000000000000000000000000000000000000000000000000000000815260040161058c90610e8a565b60405180910390fd5b806003015f9054906101000a900460ff16156105e6576040517f08c379a00000000000000000000000000000000000000000000000000000000081526004016105dd90610ef2565b60405180910390fd5b60018160030160016101000a81548160ff021916908315150217905550817f0891e6c675e964cf1e5982f60fda276ad06301a9221b2f1d7bf2b2a42fbd69a160405160405180910390a25050565b61063c6109a3565b5f60025f8381526020019081526020015f2090505f816002015403610696576040517f08c379a000000000000000000000000000000000000000000000000000000000815260040161068d90610e8a565b60405180910390fd5b806003015f9054906101000a900460ff16156106e7576040517f08c379a00000000000000000000000000000000000000000000000000000000081526004016106de90610ef2565b60405180910390fd5b8060030160019054906101000a900460ff1615610739576040517f08c379a000000000000000000000000000000000000000000000000000000000815260040161073090610f5a565b60405180910390fd5b8060020154421015610780576040517f08c379a000000000000000000000000000000000000000000000000000000000815260040161077790610fc2565b60405180910390fd5b80600101544710156107c7576040517f08c379a00000000000000000000000000000000000000000000000000000000081526004016107be9061102a565b60405180910390fd5b6001816003015f6101000a81548160ff0219169083151502179055505f815f015f9054906101000a900473ffffffffffffffffffffffffffffffffffffffff1673ffffffffffffffffffffffffffffffffffffffff16826001015460405161082e90611075565b5f6040518083038185875af1925050503d805f8114610868576040519150601f19603f3d011682016040523d82523d5f602084013e61086d565b606091505b50509050806108b1576040517f08c379a00000000000000000000000000000000000000000000000000000000081526004016108a8906110d3565b60405180910390fd5b815f015f9054906101000a900473ffffffffffffffffffffffffffffffffffffffff1673ffffffffffffffffffffffffffffffffffffffff16837ff428004d3339c4a2d18a1bb05bf349f4a610100cde4d4dccde22bff25664c4fa846001015460405161091e9190610a86565b60405180910390a350506109306109c5565b50565b60015481565b6002602052805f5260405f205f91509050805f015f9054906101000a900473ffffffffffffffffffffffffffffffffffffffff1690806001015490806002015490806003015f9054906101000a900460ff16908060030160019054906101000a900460ff16905085565b6109ab6109df565b60026109bd6109b8610a20565b610a49565b5f0181905550565b60016109d76109d2610a20565b610a49565b5f0181905550565b6109e7610a52565b15610a1e576040517f3ee5aeb500000000000000000000000000000000000000000000000000000000815260040160405180910390fd5b565b5f7f9b779b17422d0df92223018b32b4d1fa46e071723d6817e2486d003becc55f005f1b905090565b5f819050919050565b5f6002610a65610a60610a20565b610a49565b5f015414905090565b5f819050919050565b610a8081610a6e565b82525050565b5f602082019050610a995f830184610a77565b92915050565b5f5ffd5b5f73ffffffffffffffffffffffffffffffffffffffff82169050919050565b5f610acc82610aa3565b9050919050565b610adc81610ac2565b8114610ae6575f5ffd5b50565b5f81359050610af781610ad3565b92915050565b610b0681610a6e565b8114610b10575f5ffd5b50565b5f81359050610b2181610afd565b92915050565b5f5f60408385031215610b3d57610b3c610a9f565b5b5f610b4a85828601610ae9565b9250506020610b5b85828601610b13565b9150509250929050565b5f819050919050565b610b7781610b65565b82525050565b5f602082019050610b905f830184610b6e565b92915050565b610b9f81610ac2565b82525050565b5f602082019050610bb85f830184610b96565b92915050565b610bc781610b65565b8114610bd1575f5ffd5b50565b5f81359050610be281610bbe565b92915050565b5f60208284031215610bfd57610bfc610a9f565b5b5f610c0a84828501610bd4565b91505092915050565b5f8115159050919050565b610c2781610c13565b82525050565b5f60a082019050610c405f830188610b96565b610c4d6020830187610a77565b610c5a6040830186610a77565b610c676060830185610c1e565b610c746080830184610c1e565b9695505050505050565b5f82825260208201905092915050565b7f4f6e6c792074686520476f7665726e616e636520636f6e74726163742063616e5f8201527f2063616c6c207468697300000000000000000000000000000000000000000000602082015250565b5f610ce8602a83610c7e565b9150610cf382610c8e565b604082019050919050565b5f6020820190508181035f830152610d1581610cdc565b9050919050565b7f4e487b71000000000000000000000000000000000000000000000000000000005f52601160045260245ffd5b5f610d5382610a6e565b9150610d5e83610a6e565b9250828201905080821115610d7657610d75610d1c565b5b92915050565b5f606082019050610d8f5f830186610b96565b610d9c6020830185610a77565b610da96040830184610a77565b949350505050565b7f5472616e73616374696f6e20616c7265616479207175657565640000000000005f82015250565b5f610de5601a83610c7e565b9150610df082610db1565b602082019050919050565b5f6020820190508181035f830152610e1281610dd9565b9050919050565b5f604082019050610e2c5f830185610a77565b610e396020830184610a77565b9392505050565b7f5472616e73616374696f6e20646f6573206e6f742065786973740000000000005f82015250565b5f610e74601a83610c7e565b9150610e7f82610e40565b602082019050919050565b5f6020820190508181035f830152610ea181610e68565b9050919050565b7f5472616e73616374696f6e20616c7265616479206578656375746564000000005f82015250565b5f610edc601c83610c7e565b9150610ee782610ea8565b602082019050919050565b5f6020820190508181035f830152610f0981610ed0565b9050919050565b7f5472616e73616374696f6e207761732063616e63656c6c6564000000000000005f82015250565b5f610f44601983610c7e565b9150610f4f82610f10565b602082019050919050565b5f6020820190508181035f830152610f7181610f38565b9050919050565b7f54696d656c6f636b2064656c617920686173206e6f74207061737365640000005f82015250565b5f610fac601d83610c7e565b9150610fb782610f78565b602082019050919050565b5f6020820190508181035f830152610fd981610fa0565b9050919050565b7f496e73756666696369656e742074726561737572792062616c616e63650000005f82015250565b5f611014601d83610c7e565b915061101f82610fe0565b602082019050919050565b5f6020820190508181035f83015261104181611008565b9050919050565b5f81905092915050565b50565b5f6110605f83611048565b915061106b82611052565b5f82019050919050565b5f61107f82611055565b9150819050919050565b7f455448207472616e73666572206661696c6564000000000000000000000000005f82015250565b5f6110bd601383610c7e565b91506110c882611089565b602082019050919050565b5f6020820190508181035f8301526110ea816110b1565b905091905056fea264697066735822122024ff393b1bcd695826a18b8dbb16df6d49f00e9062a21d571182c4637761af1c64736f6c634300081c0033",
  "linkReferences": {},
  "deployedLinkReferences": {}
}