{
  "_format": "hh-sol-artifact-1",
  "contractName": "Governance",
  "sourceName": "contracts/Governance.sol",
  "abi": [
    {
      "inputs": [
        {
          "internalType": "string",
          "name": "_name",
          "type": "string"
        },
        {
          "internalType": "address",
          "name": "_tokenAddress",
          "type": "address"
        },
        {
          "internalType": "uint256",
          "name": "_proposalThreshold",
          "type": "uint256"
        },
        {
          "internalType": "uint256",
          "name": "_timelockDelay",
          "type": "uint256"
        }
      ],
      "stateMutability": "nonpayable",
      "type": "constructor"
    },
    {
      "anonymous": false,
      "inputs": [
        {
          "indexed": false,
          "internalType": "uint256",
          "name": "id",
          "type": "uint256"
        },
        {
          "indexed": false,
          "internalType": "address",
          "name": "proposer",
          "type": "address"
        },
        {
          "indexed": false,
          "internalType": "string",
          "name": "description",
          "type": "string"
        },
        {
          "indexed": false,
          "internalType": "uint256",
          "name": "snapshotBlock",
          "type": "uint256"
        },
        {
          "indexed": false,
          "internalType": "uint256",
          "name": "endTime",
          "type": "uint256"
        },
        {
          "indexed": false,
          "internalType": "address",
          "name": "target",
          "type": "address"
        },
        {
          "indexed": false,
          "internalType": "uint256",
          "name": "value",
          "type": "uint256"
        }
      ],
      "name": "ProposalCreated",
      "type": "event"
    },
    {
      "anonymous": false,
      "inputs": [
        {
          "indexed": false,
          "internalType": "uint256",
          "name": "proposalId",
          "type": "uint256"
        }
      ],
      "name": "ProposalExecuted",
      "type": "event"
    },
    {
      "anonymous": false,
      "inputs": [
        {
          "indexed": false,
          "internalType": "uint256",
          "name": "proposalId",
          "type": "uint256"
        },
        {
          "indexed": false,
          "internalType": "bytes32",
          "name": "timelockTxId",
          "type": "bytes32"
        }
      ],
      "name": "ProposalQueued",
      "type": "event"
    },
    {
      "anonymous": false,
      "inputs": [
        {
          "indexed": false,
          "internalType": "uint256",
          "name": "proposalId",
          "type": "uint256"
        },
        {
          "indexed": false,
          "internalType": "address",
          "name": "voter",
          "type": "address"
        },
        {
          "indexed": false,
          "internalType": "uint256",
          "name": "optionIndex",
          "type": "uint256"
        },
        {
          "indexed": false,
          "internalType": "uint256",
          "name": "weight",
          "type": "uint256"
        }
      ],
      "name": "VoteCast",
      "type": "event"
    },
    {
      "inputs": [],
      "name": "bloomToken",
      "outputs": [
        {
          "internalType": "contract ERC20Votes",
          "name": "",
          "type": "address"
        }
      ],
      "stateMutability": "view",
      "type": "function"
    },
    {
      "inputs": [
        {
          "internalType": "string",
          "name": "_description",
          "type": "string"
        },
        {
          "internalType": "uint256",
          "name": "_durationMinutes",
          "type": "uint256"
        },
        {
          "internalType": "string[]",
          "name": "_options",
          "type": "string[]"
        },
        {
          "internalType": "address payable",
          "name": "_target",
          "type": "address"
        },
        {
          "internalType": "uint256",
          "name": "_value",
          "type": "uint256"
        }
      ],
      "name": "createFinancialProposal",
      "outputs": [
        {
          "internalType": "uint256",
          "name": "",
          "type": "uint256"
        }
      ],
      "stateMutability": "nonpayable",
      "type": "function"
    },
    {
      "inputs": [
        {
          "internalType": "string",
          "name": "_description",
          "type": "string"
        },
        {
          "internalType": "uint256",
          "name": "_durationMinutes",
          "type": "uint256"
        },
        {
          "internalType": "string[]",
          "name": "_options",
          "type": "string[]"
        }
      ],
      "name": "createProposal",
      "outputs": [
        {
          "internalType": "uint256",
          "name": "",
          "type": "uint256"
        }
      ],
      "stateMutability": "nonpayable",
      "type": "function"
    },
    {
      "inputs": [
        {
          "internalType": "uint256",
          "name": "_proposalId",
          "type": "uint256"
        }
      ],
      "name": "executeProposal",
      "outputs": [],
      "stateMutability": "nonpayable",
      "type": "function"
    },
    {
      "inputs": [
        {
          "internalType": "uint256",
          "name": "_proposalId",
          "type": "uint256"
        }
      ],
      "name": "finalizeProposal",
      "outputs": [],
      "stateMutability": "nonpayable",
      "type": "function"
    },
    {
      "inputs": [
        {
          "internalType": "uint256",
          "name": "_proposalId",
          "type": "uint256"
        }
      ],
      "name": "getProposal",
      "outputs": [
        {
          "internalType": "uint256",
          "name": "id",
          "type": "uint256"
        },
        {
          "internalType": "address",
          "name": "proposer",
          "type": "address"
        },
        {
          "internalType": "string",
          "name": "description",
          "type": "string"
        },
        {
          "internalType": "uint256",
          "name": "snapshotBlock",
          "type": "uint256"
        },
        {
          "internalType": "uint256",
          "name": "endTime",
          "type": "uint256"
        },
        {
          "internalType": "bool",
          "name": "executed",
          "type": "bool"
        },
        {
          "internalType": "string[]",
          "name": "optionNames",
          "type": "string[]"
        },
        {
          "internalType": "uint256[]",
          "name": "optionVotes",
          "type": "uint256[]"
        },
        {
          "internalType": "address",
          "name": "target",
          "type": "address"
        },
        {
          "internalType": "uint256",
          "name": "value",
          "type": "uint256"
        }
      ],
      "stateMutability": "view",
      "type": "function"
    },
    {
      "inputs": [
        {
          "internalType": "uint256",
          "name": "",
          "type": "uint256"
        },
        {
          "internalType": "address",
          "name": "",
          "type": "address"
        }
      ],
      "name": "hasVoted",
      "outputs": [
        {
          "internalType": "bool",
          "name": "",
          "type": "bool"
        }
      ],
      "stateMutability": "view",
      "type": "function"
    },
    {
      "inputs": [],
      "name": "name",
      "outputs": [
        {
          "internalType": "string",
          "name": "",
          "type": "string"
        }
      ],
      "stateMutability": "view",
      "type": "function"
    },
    {
      "inputs": [],
      "name": "proposalCount",
      "outputs": [
        {
          "internalType": "uint256",
          "name": "",
          "type": "uint256"
        }
      ],
      "stateMutability": "view",
      "type": "function"
    },
    {
      "inputs": [],
      "name": "proposalThreshold",
      "outputs": [
        {
          "internalType": "uint256",
          "name": "",
          "type": "uint256"
        }
      ],
      "stateMutability": "view",
      "type": "function"
    },
    {
      "inputs": [],
      "name": "treasury",
      "outputs": [
        {
          "internalType": "contract Treasury",
          "name": "",
          "type": "address"
        }
      ],
      "stateMutability": "view",
      "type": "function"
    },
    {
      "inputs": [
        {
          "internalType": "uint256",
          "name": "_proposalId",
          "type": "uint256"
        },
        {
          "internalType": "uint256",
          "name": "_optionIndex",
          "type": "uint256"
        }
      ],
      "name": "vote",
      "outputs": [],
      "stateMutability": "nonpayable",
      "type": "function"
    }
  ],
  "bytecode": "0x608060405234801561000f575f5ffd5b50604051614245380380614245833981810160405281019061003191906102e9565b835f908161003f9190610570565b508260025f6101000a81548173ffffffffffffffffffffffffffffffffffffffff021916908373ffffffffffffffffffffffffffffffffffffffff16021790555081600481905550308160405161009590610102565b6100a092919061065d565b604051809103905ff0801580156100b9573d5f5f3e3d5ffd5b5060035f6101000a81548173ffffffffffffffffffffffffffffffffffffffff021916908373ffffffffffffffffffffffffffffffffffffffff16021790555050505050610684565b6111a68061309f83390190565b5f604051905090565b5f5ffd5b5f5ffd5b5f5ffd5b5f5ffd5b5f601f19601f8301169050919050565b7f4e487b71000000000000000000000000000000000000000000000000000000005f52604160045260245ffd5b61016e82610128565b810181811067ffffffffffffffff8211171561018d5761018c610138565b5b80604052505050565b5f61019f61010f565b90506101ab8282610165565b919050565b5f67ffffffffffffffff8211156101ca576101c9610138565b5b6101d382610128565b9050602081019050919050565b8281835e5f83830152505050565b5f6102006101fb846101b0565b610196565b90508281526020810184848401111561021c5761021b610124565b5b6102278482856101e0565b509392505050565b5f82601f83011261024357610242610120565b5b81516102538482602086016101ee565b91505092915050565b5f73ffffffffffffffffffffffffffffffffffffffff82169050919050565b5f6102858261025c565b9050919050565b6102958161027b565b811461029f575f5ffd5b50565b5f815190506102b08161028c565b92915050565b5f819050919050565b6102c8816102b6565b81146102d2575f5ffd5b50565b5f815190506102e3816102bf565b92915050565b5f5f5f5f6080858703121561030157610300610118565b5b5f85015167ffffffffffffffff81111561031e5761031d61011c565b5b61032a8782880161022f565b945050602061033b878288016102a2565b935050604061034c878288016102d5565b925050606061035d878288016102d5565b91505092959194509250565b5f81519050919050565b7f4e487b71000000000000000000000000000000000000000000000000000000005f52602260045260245ffd5b5f60028204905060018216806103b757607f821691505b6020821081036103ca576103c9610373565b5b50919050565b5f819050815f5260205f209050919050565b5f6020601f8301049050919050565b5f82821b905092915050565b5f6008830261042c7fffffffffffffffffffffffffffffffffffffffffffffffffffffffffffffffff826103f1565b61043686836103f1565b95508019841693508086168417925050509392505050565b5f819050919050565b5f61047161046c610467846102b6565b61044e565b6102b6565b9050919050565b5f819050919050565b61048a83610457565b61049e61049682610478565b8484546103fd565b825550505050565b5f5f905090565b6104b56104a6565b6104c0818484610481565b505050565b5b818110156104e3576104d85f826104ad565b6001810190506104c6565b5050565b601f821115610528576104f9816103d0565b610502846103e2565b81016020851015610511578190505b61052561051d856103e2565b8301826104c5565b50505b505050565b5f82821c905092915050565b5f6105485f198460080261052d565b1980831691505092915050565b5f6105608383610539565b9150826002028217905092915050565b61057982610369565b67ffffffffffffffff81111561059257610591610138565b5b61059c82546103a0565b6105a78282856104e7565b5f60209050601f8311600181146105d8575f84156105c6578287015190505b6105d08582610555565b865550610637565b601f1984166105e6866103d0565b5f5b8281101561060d578489015182556001820191506020850194506020810190506105e8565b8683101561062a5784890151610626601f891682610539565b8355505b6001600288020188555050505b505050505050565b6106488161027b565b82525050565b610657816102b6565b82525050565b5f6040820190506106705f83018561063f565b61067d602083018461064e565b9392505050565b612a0e806106915f395ff3fe608060405234801561000f575f5ffd5b50600436106100b2575f3560e01c806361d027b31161006f57806361d027b31461019c578063b2491e67146101ba578063b384abef146101d8578063b58131b0146101f4578063c7f758a814610212578063da35c6641461024b576100b2565b806306fdde03146100b65780630d61b519146100d457806310c6f4ab146100f05780631df787841461012057806343859632146101505780635652077c14610180575b5f5ffd5b6100be610269565b6040516100cb919061146e565b60405180910390f35b6100ee60048036038101906100e991906114d2565b6102f4565b005b61010a60048036038101906101059190611765565b6106a0565b6040516101179190611823565b60405180910390f35b61013a6004803603810190610135919061183c565b610769565b6040516101479190611823565b60405180910390f35b61016a600480360381019061016591906118ff565b610780565b6040516101779190611957565b60405180910390f35b61019a600480360381019061019591906114d2565b6107aa565b005b6101a4610935565b6040516101b191906119cb565b60405180910390f35b6101c261095a565b6040516101cf9190611a15565b60405180910390f35b6101f260048036038101906101ed9190611a2e565b61097f565b005b6101fc610d11565b6040516102099190611823565b60405180910390f35b61022c600480360381019061022791906114d2565b610d17565b6040516102429a99989796959493929190611c35565b60405180910390f35b610253610fc9565b6040516102609190611823565b60405180910390f35b5f805461027590611d11565b80601f01602080910402602001604051908101604052809291908181526020018280546102a190611d11565b80156102ec5780601f106102c3576101008083540402835291602001916102ec565b820191905f5260205f20905b8154815290600101906020018083116102cf57829003601f168201915b505050505081565b5f8111801561030557506001548111155b610344576040517f08c379a000000000000000000000000000000000000000000000000000000000815260040161033b90611d8b565b60405180910390fd5b5f60055f8381526020019081526020015f2090508060040154421161039e576040517f08c379a000000000000000000000000000000000000000000000000000000000815260040161039590611df3565b60405180910390fd5b806005015f9054906101000a900460ff16156103ef576040517f08c379a00000000000000000000000000000000000000000000000000000000081526004016103e690611e5b565b60405180910390fd5b5f816007015f8154811061040657610405611e79565b5b905f5260205f20015490505f600190505b82600701805490508110156104945782600701818154811061043c5761043b611e79565b5b905f5260205f200154821015610487576040517f08c379a000000000000000000000000000000000000000000000000000000000815260040161047e90611ef0565b60405180910390fd5b8080600101915050610417565b505f81116104d7576040517f08c379a00000000000000000000000000000000000000000000000000000000081526004016104ce90611f58565b60405180910390fd5b6001826005015f6101000a81548160ff0219169083151502179055505f73ffffffffffffffffffffffffffffffffffffffff16826008015f9054906101000a900473ffffffffffffffffffffffffffffffffffffffff1673ffffffffffffffffffffffffffffffffffffffff161415801561055557505f8260090154115b15610664575f60035f9054906101000a900473ffffffffffffffffffffffffffffffffffffffff1673ffffffffffffffffffffffffffffffffffffffff1663542250cc846008015f9054906101000a900473ffffffffffffffffffffffffffffffffffffffff1685600901546040518363ffffffff1660e01b81526004016105de929190611f96565b6020604051808303815f875af11580156105fa573d5f5f3e3d5ffd5b505050506040513d601f19601f8201168201806040525081019061061e9190611ff0565b90508083600a01819055507f025b0c83fe178c6c2484be14bc8ffaaadb46e5136f7aba5e4fa7059edcd7161a848260405161065a92919061202a565b60405180910390a1505b7f712ae1383f79ac853f8d882153778e0260ef8f03b504e2866e0593e04d2b291f836040516106939190611823565b60405180910390a1505050565b5f5f73ffffffffffffffffffffffffffffffffffffffff168373ffffffffffffffffffffffffffffffffffffffff160361070f576040517f08c379a00000000000000000000000000000000000000000000000000000000081526004016107069061209b565b60405180910390fd5b5f8211610751576040517f08c379a000000000000000000000000000000000000000000000000000000000815260040161074890612103565b60405180910390fd5b61075e8686868686610fcf565b905095945050505050565b5f6107778484845f5f610fcf565b90509392505050565b6006602052815f5260405f20602052805f5260405f205f915091509054906101000a900460ff1681565b5f811180156107bb57506001548111155b6107fa576040517f08c379a00000000000000000000000000000000000000000000000000000000081526004016107f190611d8b565b60405180910390fd5b5f60055f8381526020019081526020015f209050806005015f9054906101000a900460ff1661085e576040517f08c379a000000000000000000000000000000000000000000000000000000000815260040161085590612191565b60405180910390fd5b5f5f1b81600a0154036108a6576040517f08c379a000000000000000000000000000000000000000000000000000000000815260040161089d906121f9565b60405180910390fd5b60035f9054906101000a900473ffffffffffffffffffffffffffffffffffffffff1673ffffffffffffffffffffffffffffffffffffffff1663c69ed5f282600a01546040518263ffffffff1660e01b81526004016109049190612217565b5f604051808303815f87803b15801561091b575f5ffd5b505af115801561092d573d5f5f3e3d5ffd5b505050505050565b60035f9054906101000a900473ffffffffffffffffffffffffffffffffffffffff1681565b60025f9054906101000a900473ffffffffffffffffffffffffffffffffffffffff1681565b5f8211801561099057506001548211155b6109cf576040517f08c379a00000000000000000000000000000000000000000000000000000000081526004016109c690611d8b565b60405180910390fd5b5f60055f8481526020019081526020015f20905080600301544311610a29576040517f08c379a0000000000000000000000000000000000000000000000000000000008152600401610a20906122a0565b60405180910390fd5b8060040154421115610a70576040517f08c379a0000000000000000000000000000000000000000000000000000000008152600401610a6790612308565b60405180910390fd5b60065f8481526020019081526020015f205f3373ffffffffffffffffffffffffffffffffffffffff1673ffffffffffffffffffffffffffffffffffffffff1681526020019081526020015f205f9054906101000a900460ff1615610b09576040517f08c379a0000000000000000000000000000000000000000000000000000000008152600401610b0090612370565b60405180910390fd5b80600601805490508210610b52576040517f08c379a0000000000000000000000000000000000000000000000000000000008152600401610b49906123d8565b60405180910390fd5b5f60025f9054906101000a900473ffffffffffffffffffffffffffffffffffffffff1673ffffffffffffffffffffffffffffffffffffffff16633a46b1a83384600301546040518363ffffffff1660e01b8152600401610bb39291906123f6565b602060405180830381865afa158015610bce573d5f5f3e3d5ffd5b505050506040513d601f19601f82011682018060405250810190610bf29190612431565b90505f8111610c36576040517f08c379a0000000000000000000000000000000000000000000000000000000008152600401610c2d906124a6565b60405180910390fd5b600160065f8681526020019081526020015f205f3373ffffffffffffffffffffffffffffffffffffffff1673ffffffffffffffffffffffffffffffffffffffff1681526020019081526020015f205f6101000a81548160ff02191690831515021790555080826007018481548110610cb157610cb0611e79565b5b905f5260205f20015f828254610cc791906124f1565b925050819055507f0271f53eebbe20450d9578f28ec279231556c34545b30e2278d754ffd39cd63c84338584604051610d039493929190612524565b60405180910390a150505050565b60045481565b5f5f60605f5f5f6060805f5f5f8b118015610d3457506001548b11155b610d73576040517f08c379a0000000000000000000000000000000000000000000000000000000008152600401610d6a90611d8b565b60405180910390fd5b5f60055f8d81526020019081526020015f209050805f0154816001015f9054906101000a900473ffffffffffffffffffffffffffffffffffffffff168260020183600301548460040154856005015f9054906101000a900460ff168660060187600701886008015f9054906101000a900473ffffffffffffffffffffffffffffffffffffffff168960090154878054610e0b90611d11565b80601f0160208091040260200160405190810160405280929190818152602001828054610e3790611d11565b8015610e825780601f10610e5957610100808354040283529160200191610e82565b820191905f5260205f20905b815481529060010190602001808311610e6557829003601f168201915b5050505050975083805480602002602001604051908101604052809291908181526020015f905b82821015610f51578382905f5260205f20018054610ec690611d11565b80601f0160208091040260200160405190810160405280929190818152602001828054610ef290611d11565b8015610f3d5780601f10610f1457610100808354040283529160200191610f3d565b820191905f5260205f20905b815481529060010190602001808311610f2057829003601f168201915b505050505081526020019060010190610ea9565b50505050935082805480602002602001604051908101604052809291908181526020018280548015610fa057602002820191905f5260205f20905b815481526020019060010190808311610f8c575b505050505092509a509a509a509a509a509a509a509a509a509a50509193959799509193959799565b60015481565b5f60045460025f9054906101000a900473ffffffffffffffffffffffffffffffffffffffff1673ffffffffffffffffffffffffffffffffffffffff16639ab24eb0336040518263ffffffff1660e01b815260040161102d9190612567565b602060405180830381865afa158015611048573d5f5f3e3d5ffd5b505050506040513d601f19601f8201168201806040525081019061106c9190612431565b10156110ad576040517f08c379a00000000000000000000000000000000000000000000000000000000081526004016110a4906125f0565b60405180910390fd5b60018451116110f1576040517f08c379a00000000000000000000000000000000000000000000000000000000081526004016110e890612658565b60405180910390fd5b60015f81548092919061110390612676565b91905055505f60015490505f60055f8381526020019081526020015f20905081815f018190555033816001015f6101000a81548173ffffffffffffffffffffffffffffffffffffffff021916908373ffffffffffffffffffffffffffffffffffffffff1602179055508781600201908161117d9190612854565b50438160030181905550603c876111949190612923565b4261119f91906124f1565b81600401819055505f816005015f6101000a81548160ff021916908315150217905550858160060190805190602001906111da9291906112e1565b50855167ffffffffffffffff8111156111f6576111f5611505565b5b6040519080825280602002602001820160405280156112245781602001602082028036833780820191505090505b5081600701908051906020019061123c929190611338565b5084816008015f6101000a81548173ffffffffffffffffffffffffffffffffffffffff021916908373ffffffffffffffffffffffffffffffffffffffff1602179055508381600901819055507f9f6e33c02eac7195e05cdeeda66671bcda6693d8470461ba070c0a24c94e3ed682338a846003015485600401548a8a6040516112cb9796959493929190612964565b60405180910390a1819250505095945050505050565b828054828255905f5260205f20908101928215611327579160200282015b828111156113265782518290816113169190612854565b50916020019190600101906112ff565b5b5090506113349190611383565b5090565b828054828255905f5260205f20908101928215611372579160200282015b82811115611371578251825591602001919060010190611356565b5b50905061137f91906113a6565b5090565b5b808211156113a2575f818161139991906113c1565b50600101611384565b5090565b5b808211156113bd575f815f9055506001016113a7565b5090565b5080546113cd90611d11565b5f825580601f106113de57506113fb565b601f0160209004905f5260205f20908101906113fa91906113a6565b5b50565b5f81519050919050565b5f82825260208201905092915050565b8281835e5f83830152505050565b5f601f19601f8301169050919050565b5f611440826113fe565b61144a8185611408565b935061145a818560208601611418565b61146381611426565b840191505092915050565b5f6020820190508181035f8301526114868184611436565b905092915050565b5f604051905090565b5f5ffd5b5f5ffd5b5f819050919050565b6114b18161149f565b81146114bb575f5ffd5b50565b5f813590506114cc816114a8565b92915050565b5f602082840312156114e7576114e6611497565b5b5f6114f4848285016114be565b91505092915050565b5f5ffd5b5f5ffd5b7f4e487b71000000000000000000000000000000000000000000000000000000005f52604160045260245ffd5b61153b82611426565b810181811067ffffffffffffffff8211171561155a57611559611505565b5b80604052505050565b5f61156c61148e565b90506115788282611532565b919050565b5f67ffffffffffffffff82111561159757611596611505565b5b6115a082611426565b9050602081019050919050565b828183375f83830152505050565b5f6115cd6115c88461157d565b611563565b9050828152602081018484840111156115e9576115e8611501565b5b6115f48482856115ad565b509392505050565b5f82601f8301126116105761160f6114fd565b5b81356116208482602086016115bb565b91505092915050565b5f67ffffffffffffffff82111561164357611642611505565b5b602082029050602081019050919050565b5f5ffd5b5f61166a61166584611629565b611563565b9050808382526020820190506020840283018581111561168d5761168c611654565b5b835b818110156116d457803567ffffffffffffffff8111156116b2576116b16114fd565b5b8086016116bf89826115fc565b8552602085019450505060208101905061168f565b5050509392505050565b5f82601f8301126116f2576116f16114fd565b5b8135611702848260208601611658565b91505092915050565b5f73ffffffffffffffffffffffffffffffffffffffff82169050919050565b5f6117348261170b565b9050919050565b6117448161172a565b811461174e575f5ffd5b50565b5f8135905061175f8161173b565b92915050565b5f5f5f5f5f60a0868803121561177e5761177d611497565b5b5f86013567ffffffffffffffff81111561179b5761179a61149b565b5b6117a7888289016115fc565b95505060206117b8888289016114be565b945050604086013567ffffffffffffffff8111156117d9576117d861149b565b5b6117e5888289016116de565b93505060606117f688828901611751565b9250506080611807888289016114be565b9150509295509295909350565b61181d8161149f565b82525050565b5f6020820190506118365f830184611814565b92915050565b5f5f5f6060848603121561185357611852611497565b5b5f84013567ffffffffffffffff8111156118705761186f61149b565b5b61187c868287016115fc565b935050602061188d868287016114be565b925050604084013567ffffffffffffffff8111156118ae576118ad61149b565b5b6118ba868287016116de565b9150509250925092565b5f6118ce8261170b565b9050919050565b6118de816118c4565b81146118e8575f5ffd5b50565b5f813590506118f9816118d5565b92915050565b5f5f6040838503121561191557611914611497565b5b5f611922858286016114be565b9250506020611933858286016118eb565b9150509250929050565b5f8115159050919050565b6119518161193d565b82525050565b5f60208201905061196a5f830184611948565b92915050565b5f819050919050565b5f61199361198e6119898461170b565b611970565b61170b565b9050919050565b5f6119a482611979565b9050919050565b5f6119b58261199a565b9050919050565b6119c5816119ab565b82525050565b5f6020820190506119de5f8301846119bc565b92915050565b5f6119ee82611979565b9050919050565b5f6119ff826119e4565b9050919050565b611a0f816119f5565b82525050565b5f602082019050611a285f830184611a06565b92915050565b5f5f60408385031215611a4457611a43611497565b5b5f611a51858286016114be565b9250506020611a62858286016114be565b9150509250929050565b611a75816118c4565b82525050565b5f81519050919050565b5f82825260208201905092915050565b5f819050602082019050919050565b5f82825260208201905092915050565b5f611abe826113fe565b611ac88185611aa4565b9350611ad8818560208601611418565b611ae181611426565b840191505092915050565b5f611af78383611ab4565b905092915050565b5f602082019050919050565b5f611b1582611a7b565b611b1f8185611a85565b935083602082028501611b3185611a95565b805f5b85811015611b6c5784840389528151611b4d8582611aec565b9450611b5883611aff565b925060208a01995050600181019050611b34565b50829750879550505050505092915050565b5f81519050919050565b5f82825260208201905092915050565b5f819050602082019050919050565b611bb08161149f565b82525050565b5f611bc18383611ba7565b60208301905092915050565b5f602082019050919050565b5f611be382611b7e565b611bed8185611b88565b9350611bf883611b98565b805f5b83811015611c28578151611c0f8882611bb6565b9750611c1a83611bcd565b925050600181019050611bfb565b5085935050505092915050565b5f61014082019050611c495f83018d611814565b611c56602083018c611a6c565b8181036040830152611c68818b611436565b9050611c77606083018a611814565b611c846080830189611814565b611c9160a0830188611948565b81810360c0830152611ca38187611b0b565b905081810360e0830152611cb78186611bd9565b9050611cc7610100830185611a6c565b611cd5610120830184611814565b9b9a5050505050505050505050565b7f4e487b71000000000000000000000000000000000000000000000000000000005f52602260045260245ffd5b5f6002820490506001821680611d2857607f821691505b602082108103611d3b57611d3a611ce4565b5b50919050565b7f496e76616c69642070726f706f73616c204944000000000000000000000000005f82015250565b5f611d75601383611408565b9150611d8082611d41565b602082019050919050565b5f6020820190508181035f830152611da281611d69565b9050919050565b7f566f74696e6720686173206e6f7420656e6465642079657400000000000000005f82015250565b5f611ddd601883611408565b9150611de882611da9565b602082019050919050565b5f6020820190508181035f830152611e0a81611dd1565b9050919050565b7f50726f706f73616c20616c7265616479206578656375746564000000000000005f82015250565b5f611e45601983611408565b9150611e5082611e11565b602082019050919050565b5f6020820190508181035f830152611e7281611e39565b9050919050565b7f4e487b71000000000000000000000000000000000000000000000000000000005f52603260045260245ffd5b7f4f7074696f6e203020646964206e6f742077696e0000000000000000000000005f82015250565b5f611eda601483611408565b9150611ee582611ea6565b602082019050919050565b5f6020820190508181035f830152611f0781611ece565b9050919050565b7f4e6f20766f7465732077657265206361737400000000000000000000000000005f82015250565b5f611f42601283611408565b9150611f4d82611f0e565b602082019050919050565b5f6020820190508181035f830152611f6f81611f36565b9050919050565b5f611f80826119e4565b9050919050565b611f9081611f76565b82525050565b5f604082019050611fa95f830185611f87565b611fb66020830184611814565b9392505050565b5f819050919050565b611fcf81611fbd565b8114611fd9575f5ffd5b50565b5f81519050611fea81611fc6565b92915050565b5f6020828403121561200557612004611497565b5b5f61201284828501611fdc565b91505092915050565b61202481611fbd565b82525050565b5f60408201905061203d5f830185611814565b61204a602083018461201b565b9392505050565b7f54617267657420616464726573732063616e6e6f74206265207a65726f0000005f82015250565b5f612085601d83611408565b915061209082612051565b602082019050919050565b5f6020820190508181035f8301526120b281612079565b9050919050565b7f56616c7565206d7573742062652067726561746572207468616e2030000000005f82015250565b5f6120ed601c83611408565b91506120f8826120b9565b602082019050919050565b5f6020820190508181035f83015261211a816120e1565b9050919050565b7f50726f706f73616c20686173206e6f74206265656e20657865637574656420795f8201527f6574000000000000000000000000000000000000000000000000000000000000602082015250565b5f61217b602283611408565b915061218682612121565b604082019050919050565b5f6020820190508181035f8301526121a88161216f565b9050919050565b7f4e6f7420612066696e616e6369616c2070726f706f73616c00000000000000005f82015250565b5f6121e3601883611408565b91506121ee826121af565b602082019050919050565b5f6020820190508181035f830152612210816121d7565b9050919050565b5f60208201905061222a5f83018461201b565b92915050565b7f566f74696e672073746172747320696e2074686520626c6f636b2061667465725f8201527f2070726f706f73616c206372656174696f6e0000000000000000000000000000602082015250565b5f61228a603283611408565b915061229582612230565b604082019050919050565b5f6020820190508181035f8301526122b78161227e565b9050919050565b7f566f74696e672068617320656e646564000000000000000000000000000000005f82015250565b5f6122f2601083611408565b91506122fd826122be565b602082019050919050565b5f6020820190508181035f83015261231f816122e6565b9050919050565b7f416c726561647920766f746564206f6e20746869732070726f706f73616c00005f82015250565b5f61235a601e83611408565b915061236582612326565b602082019050919050565b5f6020820190508181035f8301526123878161234e565b9050919050565b7f496e76616c6964206f7074696f6e20696e6465780000000000000000000000005f82015250565b5f6123c2601483611408565b91506123cd8261238e565b602082019050919050565b5f6020820190508181035f8301526123ef816123b6565b9050919050565b5f6040820190506124095f830185611a6c565b6124166020830184611814565b9392505050565b5f8151905061242b816114a8565b92915050565b5f6020828403121561244657612445611497565b5b5f6124538482850161241d565b91505092915050565b7f4e6f20766f74696e6720706f77657200000000000000000000000000000000005f82015250565b5f612490600f83611408565b915061249b8261245c565b602082019050919050565b5f6020820190508181035f8301526124bd81612484565b9050919050565b7f4e487b71000000000000000000000000000000000000000000000000000000005f52601160045260245ffd5b5f6124fb8261149f565b91506125068361149f565b925082820190508082111561251e5761251d6124c4565b5b92915050565b5f6080820190506125375f830187611814565b6125446020830186611a6c565b6125516040830185611814565b61255e6060830184611814565b95945050505050565b5f60208201905061257a5f830184611a6c565b92915050565b7f566f74696e6720706f7765722062656c6f772070726f706f73616c20746872655f8201527f73686f6c64000000000000000000000000000000000000000000000000000000602082015250565b5f6125da602583611408565b91506125e582612580565b604082019050919050565b5f6020820190508181035f830152612607816125ce565b9050919050565b7f4d7573742068617665206174206c656173742032206f7074696f6e73000000005f82015250565b5f612642601c83611408565b915061264d8261260e565b602082019050919050565b5f6020820190508181035f83015261266f81612636565b9050919050565b5f6126808261149f565b91507fffffffffffffffffffffffffffffffffffffffffffffffffffffffffffffffff82036126b2576126b16124c4565b5b600182019050919050565b5f819050815f5260205f209050919050565b5f6020601f8301049050919050565b5f82821b905092915050565b5f600883026127197fffffffffffffffffffffffffffffffffffffffffffffffffffffffffffffffff826126de565b61272386836126de565b95508019841693508086168417925050509392505050565b5f61275561275061274b8461149f565b611970565b61149f565b9050919050565b5f819050919050565b61276e8361273b565b61278261277a8261275c565b8484546126ea565b825550505050565b5f5f905090565b61279961278a565b6127a4818484612765565b505050565b5b818110156127c7576127bc5f82612791565b6001810190506127aa565b5050565b601f82111561280c576127dd816126bd565b6127e6846126cf565b810160208510156127f5578190505b612809612801856126cf565b8301826127a9565b50505b505050565b5f82821c905092915050565b5f61282c5f1984600802612811565b1980831691505092915050565b5f612844838361281d565b9150826002028217905092915050565b61285d826113fe565b67ffffffffffffffff81111561287657612875611505565b5b6128808254611d11565b61288b8282856127cb565b5f60209050601f8311600181146128bc575f84156128aa578287015190505b6128b48582612839565b86555061291b565b601f1984166128ca866126bd565b5f5b828110156128f1578489015182556001820191506020850194506020810190506128cc565b8683101561290e578489015161290a601f89168261281d565b8355505b6001600288020188555050505b505050505050565b5f61292d8261149f565b91506129388361149f565b92508282026129468161149f565b9150828204841483151761295d5761295c6124c4565b5b5092915050565b5f60e0820190506129775f83018a611814565b6129846020830189611a6c565b81810360408301526129968188611436565b90506129a56060830187611814565b6129b26080830186611814565b6129bf60a0830185611f87565b6129cc60c0830184611814565b9897505050505050505056fea264697066735822122062c7fdec41d9c54efbe4d3cf43ce7f836726a6f5b140fb772d1cd10d076d102264736f6c634300081c0033608060405234801561000f575f5ffd5b506040516111a63803806111a68339818101604052810190610031919061010f565b815f5f6101000a81548173ffffffffffffffffffffffffffffffffffffffff021916908373ffffffffffffffffffffffffffffffffffffffff16021790555080600181905550505061014d565b5f5ffd5b5f73ffffffffffffffffffffffffffffffffffffffff82169050919050565b5f6100ab82610082565b9050919050565b6100bb816100a1565b81146100c5575f5ffd5b50565b5f815190506100d6816100b2565b92915050565b5f819050919050565b6100ee816100dc565b81146100f8575f5ffd5b50565b5f81519050610109816100e5565b92915050565b5f5f604083850312156101255761012461007e565b5b5f610132858286016100c8565b9250506020610143858286016100fb565b9150509250929050565b61104c8061015a5f395ff3fe608060405260043610610073575f3560e01c806370ba33391161004d57806370ba33391461015c578063c69ed5f214610184578063eef09bad146101ac578063f2b06537146101d6576100c8565b806312065fe0146100cc578063542250cc146100f65780635aa6e67514610132576100c8565b366100c8573373ffffffffffffffffffffffffffffffffffffffff167f8e47b87b0ef542cdfa1659c551d88bad38aa7f452d2bbb349ab7530dfec8be8f346040516100be91906109ab565b60405180910390a2005b5f5ffd5b3480156100d7575f5ffd5b506100e0610216565b6040516100ed91906109ab565b60405180910390f35b348015610101575f5ffd5b5061011c60048036038101906101179190610a4c565b61021d565b6040516101299190610aa2565b60405180910390f35b34801561013d575f5ffd5b50610146610489565b6040516101539190610aca565b60405180910390f35b348015610167575f5ffd5b50610182600480360381019061017d9190610b0d565b6104ad565b005b34801561018f575f5ffd5b506101aa60048036038101906101a59190610b0d565b610634565b005b3480156101b7575f5ffd5b506101c0610923565b6040516101cd91906109ab565b60405180910390f35b3480156101e1575f5ffd5b506101fc60048036038101906101f79190610b0d565b610929565b60405161020d959493929190610b52565b60405180910390f35b5f47905090565b5f5f5f9054906101000a900473ffffffffffffffffffffffffffffffffffffffff1673ffffffffffffffffffffffffffffffffffffffff163373ffffffffffffffffffffffffffffffffffffffff16146102ac576040517f08c379a00000000000000000000000000000000000000000000000000000000081526004016102a390610c23565b60405180910390fd5b5f600154426102bb9190610c6e565b90505f8484836040516020016102d393929190610ca1565b6040516020818303038152906040528051906020012090505f60025f8381526020019081526020015f206002015414610341576040517f08c379a000000000000000000000000000000000000000000000000000000000815260040161033890610d20565b60405180910390fd5b6040518060a001604052808673ffffffffffffffffffffffffffffffffffffffff1681526020018581526020018381526020015f151581526020015f151581525060025f8381526020019081526020015f205f820151815f015f6101000a81548173ffffffffffffffffffffffffffffffffffffffff021916908373ffffffffffffffffffffffffffffffffffffffff16021790555060208201518160010155604082015181600201556060820151816003015f6101000a81548160ff02191690831515021790555060808201518160030160016101000a81548160ff0219169083151502179055509050508473ffffffffffffffffffffffffffffffffffffffff16817f7519d8853a123928eedd53667daaff4654e17e3156685ee5d16f01e07cad01098685604051610476929190610d3e565b60405180910390a3809250505092915050565b5f5f9054906101000a900473ffffffffffffffffffffffffffffffffffffffff1681565b5f5f9054906101000a900473ffffffffffffffffffffffffffffffffffffffff1673ffffffffffffffffffffffffffffffffffffffff163373ffffffffffffffffffffffffffffffffffffffff161461053b576040517f08c379a000000000000000000000000000000000000000000000000000000000815260040161053290610c23565b60405180910390fd5b5f60025f8381526020019081526020015f2090505f816002015403610595576040517f08c379a000000000000000000000000000000000000000000000000000000000815260040161058c90610daf565b60405180910390fd5b806003015f9054906101000a900460ff16156105e6576040517f08c379a00000000000000000000000000000000000000000000000000000000081526004016105dd90610e17565b60405180910390fd5b60018160030160016101000a81548160ff021916908315150217905550817f0891e6c675e964cf1e5982f60fda276ad06301a9221b2f1d7bf2b2a42fbd69a160405160405180910390a25050565b5f60025f8381526020019081526020015f2090505f81600201540361068e576040517f08c379a000000000000000000000000000000000000000000000000000000000815260040161068590610daf565b60405180910390fd5b806003015f9054906101000a900460ff16156106df576040517f08c379a00000000000000000000000000000000000000000000000000000000081526004016106d690610e17565b60405180910390fd5b8060030160019054906101000a900460ff1615610731576040517f08c379a000000000000000000000000000000000000000000000000000000000815260040161072890610e7f565b60405180910390fd5b8060020154421015610778576040517f08c379a000000000000000000000000000000000000000000000000000000000815260040161076f90610ee7565b60405180910390fd5b80600101544710156107bf576040517f08c379a00000000000000000000000000000000000000000000000000000000081526004016107b690610f4f565b60405180910390fd5b6001816003015f6101000a81548160ff0219169083151502179055505f815f015f9054906101000a900473ffffffffffffffffffffffffffffffffffffffff1673ffffffffffffffffffffffffffffffffffffffff16826001015460405161082690610f9a565b5f6040518083038185875af1925050503d805f8114610860576040519150601f19603f3d011682016040523d82523d5f602084013e610865565b606091505b50509050806108a9576040517f08c379a00000000000000000000000000000000000000000000000000000000081526004016108a090610ff8565b60405180910390fd5b815f015f9054906101000a900473ffffffffffffffffffffffffffffffffffffffff1673ffffffffffffffffffffffffffffffffffffffff16837ff428004d3339c4a2d18a1bb05bf349f4a610100cde4d4dccde22bff25664c4fa846001015460405161091691906109ab565b60405180910390a3505050565b60015481565b6002602052805f5260405f205f91509050805f015f9054906101000a900473ffffffffffffffffffffffffffffffffffffffff1690806001015490806002015490806003015f9054906101000a900460ff16908060030160019054906101000a900460ff16905085565b5f819050919050565b6109a581610993565b82525050565b5f6020820190506109be5f83018461099c565b92915050565b5f5ffd5b5f73ffffffffffffffffffffffffffffffffffffffff82169050919050565b5f6109f1826109c8565b9050919050565b610a01816109e7565b8114610a0b575f5ffd5b50565b5f81359050610a1c816109f8565b92915050565b610a2b81610993565b8114610a35575f5ffd5b50565b5f81359050610a4681610a22565b92915050565b5f5f60408385031215610a6257610a616109c4565b5b5f610a6f85828601610a0e565b9250506020610a8085828601610a38565b9150509250929050565b5f819050919050565b610a9c81610a8a565b82525050565b5f602082019050610ab55f830184610a93565b92915050565b610ac4816109e7565b82525050565b5f602082019050610add5f830184610abb565b92915050565b610aec81610a8a565b8114610af6575f5ffd5b50565b5f81359050610b0781610ae3565b92915050565b5f60208284031215610b2257610b216109c4565b5b5f610b2f84828501610af9565b91505092915050565b5f8115159050919050565b610b4c81610b38565b82525050565b5f60a082019050610b655f830188610abb565b610b72602083018761099c565b610b7f604083018661099c565b610b8c6060830185610b43565b610b996080830184610b43565b9695505050505050565b5f82825260208201905092915050565b7f4f6e6c792074686520476f7665726e616e636520636f6e74726163742063616e5f8201527f2063616c6c207468697300000000000000000000000000000000000000000000602082015250565b5f610c0d602a83610ba3565b9150610c1882610bb3565b604082019050919050565b5f6020820190508181035f830152610c3a81610c01565b9050919050565b7f4e487b71000000000000000000000000000000000000000000000000000000005f52601160045260245ffd5b5f610c7882610993565b9150610c8383610993565b9250828201905080821115610c9b57610c9a610c41565b5b92915050565b5f606082019050610cb45f830186610abb565b610cc1602083018561099c565b610cce604083018461099c565b949350505050565b7f5472616e73616374696f6e20616c7265616479207175657565640000000000005f82015250565b5f610d0a601a83610ba3565b9150610d1582610cd6565b602082019050919050565b5f6020820190508181035f830152610d3781610cfe565b9050919050565b5f604082019050610d515f83018561099c565b610d5e602083018461099c565b9392505050565b7f5472616e73616374696f6e20646f6573206e6f742065786973740000000000005f82015250565b5f610d99601a83610ba3565b9150610da482610d65565b602082019050919050565b5f6020820190508181035f830152610dc681610d8d565b9050919050565b7f5472616e73616374696f6e20616c7265616479206578656375746564000000005f82015250565b5f610e01601c83610ba3565b9150610e0c82610dcd565b602082019050919050565b5f6020820190508181035f830152610e2e81610df5565b9050919050565b7f5472616e73616374696f6e207761732063616e63656c6c6564000000000000005f82015250565b5f610e69601983610ba3565b9150610e7482610e35565b602082019050919050565b5f6020820190508181035f830152610e9681610e5d565b9050919050565b7f54696d656c6f636b2064656c617920686173206e6f74207061737365640000005f82015250565b5f610ed1601d83610ba3565b9150610edc82610e9d565b602082019050919050565b5f6020820190508181035f830152610efe81610ec5565b9050919050565b7f496e73756666696369656e742074726561737572792062616c616e63650000005f82015250565b5f610f39601d83610ba3565b9150610f4482610f05565b602082019050919050565b5f6020820190508181035f830152610f6681610f2d565b9050919050565b5f81905092915050565b50565b5f610f855f83610f6d565b9150610f9082610f77565b5f82019050919050565b5f610fa482610f7a565b9150819050919050565b7f455448207472616e73666572206661696c6564000000000000000000000000005f82015250565b5f610fe2601383610ba3565b9150610fed82610fae565b602082019050919050565b5f6020820190508181035f83015261100f81610fd6565b905091905056fea2646970667358221220d99311e1afc5ad3cf673c85fee2927bde5a395fb5c8c8bc561e53646ae1c738664736f6c634300081c0033",
  "linkReferences": {},
  "deployedLinkReferences": {}
}