{
  "_format": "hh-sol-artifact-1",
  "contractName": "Treasury",
  "sourceName": "contracts/Treasury.sol",
  "abi": [
    {
      "inputs": [
        {
          "internalType": "address",
          "name": "_governance",
          "type": "address"
        },
        {
          "internalType": "uint256",
          "name": "_timelockDelay",
          "type": "uint256"
        }
      ],
      "stateMutability": "nonpayable",
      "type": "constructor"
    },
    {
      "inputs": [],
      "name": "ReentrancyGuardReentrantCall",
      "type": "error"
    },
    {
      "anonymous": false,
      "inputs": [
        {
          "indexed": true,
          "internalType": "address",
          "name": "sender",
          "type": "address"
        },
        {
          "indexed": false,
          "internalType": "uint256",
          "name": "amount",
          "type": "uint256"
        }
      ],
      "name": "FundsReceived",
      "type": "event"
    },
    {
      "anonymous": false,
      "inputs": [
        {
          "indexed": true,
          "internalType": "bytes32",
          "name": "txId",
          "type": "bytes32"
        }
      ],
      "name": "TransactionCancelled",
      "type": "event"
    },
    {
      "anonymous": false,
      "inputs": [
        {
          "indexed": true,
          "internalType": "bytes32",
          "name": "txId",
          "type": "bytes32"
        },
        {
          "indexed": true,
          "internalType": "address",
          "name": "target",
          "type": "address"
        },
        {
          "indexed": false,
          "internalType": "uint256",
          "name": "value",
          "type": "uint256"
        }
      ],
      "name": "TransactionExecuted",
      "type": "event"
    },
    {
      "anonymous": false,
      "inputs": [
        {
          "indexed": true,
          "internalType": "bytes32",
          "name": "txId",
          "type": "bytes32"
        },
        {
          "indexed": true,
          "internalType": "address",
          "name": "target",
          "type": "address"
        },
        {
          "indexed": false,
          "internalType": "uint256",
          "name": "value",
          "type": "uint256"
        },
        {
          "indexed": false,
          "internalType": "uint256",
          "name": "executeAfter",
          "type": "uint256"
        }
      ],
      "name": "TransactionQueued",
      "type": "event"
    },
    {
      "inputs": [
        {
          "internalType": "bytes32",
          "name": "_txId",
          "type": "bytes32"
        }
      ],
      "name": "cancelTransaction",
      "outputs": [],
      "stateMutability": "nonpayable",
      "type": "function"
    },
    {
      "inputs": [
        {
          "internalType": "bytes32",
          "name": "_txId",
          "type": "bytes32"
        }
      ],
      "name": "executeTransaction",
      "outputs": [],
      "stateMutability": "nonpayable",
      "type": "function"
    },
    {
      "inputs": [],
      "name": "getBalance",
      "outputs": [
        {
          "internalType": "uint256",
          "name": "",
          "type": "uint256"
        }
      ],
      "stateMutability": "view",
      "type": "function"
    },
    {
      "inputs": [],
      "name": "governance",
      "outputs": [
        {
          "internalType": "address",
          "name": "",
          "type": "address"
        }
      ],
      "stateMutability": "view",
      "type": "function"
    },
    {
      "inputs": [
        {
          "internalType": "address",
          "name": "_target",
          "type": "address"
        },
        {
          "internalType": "uint256",
          "name": "_value",
          "type": "uint256"
        }
      ],
      "name": "queueTransaction",
      "outputs": [
        {
          "internalType": "bytes32",
          "name": "",
          "type": "bytes32"
        }
      ],
      "stateMutability": "nonpayable",
      "type": "function"
    },
    {
      "inputs": [
        {
          "internalType": "bytes32",
          "name": "",
          "type": "bytes32"
        }
      ],
      "name": "queuedTransactions",
      "outputs": [
        {
          "internalType": "address",
          "name": "target",
          "type": "address"
        },
        {
          "internalType": "uint256",
          "name": "value",
          "type": "uint256"
        },
        {
          "internalType": "uint256",
          "name": "executeAfter",
          "type": "uint256"
        },
        {
          "internalType": "bool",
          "name": "executed",
          "type": "bool"
        },
        {
          "internalType": "bool",
          "name": "cancelled",
          "type": "bool"
        }
      ],
      "stateMutability": "view",
      "type": "function"
    },
    {
      "inputs": [],
      "name": "timelockDelay",
      "outputs": [
        {
          "internalType": "uint256",
          "name": "",
          "type": "uint256"
        }
      ],
      "stateMutability": "view",
      "type": "function"
    },
    {
      "stateMutability": "payable",
      "type": "receive"
    }
  ],
  "bytecode": "0x608060405234801561000f575f5ffd5b506040516112d73803806112d783398181016040528101906100319190610165565b600161004f6100446100a260201b60201c565b6100cb60201b60201c565b5f0181905550815f5f6101000a81548173ffffffffffffffffffffffffffffffffffffffff021916908373ffffffffffffffffffffffffffffffffffffffff1602179055508060018190555050506101a3565b5f7f9b779b17422d0df92223018b32b4d1fa46e071723d6817e2486d003becc55f005f1b905090565b5f819050919050565b5f5ffd5b5f73ffffffffffffffffffffffffffffffffffffffff82169050919050565b5f610101826100d8565b9050919050565b610111816100f7565b811461011b575f5ffd5b50565b5f8151905061012c81610108565b92915050565b5f819050919050565b61014481610132565b811461014e575f5ffd5b50565b5f8151905061015f8161013b565b92915050565b5f5f6040838503121561017b5761017a6100d4565b5b5f6101888582860161011e565b925050602061019985828601610151565b9150509250929050565b611127806101b05f395ff3fe608060405260043610610073575f3560e01c806370ba33391161004d57806370ba33391461015c578063c69ed5f214610184578063eef09bad146101ac578063f2b06537146101d6576100c8565b806312065fe0146100cc578063542250cc146100f65780635aa6e67514610132576100c8565b366100c8573373ffffffffffffffffffffffffffffffffffffffff167f8e47b87b0ef542cdfa1659c551d88bad38aa7f452d2bbb349ab7530dfec8be8f346040516100be9190610a86565b60405180910390a2005b5f5ffd5b3480156100d7575f5ffd5b506100e0610216565b6040516100ed9190610a86565b60405180910390f35b348015610101575f5ffd5b5061011c60048036038101906101179190610b27565b61021d565b6040516101299190610b7d565b60405180910390f35b34801561013d575f5ffd5b50610146610489565b6040516101539190610ba5565b60405180910390f35b348015610167575f5ffd5b50610182600480360381019061017d9190610be8565b6104ad565b005b34801561018f575f5ffd5b506101aa60048036038101906101a59190610be8565b610634565b005b3480156101b7575f5ffd5b506101c0610933565b6040516101cd9190610a86565b60405180910390f35b3480156101e1575f5ffd5b506101fc60048036038101906101f79190610be8565b610939565b60405161020d959493929190610c2d565b60405180910390f35b5f47905090565b5f5f5f9054906101000a900473ffffffffffffffffffffffffffffffffffffffff1673ffffffffffffffffffffffffffffffffffffffff163373ffffffffffffffffffffffffffffffffffffffff16146102ac576040517f08c379a00000000000000000000000000000000000000000000000000000000081526004016102a390610cfe565b60405180910390fd5b5f600154426102bb9190610d49565b90505f8484836040516020016102d393929190610d7c565b6040516020818303038152906040528051906020012090505f60025f8381526020019081526020015f206002015414610341576040517f08c379a000000000000000000000000000000000000000000000000000000000815260040161033890610dfb565b60405180910390fd5b6040518060a001604052808673ffffffffffffffffffffffffffffffffffffffff1681526020018581526020018381526020015f151581526020015f151581525060025f8381526020019081526020015f205f820151815f015f6101000a81548173ffffffffffffffffffffffffffffffffffffffff021916908373ffffffffffffffffffffffffffffffffffffffff16021790555060208201518160010155604082015181600201556060820151816003015f6101000a81548160ff02191690831515021790555060808201518160030160016101000a81548160ff0219169083151502179055509050508473ffffffffffffffffffffffffffffffffffffffff16817f7519d8853a123928eedd53667daaff4654e17e3156685ee5d16f01e07cad01098685604051610476929190610e19565b60405180910390a3809250505092915050565b5f5f9054906101000a900473ffffffffffffffffffffffffffffffffffffffff1681565b5f5f9054906101000a900473ffffffffffffffffffffffffffffffffffffffff1673ffffffffffffffffffffffffffffffffffffffff163373ffffffffffffffffffffffffffffffffffffffff161461053b576040517f08c379a000000000000000000000000000000000000000000000000000000000815260040161053290610cfe565b60405180910390fd5b5f60025f8381526020019081526020015f2090505f816002015403610595576040517f08c379a000000000000000000000000000000000000000000000000000000000815260040161058c90610e8a565b60405180910390fd5b806003015f9054906101000a900460ff16156105e6576040517f08c379a00000000000000000000000000000000000000000000000000000000081526004016105dd90610ef2565b60405180910390fd5b60018160030160016101000a81548160ff021916908315150217905550817f0891e6c675e964cf1e5982f60fda276ad06301a9221b2f1d7bf2b2a42fbd69a160405160405180910390a25050565b61063c6109a3565b5f60025f8381526020019081526020015f2090505f816002015403610696576040517f08c379a000000000000000000000000000000000000000000000000000000000815260040161068d90610e8a565b60405180910390fd5b806003015f9054906101000a900460ff16156106e7576040517f08c379a00000000000000000000000000000000000000000000000000000000081526004016106de90610ef2565b60405180910390fd5b8060030160019054906101000a900460ff1615610739576040517f08c379a000000000000000000000000000000000000000000000000000000000815260040161073090610f5a565b60405180910390fd5b8060020154421015610780576040517f08c379a000000000000000000000000000000000000000000000000000000000815260040161077790610fc2565b60405180910390fd5b80600101544710156107c7576040517f08c379a00000000000000000000000000000000000000000000000000000000081526004016107be9061102a565b60405180910390fd5b6001816003015f6101000a81548160ff0219169083151502179055505f815f015f9054906101000a900473ffffffffffffffffffffffffffffffffffffffff1673ffffffffffffffffffffffffffffffffffffffff16826001015460405161082e90611075565b5f6040518083038185875af1925050503d805f8114610868576040519150601f19603f3d011682016040523d82523d5f602084013e61086d565b606091505b50509050806108b1576040517f08c379a00000000000000000000000000000000000000000000000000000000081526004016108a8906110d3565b60405180910390fd5b815f015f9054906101000a900473ffffffffffffffffffffffffffffffffffffffff1673ffffffffffffffffffffffffffffffffffffffff16837ff428004d3339c4a2d18a1bb05bf349f4a610100cde4d4dccde22bff25664c4fa846001015460405161091e9190610a86565b60405180910390a350506109306109c5565b50565b60015481565b6002602052805f5260405f205f91509050805f015f9054906101000a900473ffffffffffffffffffffffffffffffffffffffff1690806001015490806002015490806003015f9054906101000a900460ff16908060030160019054906101000a900460ff16905085565b6109ab6109df565b60026109bd6109b8610a20565b610a49565b5f0181905550565b60016109d76109d2610a20565b610a49565b5f0181905550565b6109e7610a52565b15610a1e576040517f3ee5aeb500000000000000000000000000000000000000000000000000000000815260040160405180910390fd5b565b5f7f9b779b17422d0df92223018b32b4d1fa46e071723d6817e2486d003becc55f005f1b905090565b5f819050919050565b5f6002610a65610a60610a20565b610a49565b5f015414905090565b5f819050919050565b610a8081610a6e565b82525050565b5f602082019050610a995f830184610a77565b92915050565b5f5ffd5b5f73ffffffffffffffffffffffffffffffffffffffff82169050919050565b5f610acc82610aa3565b9050919050565b610adc81610ac2565b8114610ae6575f5ffd5b50565b5f81359050610af781610ad3565b92915050565b610b0681610a6e565b8114610b10575f5ffd5b50565b5f81359050610b2181610afd565b92915050565b5f5f60408385031215610b3d57610b3c610a9f565b5b5f610b4a85828601610ae9565b9250506020610b5b85828601610b13565b9150509250929050565b5f819050919050565b610b7781610b65565b82525050565b5f602082019050610b905f830184610b6e565b92915050565b610b9f81610ac2565b82525050565b5f602082019050610bb85f830184610b96565b92915050565b610bc781610b65565b8114610bd1575f5ffd5b50565b5f81359050610be281610bbe565b92915050565b5f60208284031215610bfd57610bfc610a9f565b5b5f610c0a84828501610bd4565b91505092915050565b5f8115159050919050565b610c2781610c13565b82525050565b5f60a082019050610c405f830188610b96565b610c4d6020830187610a77565b610c5a6040830186610a77565b610c676060830185610c1e565b610c746080830184610c1e565b9695505050505050565b5f82825260208201905092915050565b7f4f6e6c792074686520476f7665726e616e636520636f6e74726163742063616e5f8201527f2063616c6c207468697300000000000000000000000000000000000000000000602082015250565b5f610ce8602a83610c7e565b9150610cf382610c8e565b604082019050919050565b5f6020820190508181035f830152610d1581610cdc565b9050919050565b7f4e487b71000000000000000000000000000000000000000000000000000000005f52601160045260245ffd5b5f610d5382610a6e565b9150610d5e83610a6e565b9250828201905080821115610d7657610d75610d1c565b5b92915050565b5f606082019050610d8f5f830186610b96565b610d9c6020830185610a77565b610da96040830184610a77565b949350505050565b7f5472616e73616374696f6e20616c7265616479207175657565640000000000005f82015250565b5f610de5601a83610c7e565b9150610df082610db1565b602082019050919050565b5f6020820190508181035f830152610e1281610dd9565b9050919050565b5f604082019050610e2c5f830185610a77565b610e396020830184610a77565b9392505050565b7f5472616e73616374696f6e20646f6573206e6f742065786973740000000000005f82015250565b5f610e74601a83610c7e565b9150610e7f82610e40565b602082019050919050565b5f6020820190508181035f830152610ea181610e68565b9050919050565b7f5472616e73616374696f6e20616c7265616479206578656375746564000000005f82015250565b5f610edc601c83610c7e565b9150610ee782610ea8565b602082019050919050565b5f6020820190508181035f830152610f0981610ed0565b9050919050565b7f5472616e73616374696f6e207761732063616e63656c6c6564000000000000005f82015250565b5f610f44601983610c7e565b9150610f4f82610f10565b602082019050919050565b5f6020820190508181035f830152610f7181610f38565b9050919050565b7f54696d656c6f636b2064656c617920686173206e6f74207061737365640000005f82015250565b5f610fac601d83610c7e565b9150610fb782610f78565b602082019050919050565b5f6020820190508181035f830152610fd981610fa0565b9050919050565b7f496e73756666696369656e742074726561737572792062616c616e63650000005f82015250565b5f611014601d83610c7e565b915061101f82610fe0565b602082019050919050565b5f6020820190508181035f83015261104181611008565b9050919050565b5f81905092915050565b50565b5f6110605f83611048565b915061106b82611052565b5f82019050919050565b5f61107f82611055565b9150819050919050565b7f455448207472616e73666572206661696c6564000000000000000000000000005f82015250565b5f6110bd601383610c7e565b91506110c882611089565b602082019050919050565b5f6020820190508181035f8301526110ea816110b1565b905091905056fea264697066735822122024ff393b1bcd695826a18b8dbb16df6d49f00e9062a21d571182c4637761af1c64736f6c634300081c0033",
  "linkReferences": {},
  "deployedLinkReferences": {}
}