{
  "_format": "hh-sol-artifact-1",
  "contractName": "Treasury",
  "sourceName": "contracts/Treasury.sol",
  "abi": [
    {
      "inputs": [
        {
          "internalType": "address",
          "name": "_governance",
          "type": "address"
        },
        {
          "internalType": "uint256",
          "name": "_timelockDelay",
          "type": "uint256"
        }
      ],
      "stateMutability": "nonpayable",
      "type": "constructor"
    },
    {
      "anonymous": false,
      "inputs": [
        {
          "indexed": true,
          "internalType": "address",
          "name": "sender",
          "type": "address"
        },
        {
          "indexed": false,
          "internalType": "uint256",
          "name": "amount",
          "type": "uint256"
        }
      ],
      "name": "FundsReceived",
      "type": "event"
    },
    {
      "anonymous": false,
      "inputs": [
        {
          "indexed": true,
          "internalType": "bytes32",
          "name": "txId",
          "type": "bytes32"
        }
      ],
      "name": "TransactionCancelled",
      "type": "event"
    },
    {
      "anonymous": false,
      "inputs": [
        {
          "indexed": true,
          "internalType": "bytes32",
          "name": "txId",
          "type": "bytes32"
        },
        {
          "indexed": true,
          "internalType": "address",
          "name": "target",
          "type": "address"
        },
        {
          "indexed": false,
          "internalType": "uint256",
          "name": "value",
          "type": "uint256"
        }
      ],
      "name": "TransactionExecuted",
      "type": "event"
    },
    {
      "anonymous": false,
      "inputs": [
        {
          "indexed": true,
          "internalType": "bytes32",
          "name": "txId",
          "type": "bytes32"
        },
        {
          "indexed": true,
          "internalType": "address",
          "name": "target",
          "type": "address"
        },
        {
          "indexed": false,
          "internalType": "uint256",
          "name": "value",
          "type": "uint256"
        },
        {
          "indexed": false,
          "internalType": "uint256",
          "name": "executeAfter",
          "type": "uint256"
        }
      ],
      "name": "TransactionQueued",
      "type": "event"
    },
    {
      "inputs": [
        {
          "internalType": "bytes32",
          "name": "_txId",
          "type": "bytes32"
        }
      ],
      "name": "cancelTransaction",
      "outputs": [],
      "stateMutability": "nonpayable",
      "type": "function"
    },
    {
      "inputs": [
        {
          "internalType": "bytes32",
          "name": "_txId",
          "type": "bytes32"
        }
      ],
      "name": "executeTransaction",
      "outputs": [],
      "stateMutability": "nonpayable",
      "type": "function"
    },
    {
      "inputs": [],
      "name": "getBalance",
      "outputs": [
        {
          "internalType": "uint256",
          "name": "",
          "type": "uint256"
        }
      ],
      "stateMutability": "view",
      "type": "function"
    },
    {
      "inputs": [],
      "name": "governance",
      "outputs": [
        {
          "internalType": "address",
          "name": "",
          "type": "address"
        }
      ],
      "stateMutability": "view",
      "type": "function"
    },
    {
      "inputs": [
        {
          "internalType": "address",
          "name": "_target",
          "type": "address"
        },
        {
          "internalType": "uint256",
          "name": "_value",
          "type": "uint256"
        }
      ],
      "name": "queueTransaction",
      "outputs": [
        {
          "internalType": "bytes32",
          "name": "",
          "type": "bytes32"
        }
      ],
      "stateMutability": "nonpayable",
      "type": "function"
    },
    {
      "inputs": [
        {
          "internalType": "bytes32",
          "name": "",
          "type": "bytes32"
        }
      ],
      "name": "queuedTransactions",
      "outputs": [
        {
          "internalType": "address",
          "name": "target",
          "type": "address"
        },
        {
          "internalType": "uint256",
          "name": "value",
          "type": "uint256"
        },
        {
          "internalType": "uint256",
          "name": "executeAfter",
          "type": "uint256"
        },
        {
          "internalType": "bool",
          "name": "executed",
          "type": "bool"
        },
        {
          "internalType": "bool",
          "name": "cancelled",
          "type": "bool"
        }
      ],
      "stateMutability": "view",
      "type": "function"
    },
    {
      "inputs": [],
      "name": "timelockDelay",
      "outputs": [
        {
          "internalType": "uint256",
          "name": "",
          "type": "uint256"
        }
      ],
      "stateMutability": "view",
      "type": "function"
    },
    {
      "stateMutability": "payable",
      "type": "receive"
    }
  ],
  "bytecode": "0x608060405234801561000f575f5ffd5b506040516111a63803806111a68339818101604052810190610031919061010f565b815f5f6101000a81548173ffffffffffffffffffffffffffffffffffffffff021916908373ffffffffffffffffffffffffffffffffffffffff16021790555080600181905550505061014d565b5f5ffd5b5f73ffffffffffffffffffffffffffffffffffffffff82169050919050565b5f6100ab82610082565b9050919050565b6100bb816100a1565b81146100c5575f5ffd5b50565b5f815190506100d6816100b2565b92915050565b5f819050919050565b6100ee816100dc565b81146100f8575f5ffd5b50565b5f81519050610109816100e5565b92915050565b5f5f604083850312156101255761012461007e565b5b5f610132858286016100c8565b9250506020610143858286016100fb565b9150509250929050565b61104c8061015a5f395ff3fe608060405260043610610073575f3560e01c806370ba33391161004d57806370ba33391461015c578063c69ed5f214610184578063eef09bad146101ac578063f2b06537146101d6576100c8565b806312065fe0146100cc578063542250cc146100f65780635aa6e67514610132576100c8565b366100c8573373ffffffffffffffffffffffffffffffffffffffff167f8e47b87b0ef542cdfa1659c551d88bad38aa7f452d2bbb349ab7530dfec8be8f346040516100be91906109ab565b60405180910390a2005b5f5ffd5b3480156100d7575f5ffd5b506100e0610216565b6040516100ed91906109ab565b60405180910390f35b348015610101575f5ffd5b5061011c60048036038101906101179190610a4c565b61021d565b6040516101299190610aa2565b60405180910390f35b34801561013d575f5ffd5b50610146610489565b6040516101539190610aca565b60405180910390f35b348015610167575f5ffd5b50610182600480360381019061017d9190610b0d565b6104ad565b005b34801561018f575f5ffd5b506101aa60048036038101906101a59190610b0d565b610634565b005b3480156101b7575f5ffd5b506101c0610923565b6040516101cd91906109ab565b60405180910390f35b3480156101e1575f5ffd5b506101fc60048036038101906101f79190610b0d565b610929565b60405161020d959493929190610b52565b60405180910390f35b5f47905090565b5f5f5f9054906101000a900473ffffffffffffffffffffffffffffffffffffffff1673ffffffffffffffffffffffffffffffffffffffff163373ffffffffffffffffffffffffffffffffffffffff16146102ac576040517f08c379a00000000000000000000000000000000000000000000000000000000081526004016102a390610c23565b60405180910390fd5b5f600154426102bb9190610c6e565b90505f8484836040516020016102d393929190610ca1565b6040516020818303038152906040528051906020012090505f60025f8381526020019081526020015f206002015414610341576040517f08c379a000000000000000000000000000000000000000000000000000000000815260040161033890610d20565b60405180910390fd5b6040518060a001604052808673ffffffffffffffffffffffffffffffffffffffff1681526020018581526020018381526020015f151581526020015f151581525060025f8381526020019081526020015f205f820151815f015f6101000a81548173ffffffffffffffffffffffffffffffffffffffff021916908373ffffffffffffffffffffffffffffffffffffffff16021790555060208201518160010155604082015181600201556060820151816003015f6101000a81548160ff02191690831515021790555060808201518160030160016101000a81548160ff0219169083151502179055509050508473ffffffffffffffffffffffffffffffffffffffff16817f7519d8853a123928eedd53667daaff4654e17e3156685ee5d16f01e07cad01098685604051610476929190610d3e565b60405180910390a3809250505092915050565b5f5f9054906101000a900473ffffffffffffffffffffffffffffffffffffffff1681565b5f5f9054906101000a900473ffffffffffffffffffffffffffffffffffffffff1673ffffffffffffffffffffffffffffffffffffffff163373ffffffffffffffffffffffffffffffffffffffff161461053b576040517f08c379a000000000000000000000000000000000000000000000000000000000815260040161053290610c23565b60405180910390fd5b5f60025f8381526020019081526020015f2090505f816002015403610595576040517f08c379a000000000000000000000000000000000000000000000000000000000815260040161058c90610daf565b60405180910390fd5b806003015f9054906101000a900460ff16156105e6576040517f08c379a00000000000000000000000000000000000000000000000000000000081526004016105dd90610e17565b60405180910390fd5b60018160030160016101000a81548160ff021916908315150217905550817f0891e6c675e964cf1e5982f60fda276ad06301a9221b2f1d7bf2b2a42fbd69a160405160405180910390a25050565b5f60025f8381526020019081526020015f2090505f81600201540361068e576040517f08c379a000000000000000000000000000000000000000000000000000000000815260040161068590610daf565b60405180910390fd5b806003015f9054906101000a900460ff16156106df576040517f08c379a00000000000000000000000000000000000000000000000000000000081526004016106d690610e17565b60405180910390fd5b8060030160019054906101000a900460ff1615610731576040517f08c379a000000000000000000000000000000000000000000000000000000000815260040161072890610e7f565b60405180910390fd5b8060020154421015610778576040517f08c379a000000000000000000000000000000000000000000000000000000000815260040161076f90610ee7565b60405180910390fd5b80600101544710156107bf576040517f08c379a00000000000000000000000000000000000000000000000000000000081526004016107b690610f4f565b60405180910390fd5b6001816003015f6101000a81548160ff0219169083151502179055505f815f015f9054906101000a900473ffffffffffffffffffffffffffffffffffffffff1673ffffffffffffffffffffffffffffffffffffffff16826001015460405161082690610f9a565b5f6040518083038185875af1925050503d805f8114610860576040519150601f19603f3d011682016040523d82523d5f602084013e610865565b606091505b50509050806108a9576040517f08c379a00000000000000000000000000000000000000000000000000000000081526004016108a090610ff8565b60405180910390fd5b815f015f9054906101000a900473ffffffffffffffffffffffffffffffffffffffff1673ffffffffffffffffffffffffffffffffffffffff16837ff428004d3339c4a2d18a1bb05bf349f4a610100cde4d4dccde22bff25664c4fa846001015460405161091691906109ab565b60405180910390a3505050565b60015481565b6002602052805f5260405f205f91509050805f015f9054906101000a900473ffffffffffffffffffffffffffffffffffffffff1690806001015490806002015490806003015f9054906101000a900460ff16908060030160019054906101000a900460ff16905085565b5f819050919050565b6109a581610993565b82525050565b5f6020820190506109be5f83018461099c565b92915050565b5f5ffd5b5f73ffffffffffffffffffffffffffffffffffffffff82169050919050565b5f6109f1826109c8565b9050919050565b610a01816109e7565b8114610a0b575f5ffd5b50565b5f81359050610a1c816109f8565b92915050565b610a2b81610993565b8114610a35575f5ffd5b50565b5f81359050610a4681610a22565b92915050565b5f5f60408385031215610a6257610a616109c4565b5b5f610a6f85828601610a0e565b9250506020610a8085828601610a38565b9150509250929050565b5f819050919050565b610a9c81610a8a565b82525050565b5f602082019050610ab55f830184610a93565b92915050565b610ac4816109e7565b82525050565b5f602082019050610add5f830184610abb565b92915050565b610aec81610a8a565b8114610af6575f5ffd5b50565b5f81359050610b0781610ae3565b92915050565b5f60208284031215610b2257610b216109c4565b5b5f610b2f84828501610af9565b91505092915050565b5f8115159050919050565b610b4c81610b38565b82525050565b5f60a082019050610b655f830188610abb565b610b72602083018761099c565b610b7f604083018661099c565b610b8c6060830185610b43565b610b996080830184610b43565b9695505050505050565b5f82825260208201905092915050565b7f4f6e6c792074686520476f7665726e616e636520636f6e74726163742063616e5f8201527f2063616c6c207468697300000000000000000000000000000000000000000000602082015250565b5f610c0d602a83610ba3565b9150610c1882610bb3565b604082019050919050565b5f6020820190508181035f830152610c3a81610c01565b9050919050565b7f4e487b71000000000000000000000000000000000000000000000000000000005f52601160045260245ffd5b5f610c7882610993565b9150610c8383610993565b9250828201905080821115610c9b57610c9a610c41565b5b92915050565b5f606082019050610cb45f830186610abb565b610cc1602083018561099c565b610cce604083018461099c565b949350505050565b7f5472616e73616374696f6e20616c7265616479207175657565640000000000005f82015250565b5f610d0a601a83610ba3565b9150610d1582610cd6565b602082019050919050565b5f6020820190508181035f830152610d3781610cfe565b9050919050565b5f604082019050610d515f83018561099c565b610d5e602083018461099c565b9392505050565b7f5472616e73616374696f6e20646f6573206e6f742065786973740000000000005f82015250565b5f610d99601a83610ba3565b9150610da482610d65565b602082019050919050565b5f6020820190508181035f830152610dc681610d8d565b9050919050565b7f5472616e73616374696f6e20616c7265616479206578656375746564000000005f82015250565b5f610e01601c83610ba3565b9150610e0c82610dcd565b602082019050919050565b5f6020820190508181035f830152610e2e81610df5565b9050919050565b7f5472616e73616374696f6e207761732063616e63656c6c6564000000000000005f82015250565b5f610e69601983610ba3565b9150610e7482610e35565b602082019050919050565b5f6020820190508181035f830152610e9681610e5d565b9050919050565b7f54696d656c6f636b2064656c617920686173206e6f74207061737365640000005f82015250565b5f610ed1601d83610ba3565b9150610edc82610e9d565b602082019050919050565b5f6020820190508181035f830152610efe81610ec5565b9050919050565b7f496e73756666696369656e742074726561737572792062616c616e63650000005f82015250565b5f610f39601d83610ba3565b9150610f4482610f05565b602082019050919050565b5f6020820190508181035f830152610f6681610f2d565b9050919050565b5f81905092915050565b50565b5f610f855f83610f6d565b9150610f9082610f77565b5f82019050919050565b5f610fa482610f7a565b9150819050919050565b7f455448207472616e73666572206661696c6564000000000000000000000000005f82015250565b5f610fe2601383610ba3565b9150610fed82610fae565b602082019050919050565b5f6020820190508181035f83015261100f81610fd6565b905091905056fea2646970667358221220d99311e1afc5ad3cf673c85fee2927bde5a395fb5c8c8bc561e53646ae1c738664736f6c634300081c0033",
  "linkReferences": {},
  "deployedLinkReferences": {}
}